:020000040800F2
:104000000080002079AC0008DF430008E14300088D
:10401000E3430008E5430008E74300080000000010
:10402000000000000000000000000000E94300085C
:10403000EB43000800000000ED430008294300089E
:10404000C9AC0008C9AC0008C9AC0008C9AC00087C
:10405000C9AC0008C9AC0008C9AC0008C9AC00086C
:10406000C9AC0008C9AC0008C9AC0008C9AC00085C
:10407000C9AC0008C9AC0008C9AC0008F14300088D
:10408000C9AC0008C9AC0008C9AC0008C9AC00083C
:10409000C9AC0008C9AC0008C9AC0008C9AC00082C
:1040A000C9AC0008C9AC0008C9AC0008C9AC00081C
:1040B000C9AC0008C9AC0008C9AC0008C9AC00080C
:1040C000C9AC0008C9AC0008C9AC0008C9AC0008FC
:1040D000C9AC0008C9AC0008C9AC0008C9AC0008EC
:1040E000C9AC0008C9AC0008C9AC0008C9AC0008DC
:1040F000C9AC0008C9AC00080000000000000000C6
:104100000000000000000000C9AC0008C9AC0008B5
:10411000000000000000000065430008C9AC000872
:10412000C9AC0008C9AC0008C9AC0008C9AC00089B
:10413000C9AC0008C9AC0008C9AC0008C9AC00088B
:10414000C9AC0008000000000000000000000000F2
:10415000000000000000000000000000000000005F
:104160000000000000000000C9AC00080144000885
:10417000C9AC000800000000C9AC00080000000045
:0841800000000000C9AC0008BA
:1041880010B5054C237833B9044B13B10448AFF389
:1041980000800123237010BD58010020000000009A
:1041A80050B6000808B5034B1BB103490348AFF3E9
:1041B800008008BD000000005C01002050B6000827
:1041C80030B59BB02822002110A806F09FFD0024DE
:1041D8000B940C940D940E940F942C22214668464F
:1041E80006F094FD012210924FF48033119314923B
:1041F8000225179518934FF4E013199310A800F0AF
:1042080059FD0F230B930C950D944FF480630E9377
:104218000F9429460BA801F083F84FF4003300935C
:104228000A94684601F068F91BB030BD0F4B1B7843
:10423800DBB110B5013B0D4A137000240FE004EB0D
:10424800440304EB83030A48184404F049FC04EBD4
:104258000412D3000748184405F0D6F80134032C9B
:10426800EDD9024B00221A7010BD7047740100206E
:10427800A44C0020D84C002000B583B000F0ECFC22
:10428800FFF79EFF06F0D2F800F0F6F906F0D6FC2C
:1042980000F098FA00F0E2FB00F054FC03F05CF93F
:1042A80000F01CFB04F050FA04F052F904F072FB21
:1042B80004F090FD06F0F0F8164801F0D7FD05F07F
:1042C8006DFF1BE0FFF7B2FF03F0ECFF124B93F812
:1042D800FC31032B09D101A9104804F0FFFA00288A
:1042E800F0D0019803F0E8FEECE7032004F070F941
:1042F80005F054FFFFF79AFF03F0D4FF064B93F83D
:10430800FC31032BF6D105F013FF022004F060F90D
:10431800DCE700BFF4030020580400209C0C0020B8
:1043280008B500F0ABFC0A490B780133DBB20B701F
:10433800084AA2FB0302D20802EB820250001B1AB1
:10434800DBB20B7013B9044B01221A7008BD00BF11
:10435800370C0020CDCCCCCC360C002008B5194B3E
:104368001B68DA6812F0010F27D06FF001021A619A
:10437800154B93F85C3003EB0312D100134A0A443F
:10438800127D1AB9114A0A44127FBAB103EB03131A
:10439800DA000E48104404F03FFD0B4A92F85C30F6
:1043A8000133DBB282F85C3003F0030382F85C303F
:1043B8001BB9074A13780133137008BD04F054FA87
:1043C800EBE700BFF40300203C0C0020D84C002091
:1043D8007401002070477047FEE7FEE7FEE7FEE73E
:1043E800704770477047000008B5024801F0AEFA00
:1043F80008BD00BFCC02002008B5024802F0EEFE5E
:1044080008BD00BF7C06002082B00A4B9A6942F0C2
:1044180001029A619A6902F001020092009ADA692F
:1044280042F08052DA61DB6903F080530193019B0B
:1044380002B07047001002401549D1F8883043F4A3
:104448007003C1F88830134B1A6842F001021A60F1
:104458005868114A02405A601A6822F0847222F49D
:1044680080321A601A6822F480221A605A6822F48C
:10447800FE025A60DA6A22F00F02DA62186B074A03
:1044880002401A6300229A60054B8B60704700BF98
:1044980000ED00E0001002400CC07FF8CCFC00FFEB
:1044A80000400008042917D002207047914210D913
:1044B8000D4C236810F802C00C4D05F803C00133F9
:1044C80023600132B3F5807FF0D1234600241C60BD
:1044D800ECE7002030BC70470022914201D930B48B
:1044E800E6E70020704700BF7C020020780100202A
:1044F80070B505468E0811F0030408D0002070BD81
:1045080005EB8401034804F004FA0134A4B2B44270
:10451800F6D3F3E79C0C0020044B1B78012B01D049
:1045280000207047014B00221A70F9E7C4020020EE
:1045380065230380004870474400002038B50446CE
:10454800D0F81C22D0F82032C1EBC10103EB810165
:104558001368064DB1F8E4112846984740232A46C7
:104568000121204603F053F9002038BD84020020C1
:1045780038B504460025054B1D60812103F0E5F898
:104588000121204603F0E1F8284638BDC802002082
:1045980010B504460A4B186040230222812103F01B
:1045A800C2F8402302220121204603F0BCF8402330
:1045B800044A0121204603F02AF9002010BD00BF5B
:1045C800C80200208402002008B5214B1B78012B6B
:1045D80027D0204B1B68B3F5807F23D01D4B19686B
:1045E8001D4B1B68994221D0994223D9C1F580738C
:1045F8001A4A1360194B186840281FD91FFA81FC02
:104608004031144B19604038144B1860402310494E
:1046180001200870124A624481211248006803F0A0
:10462800E7F808BD0B4B00221A60D7E7084B0022B9
:104638001A70F6E75B1A094A1360DBE71FFA81FC78
:1046480083B20144034A1160044A00211160DEE785
:10465800C4020020800200207C0200207802002092
:1046680078010020C802002019B1C0F81C120020EF
:104678007047022070470000F0B58DB00024079401
:10468800089409940A940B94494B5A6942F40022FD
:104698005A615A6902F400220192019A5A6942F455
:1046A80080025A615A6902F480020292029A5A6997
:1046B80042F400325A615A6902F400320392039AB2
:1046C8005A6942F480225A615A6902F4802204929B
:1046D800049A5A6942F400125A615A6902F40012A3
:1046E8000592059A5A6942F480125A615B6903F48B
:1046F80080130693069B22464FF497714FF0904023
:1047080001F0CCF82B4F22464FF48041384601F097
:10471800C5F84FF46043079303250895099407A942
:10472800254800F0EDFF48F20163079308950994C6
:1047380007A94FF0904000F0E3FF2E2307930126CE
:10474800089609940A9407A94FF0904000F0D8FF02
:104758003C2307930895099407A9384600F0D0FF31
:104768004FF4407307930895099407A9134800F07C
:10477800C7FF4FF480430793089609940A9407A942
:10478800384600F0BDFF4FF48073079308960994EC
:104798000A9507A94FF0904000F0B2FFC023079395
:1047A8000895099407A9064800F0AAFF0DB0F0BDC6
:1047B80000100240000400480008004800100048AB
:1047C8000014004808B51048104B03604FF482737A
:1047D8004360002383604FF47062C26003614361E9
:1047E8004FF400728261C3610362436283620722ED
:1047F800C26203630823436301F0ACFA00B908BD41
:10480800FFF7E8FDFBE700BF100300200038004079
:10481800F0B589B000230393049305930693079397
:104828000268294B9A4201D009B0F0BD044603F54D
:10483800EC33DA6942F48042DA61DA6902F48042E0
:104848000092009A5A6942F480225A615A6902F425
:1048580080220192019A5A6942F480125A615B6976
:1048680003F480130293029B4FF400430393022541
:104878000495032706970526079603A9134800F011
:104888003FFF4FF480730393049500250595069721
:10489800079603A90E4800F033FF0E480E4B03603D
:1048A8001023436085608023C3600561456185618D
:1048B800C56101F01FF818B9064B63655C62B3E780
:1048C800FFF788FDF8E700BF003800400004004803
:1048D800000C0048CC0200205800024000B583B00C
:1048E8000023009301930F480F4A026043608360DE
:1048F80040F26363C3608023836101F027FB50B9F2
:104908000023009301936946064801F043FD28B946
:1049180003B05DF804FBFFF75DFDF1E7FFF75AFD13
:10492800F6E700BFF40300200010004000B585B092
:1049380003681A4A934208D0194A934210D0194A78
:10494800934218D005B05DF804FB174BDA6942F0C2
:104958000202DA61DB6903F002030193019BF1E7CC
:10496800114BDA6942F00402DA61DB6903F00403EF
:104978000293029BE6E70C4BDA6942F01002DA6117
:10498800DB6903F010030393039B002211463620D2
:1049980001F048F8362001F07DF8D3E70004004024
:1049A80000080040001000400010024010B588B018
:1049B8000023039304930593069307930368234AFC
:1049C800934204D0224A93422AD008B010BD214B0A
:1049D8005A6942F400325A615A6902F4003200926C
:1049E800009A5A6942F480225A615B6903F4802371
:1049F8000193019B5023039302240494079403A971
:104A08004FF0904000F07CFE0323039304940023AE
:104A180005930693079403A90F4800F071FED4E7A5
:104A28000C4B5A6942F480225A615B6903F4802373
:104A38000293029B4FF4707303930223049307932A
:104A480003A9054800F05CFEBFE700BF0004004072
:104A580000080040001002400004004800B58FB074
:104A680000230A930B930C930D93089309930193D6
:104A78000293039304930593069307932F48304AB0
:104A88000260632242608360FF22C2600361836127
:104A980001F05CFA002839D14FF480530A930AA92F
:104AA800264801F0C4FB002833D1244801F068FAF5
:104AB800002831D100230893099308A91F4801F061
:104AC80069FC60BB60230193002202920392059265
:104AD80001A91A4801F030FB20BB04220DEB0201AA
:104AE800164801F029FB00BB082201A9134801F070
:104AF80023FBE8B90C2201A9104801F01DFBD0B92D
:104B08000E48FFF753FF0FB05DF804FBFFF762FC98
:104B1800C2E7FFF75FFCC8E7FFF75CFCCAE7FFF7EF
:104B280059FCCFE7FFF756FCD7E7FFF753FCDBE765
:104B3800FFF750FCDEE7FFF74DFCE1E774030020C8
:104B48000004004000B58FB000230A930B930C9328
:104B58000D93089309930193029303930493059388
:104B6800069307932F48304A0260632242608360AD
:104B7800FF22C2600361836101F0E8F9002839D19E
:104B88004FF480530A930AA9264801F050FB0028E5
:104B980033D1244801F0F4F9002831D100230893D7
:104BA800099308A91F4801F0F5FB60BB6023019336
:104BB800002202920392059201A91A4801F0BCFA58
:104BC80020BB04220DEB0201164801F0B5FA00BB28
:104BD800082201A9134801F0AFFAE8B90C2201A98B
:104BE800104801F0A9FAD0B90E48FFF7DFFE0FB060
:104BF8005DF804FBFFF7EEFBC2E7FFF7EBFBC8E746
:104C0800FFF7E8FBCAE7FFF7E5FBCFE7FFF7E2FBB3
:104C1800D7E7FFF7DFFBDBE7FFF7DCFBDEE7FFF7B4
:104C2800D9FBE1E7B40300200008004010B50446B2
:104C3800074B1868074BA3FB0030800900F036FFCC
:104C4800002221464FF0FF3000F0ECFE002010BD9E
:104C580000000020D34D621008B5074A136843F0DE
:104C680010031360032000F0CBFE0020FFF7DEFFE7
:104C7800FFF7CAFB002008BD00200240024A136863
:104C880001331360704700BF34040020014B1868DB
:104C9800704700BF3404002010B582B00190FFF7C0
:104CA800F5FF0446FFF7F2FF001B019B9842F9D37A
:104CB80002B010BD70B582B00446036813F0010F4E
:104CC8003BD0B54B5B6803F00C03042B1ED0B24BF2
:104CD8005B6803F00C03082B13D06368B3F5803FBF
:104CE80068D0002B40F0928003F1804303F5043331
:104CF8001A6822F480321A601A6822F480221A6034
:104D08005DE0A54B5B6813F4803FE6D04FF40033B9
:104D180093FAA3F3A04B19684FF4003393FAA3F363
:104D2800B3FA83F303F01F03012202FA03F30B42E1
:104D380003D06368002B00F0AD82236813F0020FE4
:104D480000F0C580944B5B6813F00C0F00F09C805A
:104D5800914B5B6803F00C03082B00F08F802369EC
:104D6800002B00F0F280012292FAA2F3B3FA83F347
:104D780003F1845303F584139B001A60FFF786FF41
:104D88000546022393FAA3F3834B1968022393FA87
:104D9800A3F3B3FA83F303F01F03012202FA03F328
:104DA8000B4240F0C380FFF771FF401B0228E8D98F
:104DB800032078E2784A136843F480331360764A14
:104DC800D36A23F00F03A1680B43D3626368002BF7
:104DD80036D0FFF75BFF05464FF4003393FAA3F391
:104DE8006D4B19684FF4003393FAA3F3B3FA83F3C6
:104DF80003F01F03012202FA03F30B429DD1FFF7D0
:104E080045FF401B6428E7D903204CE2B3F5A02FE7
:104E180009D0614B1A6822F480321A601A6822F4A9
:104E280080221A60CBE703F18043A3F53C331A686C
:104E380042F480221A601A6842F480321A60BEE78F
:104E4800FFF724FF05464FF4003393FAA3F3524BC0
:104E580019684FF4003393FAA3F3B3FA83F303F01A
:104E68001F03012202FA03F30B423FF466AFFFF778
:104E78000DFF401B6428E6D9032014E2464B5B680B
:104E880013F4803F7FF46BAF022393FAA3F3424BF2
:104E98001968022393FAA3F3B3FA83F303F01F0309
:104EA800012202FA03F30B4203D02369934240F034
:104EB800F3813948036823F0F8036169F82292FA0C
:104EC800A2F2B2FA82F201FA02F2134303602368F3
:104ED80013F0080F00F08C80A369002B60D001212B
:104EE80091FAA1F2B2FA82F22C4B13449B0019609A
:104EF800FFF7CCFE0546022393FAA3F293FAA3F236
:104F080093FAA3F2244A516A93FAA3F3B3FA83F308
:104F180003F01F03012202FA03F30B4268D1FFF7E3
:104F2800B5FE401B0228E6D90320BCE11A480368F5
:104F380023F0F8036169F82292FAA2F2B2FA82F237
:104F480001FA02F213430360C1E7012393FAA3F3C2
:104F5800B3FA83F303F1845303F584139B0000220F
:104F68001A60FFF793FE0546022393FAA3F30A4B50
:104F78001968022393FAA3F3B3FA83F303F01F0328
:104F8800012202FA03F30B42A1D0FFF77FFE401B78
:104F98000228E9D9032086E1001002402081901000
:104FA800012292FAA2F2B2FA82F2B74B13449B00A2
:104FB80000221A60FFF76AFE0546022393FAA3F25D
:104FC80093FAA3F293FAA3F2B04A516A93FAA3F3BD
:104FD800B3FA83F303F01F03012202FA03F30B422F
:104FE80006D0FFF753FE401B0228E6D903205AE1FA
:104FF800236813F0040F00F0A980A44BDB6913F0B9
:10500800805F20D1A14BDA6942F08052DA61DB6916
:1050180003F080530193019B01259D4B1B6813F4FA
:10502800807F12D0E368012B23D073BB03F1804348
:1050380003F504331A6A22F001021A621A6A22F08E
:1050480004021A621AE00025E7E7914A136843F45C
:1050580080731360FFF71AFE06468D4B1B6813F426
:10506800807FDFD1FFF712FE801B6428F5D903206B
:1050780019E1864A136A43F001031362E368002BBF
:105088003CD0FFF703FE06462BE0052B09D07F4BEB
:105098001A6A22F001021A621A6A22F004021A62DB
:1050A800ECE77A4B1A6A42F004021A621A6A42F072
:1050B80001021A62E2E7754B196A022393FAA3F315
:1050C800B3FA83F303F01F03012202FA03F3194230
:1050D8003BD1FFF7DBFD801B41F28833984200F299
:1050E800DD80022393FAA3F293FAA3F3002BE2D113
:1050F800022393FAA3F3654B596ADEE7FFF7C6FD6F
:10510800064615E0614B196A022393FAA3F3B3FA32
:1051180083F303F01F03012202FA03F3194214D0A8
:10512800FFF7B4FD801B41F28833984200F2B88043
:10513800022393FAA3F293FAA3F3002BE2D10223FA
:1051480093FAA3F3514B596ADEE7B5BBE369002B29
:1051580000F0A8804D4A526802F00C02082A00F0BC
:10516800A480022B2FD04FF0807393FAA3F3B3FAE5
:1051780083F303F1845303F584139B0000221A6020
:10518800FFF784FD04464FF0007393FAA3F33F4BF7
:1051980019684FF0007393FAA3F3B3FA83F303F09B
:1051A8001F03012202FA03F319426BD0FFF76EFDC9
:1051B800001B0228E7D9032075E0344AD36923F09D
:1051C8008053D361C2E74FF0807393FAA3F3B3FA25
:1051D80083F303F1845303F584139B0000221A60C0
:1051E800FFF754FD05464FF0007393FAA3F3274BDE
:1051F80019684FF0007393FAA3F3B3FA83F303F03B
:105208001F03012202FA03F3194206D0FFF73EFDFD
:10521800401B0228E7D9032045E01C494B6823F4CA
:105228007413626A206A024313434B604FF0807321
:1052380093FAA3F3B3FA83F303F1845303F58413C6
:105248009B0001221A60FFF721FD04464FF000730E
:1052580093FAA3F30D4B19684FF0007393FAA3F375
:10526800B3FA83F303F01F03012202FA03F319428E
:1052780006D1FFF70BFD001B0228E7D9032012E037
:10528800002010E000200EE0208190100010024065
:1052980000700040012006E0012004E0032002E045
:1052A800032000E0002002B070BD0120FBE700BF32
:1052B800164B5B6803F00C02082A01D014487047AB
:1052C80003F470114FF4701292FAA2F2B2FA82F259
:1052D80021FA02F20F49885C0C4AD26A02F00F02E6
:1052E8000F2191FAA1F1B1FA81F1CA400A498A5C09
:1052F80013F4803F05D0064BB3FBF2F303FB00F039
:105308007047064B03FB00F0704700BF00100240D7
:1053180000127A0078B6000888B6000800093D0037
:1053280070B504460D46704B1B6803F007038B42AB
:105338000BD26D4A136823F007030B4313601368FD
:1053480003F007038B4240F0C880236813F0020F74
:1053580006D0664A536823F0F003A1680B435360F4
:10536800236813F0010F7AD06368012B2FD0022B2A
:1053780042D0022292FAA2F25C4A1068022292FA01
:10538800A2F2B2FA82F202F01F02012101FA02F23D
:10539800104200F0A48055494A6822F003021343E2
:1053A8004B60FFF773FC06466368012B39D0022B6C
:1053B80046D04E4B5B6813F00C0F50D0FFF766FCDD
:1053C800831B41F288329342F3D9032084E04FF4DF
:1053D800003292FAA2F2454A10684FF4003292FA6B
:1053E800A2F2B2FA82F202F01F02012101FA02F2DD
:1053F8000242D0D101206FE04FF0007292FAA2F27F
:105408003A4A10684FF0007292FAA2F2B2FA82F2A7
:1054180002F01F02012101FA02F21042BBD1012061
:105428005AE0324B5B6803F00C03042B17D0FFF7EC
:105438002DFC831B41F288329342F2D903204BE0C2
:105448002A4B5B6803F00C03082B08D0FFF71EFCFF
:10545800801B41F288339842F2D903203CE0224B6A
:105468001B6803F00703AB420AD91F4A136823F0ED
:1054780007032B431360136803F00703AB4230D1D3
:10548800236813F0040F06D0184A536823F4E06326
:10549800E1680B435360236813F0080F07D0134AE1
:1054A800536823F46053216943EAC1035360FFF74B
:1054B800FFFE0E4B5B6803F0F003F02292FAA2F2B3
:1054C800B2FA82F2D3400A4AD35CD840094B18603A
:1054D8000020FFF7ABFB002070BD0120FCE7012096
:1054E800FAE70120F8E700BF002002400010024060
:1054F80068B6000800000020F0B583B004460368D1
:1055080013F4803F48D07B4BDB6913F0805F40F099
:10551800A880784BDA6942F08052DA61DB6903F0DF
:1055280080530193019B0125734B1B6813F4807F03
:1055380000F099806F4B1B6A13F4407322D06268A5
:1055480002F440729A421DD06A48016A21F44076FA
:105558004FF4803393FAA3F2B2FA82F2674F3A44D7
:1055680092004FF0010CC2F800C093FAA3F3B3FA0B
:1055780083F33B449B0000221A60066211F0010F7E
:1055880040F086805B4A136A23F4407361680B43DA
:105598001362002D40F0A380236813F0010F06D09A
:1055A800544A136B23F00303A1680B431363236866
:1055B80013F0020F06D04F4A136B23F44033E1680F
:1055C8000B431363236813F0040F06D0494A136B87
:1055D80023F4402321690B431363236813F0200F3E
:1055E80006D0444A136B23F0100361690B4313631D
:1055F800236813F4003F06D03E4A536823F480031F
:10560800A16A0B435360236813F0400F06D0394A50
:10561800136B23F02003A1690B431363236813F072
:10562800800F06D0334A536823F44043E1690B43A3
:105638005360236813F4006F06D02E4A536823F092
:105648007843216A0B435360236813F4806F4DD06D
:10565800284A136B23F04003616A0B43136300204D
:1056680045E0002560E7244A136843F4807313601B
:10567800FFF70CFB0646204B1B6813F4807F7FF472
:1056880059AFFFF703FB801B6428F4D903202EE0F1
:10569800FFF7FCFA064615E0164B196A022393FA3F
:1056A800A3F3B3FA83F303F01F03012202FA03F30F
:1056B8000B427FF467AFFFF7E9FA801B41F28833AA
:1056C800984211D8022393FAA3F293FAA3F3002B7A
:1056D800E2D1022393FAA3F3064B596ADEE7D369B2
:1056E80023F08053D36157E7032000E0002003B084
:1056F800F0BD00BF00100240007000400081901013
:10570800F0B583B0002236E0042400E00024B44061
:105718003C4302355D4E46F825405D4C2568DC4328
:1057280025EA03064F6817F4803F01D043EA0506CF
:10573800574D2E606D6804EA05064F6817F4003F60
:1057480001D043EA0506524D6E60AD6804EA0506CD
:105758004F6817F4801F01D043EA05064C4DAE6030
:10576800ED682C404E6816F4001F01D043EA05048A
:10577800474BDC6001320B6833FA02F400F0838097
:105788004FF0010C0CFA02FC1CEA0303F2D04C683F
:10579800022C01D0122C10D1D508083550F82570EC
:1057A80002F00704A6000F24B44027EA040E0C698F
:1057B800B44044EA0E0440F8254005684FEA420E1A
:1057C800032404FA0EF4E64325EA04054C6804F0C1
:1057D800030404FA0EF42C4304604C68651E012D82
:1057E80003D9112C01D0122C10D185683540CC6812
:1057F80004FA0EF42C438460456825EA0C0C4D68C5
:10580800C5F30015954045EA0C054560C468264077
:105818008C6804FA0EF43443C4604C6814F0805F5A
:10582800A8D01C4CA56945F00105A561A46904F040
:1058380001040194019C9508AE1C144C54F8267080
:1058480002F00304A6000F24B44027EA0407B0F1CD
:10585800904F3FF45BAF104CA0420ED004F580642B
:10586800A0420CD004F58064A0420AD004F58064FC
:10587800A0423FF449AF052449E7012447E7022441
:1058880045E7032443E703B0F0BD00BF0000014033
:105898000004014000100240000400480AB1816180
:1058A800704781627047000002680C4B9A420AD820
:1058B8000B4B13440B4AA2FB03231B099B000364F5
:1058C800094BC3637047094B1344064AA2FB0323E1
:1058D8001B099B000364064BC3637047070402401F
:1058E800F8FFFDBFCDCCCCCC00000240F8FBFDBFDB
:1058F8000004024040B310B50446022380F821306A
:1059080001680A6822F47F5222F0300243688068F6
:105918000343E06803432069034360690343A069C4
:105928000343E069034313430B602046FFF7BCFFC2
:105938000020A062E06220636063A063012384F812
:10594800213084F8200010BD0120704738B5C36BA2
:105958001A6804682568016C04238B40134213D02D
:1059680015F0040F10D0236813F0200F03D123681B
:1059780023F004032360016CC26B04238B40536043
:10598800C36A03B1984738BD02238B4013421AD02B
:1059980015F0020F17D0236813F0200F06D12368E3
:1059A80023F00A032360012380F82130016CC26BC5
:1059B80002238B405360002380F82030836A002B39
:1059C800E1D09847DFE7082303FA01F11142DAD062
:1059D80015F0080FD7D0236823F00E032360026C5C
:1059E800C16B012303FA02F24A60836380F8213015
:1059F800002380F82030036B002BC4D09847C2E7FF
:105A0800074AD36823F4E0631B041B0C000200F46C
:105A1800E060034343F0BF6343F40033D36070474F
:105A280000ED00E000B5194BDB68C3F30223C3F1B6
:105A3800070CBCF1040F28BF4FF0040C03F1040E4F
:105A4800BEF1060F18D9033B4FF0FF3E0EFA0CFCCF
:105A580021EA0C0199400EFA03F322EA03031943E1
:105A680000280BDB0901C9B200F1604000F5614074
:105A780080F800135DF804FB0023E5E700F00F0051
:105A88000901C9B2024B1954F4E700BF00ED00E068
:105A980014ED00E000F01F02400901239340024A80
:105AA80042F82030704700BF00E100E00138B0F153
:105AB800807F0BD24FF0E0235861054AF02182F82D
:105AC80023100020986107221A617047012070474F
:105AD80000ED00E0044B0022DA61044A136943F048
:105AE8000103136101807047380400200020024040
:105AF8000C4BDB6813F0100305D00B4AD36943F055
:105B08000203D3611023074AD26812F0040F06D0AB
:105B18000549CA6942F00102CA6143F00403014A17
:105B2800D36070470020024038040020074B1B69EF
:105B380013F0800F07D0054B054A5A6002F18832EE
:105B48005A60002070470120704700BF00200240C3
:105B580023016745034A136943F08003136100205A
:105B6800704700BF0020024038B50446FFF78EF8A2
:105B78000546144BDB6813F0010F0AD0B4F1FF3F60
:105B8800F7D024B1FFF782F8401BA042F1D90320D7
:105B980012E00C4BDB6813F0200F02D0094B2022D7
:105BA800DA60084BDB6813F0100F06D1054BDB6891
:105BB80013F0040F01D1002038BDFFF799FF012031
:105BC800FAE700BF002002402DE9F8431E46244BA7
:105BD8001B7E012B41D004460F469046204B0122E4
:105BE8001A764CF25030FFF7BFFF034678BB012C02
:105BF80008D0022C03D04FF004091C4607E04FF0F0
:105C08000209FAE74FF00109F7E70134E4B24C451D
:105C18001DD22101C1F12002A1F1200328FA01F1CE
:105C280006FA02F2114326FA03F3194389B207EB85
:105C38004400FFF74FFF4CF25030FFF795FF094B38
:105C48001D6925F001051D6103460028DDD0044AC1
:105C5800002111761846BDE8F8830223FAE700BF51
:105C68003804002000200240064B0022DA61064B6F
:105C78001A6942F004021A611A6942F040021A6174
:105C8800704700BF3804002000200240064B002265
:105C9800DA61064B1A6942F002021A6158611A6900
:105CA80042F040021A617047380400200020024088
:105CB800264B1B7E012B45D070B505460E46234B5F
:105CC80001221A760368934220D04CF25030FFF735
:105CD8004BFF88BB4FF0FF3333606C680121AA6823
:105CE8006B6803EBC223A34227D92046FFF7CEFFF8
:105CF8004CF25030FFF738FF154A136923F00203BE
:105D080013610146B0B904F50064E8E74CF250307D
:105D1800FFF72AFF08B101210FE0FFF7A5FF4CF2BA
:105D28005030FFF721FF0146094A136923F00403A5
:105D3800136102E0346000E00121044B00221A766E
:105D4800084670BD02210846704700BF380400208D
:105D580000200240002858D010B504460023836272
:105D680090F85D30002B45D0022384F85D3022681E
:105D7800136823F040031360E368B3F5E06F3ED97E
:105D88000022B3F5706F04D0B3F5E06F01D00021A5
:105D9800A162216B21B9B3F5E06F33D902232363E4
:105DA8006368A1680B4321690B4361690B43A169CF
:105DB80001F400710B43E1690B43216A0B43A06AAC
:105DC800216803430B60638B03F00403616A0B4390
:105DD800616B0B43E1680B43216813434B602268F6
:105DE800D36923F40063D36100202066012384F87B
:105DF8005D3010BD80F85C30FEF70AFDB4E74FF463
:105E08008052BEE701232363CAE70120704710B41C
:105E1800036A046A24F001040462846924F0F00C23
:105E28004CEA021223F00A030B43826103625DF815
:105E3800044B704710B4046A24F0100404628469A7
:105E4800036A24F4704C4CEA023223F0A00343EABC
:105E58000113826103625DF8044B7047836823F085
:105E6800700341F007011943816070470268D368E5
:105E780043F00103D3600268136843F00103136021
:105E880000207047704700000368B0F1804F0ED0C3
:105E98002C4A90420BD002F58062904207D002F55E
:105EA8008062904203D002F5A832904203D123F0D9
:105EB80070034A681343B0F1804F26D0214A9042BC
:105EC80023D002F5806290421FD002F58062904292
:105ED8001BD002F54062904217D002F580629042D2
:105EE80013D002F5806290420FD002F590329042B2
:105EF8000BD002F58062904207D002F58062904292
:105F080003D002F5A052904203D123F44073CA682B
:105F1800134323F080034A69134303608B68C36209
:105F28000B688362084B984207D003F58063984258
:105F380003D003F58063984201D10B690363012301
:105F4800436170470004004000400140B0B110B503
:105F5800044690F83D3063B1022384F83D30214671
:105F680051F8040BFFF790FF012384F83D3000201F
:105F780010BD80F83C30FEF7D9FCEDE701207047F2
:105F8800B0B110B5044690F83D3063B1022384F8EF
:105F98003D30214651F8040BFFF776FF012384F8C2
:105FA8003D30002010BD80F83C30FFF76BFFEDE777
:105FB8000120704730B4036A23F001030362036AC7
:105FC8004568826922F073020C68224323F00203B9
:105FD8008C682343154CA04207D004F58064A04286
:105FE80003D004F58064A04205D123F00803CC68EF
:105FF800234323F004030D4CA04207D004F580642A
:10600800A04203D004F58064A04207D125F4407C67
:106018004C6944EA0C0C8D6945EA0C0545608261BF
:106028004A684263036230BC704700BF00400140C9
:1060380030B4036A23F010030362036A4468826978
:1060480022F4E6420D6842EA052223F020038D6817
:1060580043EA05130C4DA84207D005F58065A84210
:1060680003D005F58065A84207D124F480644D6902
:1060780044EA85048D6944EA8504446082614A687B
:106088008263036230BC70470040014030B4036A49
:1060980023F480730362036A4268C46924F07304BA
:1060A8000D682C4323F400738D6843EA05230C4DD7
:1060B800A84207D005F58065A84203D005F580659C
:1060C800A84205D14D6942EA05128D6942EA0512D6
:1060D8004260C4614A68C263036230BC704700BF53
:1060E8000040014030B4036A23F480530362036A1A
:1060F8004468C26922F4E6420D6842EA052223F4A4
:1061080000538D6843EA05330A4DA84207D005F5C8
:106118008065A84203D005F58065A84202D14D6983
:1061280044EA85144460C2614A680264036230BC70
:10613800704700BF0040014038B590F83C30012B53
:1061480066D004460D46012380F83C30022380F8CF
:106158003D300C2A1AD8DFE802F00719191920195E
:1061680019193419191947000068FFF723FF226825
:10617800936943F0080393612268936923F0040349
:1061880093612268936929690B439361012384F819
:106198003D30002084F83C0038BD0068FFF748FF18
:1061A8002268936943F4006393612268936923F436
:1061B8008063936122689369296943EA01239361A3
:1061C800E4E70068FFF762FF2268D36943F0080339
:1061D800D3612268D36923F00403D3612268D369A9
:1061E80029690B43D361D1E70068FFF77BFF226879
:1061F800D36943F40063D3612268D36923F48063CD
:10620800D3612268D369296943EA0123D361BDE7D1
:106218000220C1E710B4846824F47F4C42EA0322C8
:106228000A4342EA0C0282605DF8044B704790F81A
:106238003C30012B7ED010B50446012380F83C3059
:10624800022380F83D300268936823F47F4323F0EB
:10625800770393600B68502B49D019D8202B5FD057
:106268000DD9302B61D0402B3AD1CA6849680068F3
:10627800FFF7CDFD40212068FFF7F0FD30E0002B4F
:1062880049D0102B2CD110210068FFF7E7FD27E03B
:10629800B3F5805F1FD00ED9B3F5005F20D1CB686E
:1062A8004A6889680068FFF7B5FF2268936843F475
:1062B8008043936014E0602B23D0702B10D1CB68FF
:1062C8004A6889680068FFF7A5FF2268936843F069
:1062D8007703936004E00268936823F007039360F0
:1062E800012384F83D30002084F83C0010BDCA68C2
:1062F80049680068FFF78BFD50212068FFF7AEFD65
:10630800EEE7CA6849680068FFF794FD60212068D5
:10631800FFF7A4FDE4E700210068FFF79FFDDFE732
:1063280020210068FFF79AFDDAE730210068FFF7BF
:1063380095FDD5E702207047012303FA01FC036AA3
:1063480023EA0C030362036A02FA01F10B430362B6
:106358007047000010B5044601220068FFF7ECFF03
:1063680023680B4A934207D002F58062934203D018
:1063780002F58062934203D15A6C42F400425A6497
:106388002268136843F001031360002010BD00BFAA
:106398000040014090F83C30012B22D030B401225B
:1063A80080F83C20022380F83D300468636823F0BD
:1063B80070036360046863680D682B436360046856
:1063C800A36823F08003A3600468A36849680B43AB
:1063D800A36080F83D20002380F83C30184630BC8C
:1063E80070470220704700284FD010B5044690F837
:1063F800713323B1032384F87133002214E080F849
:10640800703301F0C5F8F5E7C2EBC20304EB830370
:10641800012183F8291083F82820002183F82B1004
:1064280059639963D963013260689042ECD80022BD
:1064380011E0C2EBC20304EB8303002183F8CD1102
:1064480083F8CC2183F8CF11C3F8D811C3F8DC1135
:10645800C3F8E01101329042EBD822680123A2F878
:10646800403022680020A2F840002268A2F84400C8
:106478002268A2F8500022684FF43F41A2F8401069
:1064880084F8240084F8713310BD0120704708B5E2
:10649800012101F0CBF9002008BD90F87033012BE1
:1064A8000FD0012380F8703341B903688022A3F824
:1064B8004C20002380F870331846704780F8241069
:1064C800F7E70220704700B54FFA81FEBEF1000FD2
:1064D80026DB01F07F0CCCEBCC0C4FEA8C0C0CF5D6
:1064E800E47C84440CF1040C01F07F018CF800106A
:1064F8004FEADE718CF80110CCF80C208CF80330D0
:1065080090F87033012B00F0D281012380F87033AA
:106518009CF80330032B1AD8DFE803F00C866C785C
:1065280001F07F0CCCEBCC0C4FEA8C0C0CF1280C56
:106538008444D9E702689CF8001032F8213023F42B
:10654800EC4323F0700343F4007322F82130016810
:106558009CF8002031F8223023F0F0031B051B0DB6
:10656800134343F4004343F0800321F822309CF89E
:106578000A30002B40F0C3809CF80130002B61D01A
:10658800BCF804200368B3F850109CF800E04FEA08
:10659800CE0E1EFA81F103EB410322F00102A3F8AB
:1065A800002402689CF8001032F8213013F0400FE4
:1065B80009D023F0F0031B051B0D43F4004343F0FF
:1065C800C00322F8213002689CF8001032F821300C
:1065D80023F4E04323F0400383F0200343F4004313
:1065E80043F0800322F82130002380F870331846E6
:1065F8005DF804FB02689CF8001032F8213023F49F
:10660800EC4323F0700322F82130A0E702689CF8DD
:10661800001032F8213023F4EC4323F0700343F4E4
:10662800C06322F8213092E702689CF8001032F823
:10663800213023F4EC4323F0700343F4806322F801
:10664800213084E7BCF804100268B2F850309CF896
:1066580000E04FEACE0E1EFA83F3043302EB430345
:1066680021F00102A3F800240268B2F850309CF827
:106678000010C90011FA83F3063302EB4303DCF878
:106688000C203E2A30D9C2F34F1112F01F0F01D14E
:10669800013989B26FEAC1616FEA5141A3F8001468
:1066A80002689CF8001032F8213013F4804F09D0AA
:1066B80023F0F0031B051B0D43F4404343F0800314
:1066C80022F8213002689CF8001032F8213023F4B7
:1066D800804323F0700383F4405343F4004343F0B2
:1066E800800322F821307FE7C2F34F0112F0010F37
:1066F80001D0013189B28902A3F80014D0E70268F9
:106708009CF8001032F8213023F4F8731B051B0D98
:1067180043F4014343F0800322F82130BCF80620FB
:106728000368B3F850109CF800E04FEACE0E1EFA4A
:1067380081F103EB410322F00102A3F80024BCF825
:1067480008100268B2F850309CF800E04FEACE0E0C
:106758001EFA83F3043302EB430321F00102A3F88A
:1067680000249CF80130002B51D102689CF80010DD
:1067780032F8213013F4804F09D023F0F0031B05C1
:106788001B0D43F4404343F0800322F82130026894
:106798009CF8001032F8213013F0400F09D023F094
:1067A800F0031B051B0D43F4004343F0C00322F81C
:1067B800213002689CF8001032F8213023F0F003F1
:1067C8001B051B0D43F4004343F0C00322F821309E
:1067D80002689CF8001032F8213023F4804323F03B
:1067E800700383F4405348F2800E43EA0E0322F804
:1067F800213002689CF8001032F8213023F4E0437D
:1068080023F0400343EA0E0322F82130ECE6026845
:106818009CF8001032F8213013F4804F09D023F08F
:10682800F0031B051B0D43F4404343F0800322F89B
:10683800213002689CF8001032F8213013F0400F24
:1068480009D023F0F0031B051B0D43F4004343F06C
:10685800C00322F8213002689CF8001032F8213079
:1068680023F0F0031B051B0D43F4404343F0800362
:1068780022F8213003689CF8001033F8212022F414
:10688800E04222F0400248F2800E42EA0E0223F86B
:10689800212002689CF8001032F8213023F480434C
:1068A80023F0700343EA0E0322F821309CE602200D
:1068B8009EE64AB2002A3FDB01F07F03C3EBC30325
:1068C8009B0003F5E4730344043301F07F0119705E
:1068D800D20F5A7090F87023012A00F0FD8001222F
:1068E80080F870239A7A002A4FD15A7862B30168E7
:1068F80093F800C031F82C2012F0400F09D022F094
:10690800F0021205120D42F4004242F0C00221F8D2
:106918002C200268197832F8213023F4E04323F060
:10692800400343F4004343F0800322F8213000235E
:1069380080F870331846704701F07F03C3EBC30338
:106948009B0028330344C0E7016893F800C031F87E
:106958002C2012F4804F09D022F0F0021205120DFB
:1069680042F4404242F0800221F82C200268197853
:1069780032F8213023F4804323F0700343F40043BA
:1069880043F0800322F82130D1E700B55A78002A75
:1069980053D1016893F800C031F82C2012F4804FCD
:1069A80009D022F0F0021205120D42F4404242F0E2
:1069B800800221F82C20016893F800C031F82C20BF
:1069C80012F0400F09D022F0F0021205120D42F425
:1069D800004242F0C00221F82C20016893F800C060
:1069E80031F82C2022F0F0021205120D42F4004278
:1069F80042F0C00221F82C20016893F800E031F839
:106A08002E2022F4804222F0700248F2800C42EAE2
:106A18000C0221F82E200268197832F8213023F46C
:106A2800E04323F0400343EA0C0322F8213000231B
:106A380080F8703318465DF804FB016893F800C0CD
:106A480031F82C2012F4804F09D022F0F002120500
:106A5800120D42F4404242F0800221F82C200168D5
:106A680093F800C031F82C2012F0400F09D022F022
:106A7800F0021205120D42F4004242F0C00221F861
:106A88002C20016893F800C031F82C2022F0F00285
:106A98001205120D42F4404242F0800221F82C20E7
:106AA800016893F800E031F82E2022F4E04222F049
:106AB800400248F2800C42EA0C0221F82E200268BB
:106AC800197832F8213023F4804323F0700343EA25
:106AD8000C0322F82130AAE70220704701F07F0159
:106AE800C1EBC10C00EB8C0CCCF8DC21CCF8E0310C
:106AF8000022CCF8E4218CF8CD218CF8CC1190F848
:106B08007023012A00F0818010B4012280F87023DC
:106B1800DCF8D8219A423FD29B1ACCF8E031C1EB7D
:106B2800C10300EB830393F8D631002B48D10468E6
:106B3800B4F850304FEAC10C1CFA83F3063304EB67
:106B480043033E2A31D9C2F34F1412F01F0F01D16B
:106B5800013CA4B26FEAC4646FEA5444A3F8004449
:106B68000268C1EBC10100EB810191F8CC1132F848
:106B7800213023F4804323F0700383F4405343F41B
:106B8800004343F0800322F82130002380F870335B
:106B980018465DF8044B7047C1EBC10200EB820256
:106BA8000024C2F8E0411A46B9E7C2F34F0412F0D4
:106BB800010F01D00134A4B2A402A3F80044CFE726
:106BC8000468B4F850304FEAC10C1CFA83F306335A
:106BD80004EB43033E2A0DD9C2F34F1412F01F0FE2
:106BE80001D1013CA4B26FEAC4646FEA5444A3F82B
:106BF8000044B5E7C2F34F0412F0010F01D001348D
:106C0800A4B2A402A3F80044AAE7022070472DE921
:106C1800F0410546164601F07F04C4EBC40005EBBD
:106C280080008263C36300220264012280F8292065
:106C380080F8284095F87023012A00F08E80012200
:106C480085F87023476B9F424DD2DB1BC363C4EBAF
:106C5800C40205EB820292F83230002B4BD0286830
:106C680030F8243013F0400F5BD0C4EBC40305EBBD
:106C780083031A8EBBB2314600F03FFCC4EBC40359
:106C880005EB830393F82930002B50D12A68C4EB15
:106C9800C40305EB830393F8281032F8213023F05E
:106CA800F0031B051B0D43F4004343F0C00322F817
:106CB80021302A68C4EBC40405EB840494F8281036
:106CC80032F8213023F4E04323F0400383F030030B
:106CD80043F4004343F0800322F82130002085F874
:106CE8007003BDE8F081C4EBC40205EB8202002109
:106CF800D1631F46ABE7BFB290463B46928D314603
:106D0800286800F0FAFB2A68B2F8503098F8281082
:106D1800C90011FA83F3023302EB4303A3F80074AA
:106D2800C7E7C4EBC40305EB8303DA8DA2E7012BA5
:106D3800BFD12A68C4EBC40305EB830393F828107A
:106D480032F8213023F0F0031B051B0D43F44043B8
:106D580043F0800322F82130ABE70220C1E770B589
:106D680082B005460023ADF80430A6E1038823F479
:106D7800E14323F0700303802A68B2F8503095F895
:106D88002810C90011FA83F3023302EB4303B3F866
:106D98000034C3F309032B64AA6B1344AB630021CB
:106DA800284600F039FC95F82430002B00F0858146
:106DB800EB6B002B40F0818195F824302A6843F072
:106DC8008003A2F84C30002385F8243075E1B0F830
:106DD800503095F8CC21D20012FA83F3063300EB39
:106DE8004303B3F80034C3F30903C5F8E431B5F835
:106DF800D02105F55D7100F095FB2A68138823F012
:106E080070031B051B0D1380284600F0F1FB54E1AD
:106E1800B5F8D021D5F8DC1100F084FBD5F8E421D1
:106E2800D5F8DC311344C5F8DC3185E1C2F34F01F4
:106E380012F0010F01D0013189B28902A3F80014C0
:106E480097E130F82430ADF80430BDF8042012F48E
:106E5800004F34D1BDF8043013F0800F00F02D81BD
:106E68002A6832F8243023F4E14323F0700322F82F
:106E78002430C4EBC40305EB830393F83230002BB2
:106E880040F0C9802868B0F85030C4EBC40205EB64
:106E9800820292F82810C90011FA83F3023300EB3A
:106EA8004303B3F80034C3F309031364002B00F061
:106EB800E6801146928D896B00F01FFBDFE023F01E
:106EC80070031B051B0D20F82430C4EBC40305EB2D
:106ED800830393F8D631FBB92868B0F85030C4EB77
:106EE800C40205EB820292F8CC21D20012FA83F395
:106EF800063300EB4303B3F80064C6F30906BEB3D8
:106F0800C4EBC40105EB81013346B1F8D021D1F8B7
:106F1800DC1100F007FB2BE02868C4EBC40305EB89
:106F2800830393F8CC3130F8232012F4804F4ED0ED
:106F3800B0F85020DB0013FA82F3023300EB43036E
:106F4800B3F80064C6F30906AEBB2A68C4EBC403F1
:106F580005EB830393F8CC1132F8213023F0F003CA
:106F68001B051B0D43F4004343F0C00322F82130F6
:106F7800C4EBC40305EB8303D3F8E4213244C3F81C
:106F8800E421D3F8DC213244C3F8DC21D3F8E03122
:106F98003BB1C4EBC40105EB8101D1F8D8118E4295
:106FA8002FD2C4EBC40305EB830393F8CC11284616
:106FB80000F026FB4EE7C4EBC40105EB8101334624
:106FC800B1F8D221D1F8DC1100F0ACFABDE7B0F885
:106FD8005020DB0013FA82F3063300EB4303B3F8C7
:106FE8000064C6F30906002EAFD0C4EBC40105EB5C
:106FF80081013346B1F8D421D1F8DC1100F092FABE
:10700800A3E7C4EBC40105EB810191F8CC11284634
:10701800FFF764FD1EE72868C4EBC40305EB830390
:1070280093F8283030F8232012F0400F00F0B58094
:10703800B0F85020DB0013FA82F3023300EB43036D
:10704800B3F80034C3F30903C4EBC40205EB8202AE
:107058001364002B40F09B802A68C4EBC40305EB43
:10706800830393F8281032F8213023F0F0031B052E
:107078001B0D43F4404343F0800322F82130286875
:10708800B0F85020C4EBC40305EB830393F8281031
:10709800CE0016FA82F2023200EB4202B2F8002465
:1070A800C2F309021A64986B02449A63DB6B002BE3
:1070B80040F08D80284600F0AFFA2868B0F84430D8
:1070C8009BB2ADF8063013F4004F00F08480BDF891
:1070D800064014F00F047FF4B4AEBDF8063013F088
:1070E800100F3FF443AE03889BB2ADF80430BDF8EF
:1070F800043013F4006F7FF46AAEBDF8043013F463
:10710800004FDAD0038823F070031B051B0D0380A2
:107118002868B0F8503095F8CC21D20012FA83F3E1
:10712800063300EB4303B3F80034C3F30903C5F88F
:10713800E431002B7FF46CAE0021284600F060FAA1
:107148002A68B2F850309BB2063302EB4303D5F8F5
:10715800D8213E2A7FF66AAEC2F34F1112F01F0FF4
:1071680001D1013989B26FEAC1616FEA5141A3F8CF
:1071780000142A68138823F4804323F0700383F4EF
:10718800405343F4004343F08003138095E71146CE
:10719800D28D896B00F0B1F95EE7B0F85020DB00C2
:1071A80013FA82F3063300EB4303B3F80034C3F356
:1071B8000903C4EBC40205EB82021364002B3FF4FD
:1071C8004BAF1146128E896B00F097F944E72846B9
:1071D800FFF71DFD71E7002002B070BD10B5044631
:1071E8000368B3F8443013F4004F60D12368B3F850
:1071F800442012F4806F5DD12268B2F8443013F451
:10720800804F07D0B2F844309BB223F480439BB23E
:10721800A2F844302268B2F8443013F4005F07D073
:10722800B2F844309BB223F400539BB2A2F8443026
:107238002368B3F8442012F4805F4BD12268B2F877
:10724800443013F4006F1DD0B2F844309BB223F4DD
:1072580000639BB2A2F844302268B2F840309BB277
:1072680043F00803A2F840302268B2F840309BB2DD
:1072780043F00403A2F840302368B3F8443013F411
:10728800805F41D02368B3F8442012F4007F3FD1D7
:107298002268B2F8443013F4807F07D0B2F8443043
:1072A8009BB223F480739BB2A2F8443010BDFFF761
:1072B80056FD9BE7B3F8442092B222F4806292B262
:1072C800A3F84420204600F0B8F900212046FFF733
:1072D800E4F891E7B3F8402092B222F0040292B2A7
:1072E800A3F8402023684FF43D42A3F840202046ED
:1072F80000F0C0F92268B2F844309BB223F48053FE
:107308009BB2A2F8443099E7204600F0A3F9B9E708
:10731800B3F8442092B222F4007292B2A3F8442047
:10732800204600F084F9B3E790F87033012B55D06C
:10733800012380F870334AB2002A26DBC1EBC1036F
:107348009B0003F5E473034404334FF0010C83F806
:1073580002C001F07F011970D20F5A70E9B90268B2
:1073680032F8213023F4804323F0400383F4805320
:1073780083F0100343F4004343F0800322F82130E4
:10738800002380F870331846704701F07F03C3EB81
:10739800C3039B0028330344D7E77AB1026832F865
:1073A800213023F4E04323F0400383F0100343F437
:1073B800004343F0800322F82130E1E7026832F805
:1073C800213023F4804323F0700383F4805343F483
:1073D800004343F0800322F82130D1E702207047B0
:1073E8004AB2002A3FDBC1EBC1039B0003F5E473FB
:1073F800034404334FF0000C83F802C001F07F010E
:107408001970D20F5A7090F87023012A56D00122B1
:1074180080F870235A7872B3016893F800C031F885
:107428002C2012F0400F09D022F0F0021205120DA4
:1074380042F4004242F0C00221F82C200268197878
:1074480032F8213023F4E04323F0400383F0300383
:1074580043F4004343F0800322F82130002380F8EE
:1074680070331846704701F07F03C3EBC3039B00DA
:1074780028330344BEE7016893F800C031F82C2094
:1074880012F4804F09D022F0F0021205120D42F4D6
:10749800404242F0800221F82C200268197832F824
:1074A800213023F4804323F0700383F4405343F4E2
:1074B800004343F0800322F82130CFE702207047D1
:1074C80011F0800F0BD001F07F01C1EBC1018900E1
:1074D800283101445AB98A728B8000207047C1EB69
:1074E800C101890001F5E47101440431F2E7012288
:1074F8008A72CB801B0C0B81EFE710B45C1C64080C
:1075080000EB420202F5806207E00B78487843EA14
:10751800002322F8043B0231013C002CF5D15DF830
:10752800044B704710B45C1C640800EB420202F282
:107538000443D2F800040A4602F8020B000A487015
:1075480004E053F8041B22F8021B013C002CF8D17C
:107558005DF8044B7047000010B5094C002209493A
:10756800204600F0C7F90849204600F0DAF9074933
:107578002046FDF779F8204600F0DAF910BD00BF83
:1075880058040020AC0000200C000020040000205B
:107598000268154B9A4200D0704710B586B04FF478
:1075A800C0530193022302930024039403230493FA
:1075B8000E23059301A94FF09040FEF7A1F80B4B5D
:1075C800DA6942F40002DA61DB6903F4000300932C
:1075D800009B224621464B20FEF724FA4B20FEF75B
:1075E80059FA06B010BD00BF005C00400010024010
:1075F80008B500F55D71D0F8A40300F0B1F908BD35
:1076080008B5C1EBC10300EB8303D3F8DC21D0F844
:10761800A40300F0D2F908BD08B5C1EBC10300EB23
:1076280083039A6BD0F8A40300F0FDF908BD08B5F0
:10763800D0F8A40300F081FA08BD10B50446012172
:10764800D0F8A40300F067FAD4F8A40300F044FAD1
:1076580010BD000010B50446D0F8A40300F05EFA8F
:10766800A36923B1024A136943F00603136110BDED
:1076780000ED00E008B5D0F8A40300F058FA08BD02
:1076880010B504461E48C0F8A443C4F820021D4B98
:10769800036008234360022282600023C360026102
:1076A80083610362FEF79FFE30BB18230022114658
:1076B800D4F82002FFF704FF582300228021D4F8D1
:1076C8002002FFF7FDFEC02300228121D4F820020A
:1076D800FFF7F6FE4FF4887300220121D4F8200248
:1076E800FFF7EEFE4FF4807300228221D4F82002C7
:1076F800FFF7E6FE002010BDFCF76CFED5E700BFE3
:107708007C060020005C004008B5D0F82002FEF797
:10771800BEFE022805D8DFE800F0050402000120BB
:1077280000E0022008BD08B594461A466346D0F822
:107738002002FEF7C8FE022805D8DFE800F005049D
:107748000200012000E0022008BD08B5D0F82002A0
:10775800FFF7AFF8022805D8DFE800F005040200BB
:10776800012000E0022008BD08B5D0F82002FFF78C
:10777800DBFD022805D8DFE800F00504020001203F
:1077880000E0022008BD08B5D0F82002FFF728FE67
:10779800022805D8DFE800F005040200012000E017
:1077A800022008BDD0F8203211F0800F08D101F076
:1077B8007F01C1EBC10103EB810191F8CE01704754
:1077C80001F07F01C1EBC10103EB810191F82A00AF
:1077D800704708B5D0F82002FEF75FFE022805D8EA
:1077E800DFE800F005040200012000E0022008BDE7
:1077F80008B5D0F82002FFF70AFA022805D8DFE812
:1078080000F005040200012000E0022008BD08B5D0
:10781800D0F82002FFF762F9022805D8DFE800F067
:1078280005040200012000E0022008BD70470000A6
:1078380012230B8000487047C800002004230B80E7
:1078480000487047DC00002008B50A4628B90549F9
:10785800054800F0E1FB034808BD0249024800F072
:10786800DBFBF8E7240A002098B6000810B50A46A2
:10787800034C2146034800F0CFFB204610BD00BF53
:10788800240A0020A8B6000808B50A4628B9054900
:10789800054800F0C1FB034808BD0249024800F052
:1078A800BBFBF8E7240A0020B0B6000808B50A4672
:1078B80028B90549054800F0AFFB034808BD02494F
:1078C800024800F0A9FBF8E7240A0020C0B6000827
:1078D80008B50A4628B90549054800F09DFB034844
:1078E80008BD0249024800F097FBF8E7240A002087
:1078F800CCB6000898B108B50346D0F8140210B108
:107908000020C3F8140209B1C3F81012012183F84A
:10791800FC111A701846FFF7B3FE002008BD0220BC
:10792800704719B1C0F81412002070470220704740
:1079380008B5FFF7E9FE002008BD08B5D0F81432F5
:107948002BB11B68984700B908BD0220FCE702204C
:10795800FAE708B5D0F814325B689847002008BDEC
:1079680038B5044600F50275284600F00EF90123E3
:10797800C4F8F431B4F80E32C4F8F83194F80812A7
:1079880001F01F03012B0ED0022B11D02BB101F0F7
:1079980080012046FFF7E8FE03E02946204600F074
:1079A8006EFA002038BD2946204600F08CFAF8E728
:1079B8002946204600F0A2FAF3E710B5044629BB91
:1079C8001346D0F8F421032A01D0002010BDD0F8C6
:1079D8000C11D0F8102191420BD8D0F814321B6941
:1079E8001BB190F8FC21032A0ED0204600F04EFB74
:1079F800EBE7891AC0F80C118A4228BF0A4692B2EE
:107A0800194600F03BFBE0E79847EEE70A46D0F856
:107A180014329B69002BD8D090F8FC110329D4D1DB
:107A280011469847D1E710B50446002947D11346B7
:107A3800D0F8F421022A05D094F80032012B3AD06C
:107A4800002010BDC169026A914217D88169B1FB53
:107A5800F2F302FB13132BB98A4203D8D0F8F8319A
:107A6800994218D3D4F81432DB681BB194F8FC217E
:107A7800032A1DD0204600F014FBDDE78A1AC261F4
:107A880092B2194600F0F2FA00231A461946204627
:107A9800FFF7BDFED0E70022114600F0E7FA00210B
:107AA800C4F8F8110B460A462046FFF7B0FEC3E7B4
:107AB80020469847DEE7002384F80032C0E70A46EC
:107AC800D0F814325B69002BBAD090F8FC11032966
:107AD800B6D111469847B3E738B50446402300228B
:107AE8001146FFF720FE4025C4F810512B4600220E
:107AF80080212046FFF717FE2562012384F8FC3118
:107B0800D4F818322BB1D4F814325B6821792046A6
:107B18009847002038BD01740020704790F8FC3168
:107B280080F8FD31042380F8FC310020704790F87C
:107B3800FD3180F8FC310020704708B590F8FC3121
:107B4800032B01D0002008BDD0F81432DB69002BCC
:107B5800F8D09847F6E70346002002E00130C0B2AB
:107B680001331A78002AF9D170474B88012B00D0CD
:107B7800704710B50446C0F80432D0F814329B6838
:107B88009847204600F082FA10BD0B7803704B78B6
:107B980043708B78CA7803EB022343800B794A79C8
:107BA80003EB022383808B79CA7903EB0223C3801A
:107BB800704710B504468021FFF7D6FD0021204606
:107BC800FFF7D2FD10BD30B583B004460D464A8894
:107BD800130A013B062B00F28180DFE803F004134F
:107BE800277F7F637000D0F810321B680DF1060103
:107BF800007C9847BDF8062012B1EB88002B71D1A4
:107C080003B030BD037C43B9D0F814329B6A0DF140
:107C18000600984702234370ECE7D0F81432DB6A79
:107C28000DF10600984702234370E3E7D2B2052A14
:107C380034D8DFE802F0030B131B232BD0F81032E3
:107C48005B680DF10601007C9847D3E7D0F8103245
:107C58009B680DF10601007C9847CBE7D0F81032FD
:107C6800DB680DF10601007C9847C3E7D0F81032B5
:107C78001B690DF10601007C9847BBE7D0F810326C
:107C88005B690DF10601007C9847B3E7D0F8103224
:107C98009B690DF10601007C9847ABE72946FFF781
:107CA80088FFADE7037C33B9D0F814325B6B0DF174
:107CB800060098479EE72946FFF77BFFA0E7037C6D
:107CC80043B9D0F814321B6B0DF10600984707230F
:107CD80043708FE72946FFF76CFF91E72946FFF7C6
:107CE80068FF8DE79A4228BF1A46ADF8062001467C
:107CF800204600F0AEF983E738B504468B88E3B92F
:107D0800CB88D3B98D7805F07F0590F8FC31032B2B
:107D18000CD080F8FE512946FFF75BFD204600F0A5
:107D2800B5F935B1022384F8FC3109E0FFF741FFCA
:107D380006E0012384F8FC3102E02046FFF739FF12
:107D480038BD000038B504460D468978254B1970B2
:107D5800012909D890F8FC31022B09D0032B1CD03B
:107D68002946FFF726FF02E02946FFF722FF38BD24
:107D780081B14160032380F8FC31FFF7DEFD022862
:107D880003D0204600F082F9F1E729462046FFF7A4
:107D980010FFECE700F07AF9E9E789B14368994206
:107DA8001DD0D9B2FFF7D5FD0E4B1978616020467A
:107DB800FFF7C3FD02280DD0204600F067F9D6E78B
:107DC800022380F8FC314160FFF7C3FD204600F034
:107DD8005DF9CCE729462046FFF7EBFEC7E700F040
:107DE80055F9C4E7240C002008B5CB88012B08D12D
:107DF80090F8FC31022B07D0032B0DD0FFF7D9FEEA
:107E080001E0FFF7D6FE08BD0146002341F8083F10
:107E1800012200F01EF9F6E70122011D00F019F910
:107E2800F1E708B590F8FC31023B012B0CD801238F
:107E3800C360D0F804320BB10323C360022200F1FF
:107E48000C0100F006F908BDFFF7B3FEFBE710B51B
:107E5800044690F8FC31023B012B0DD84B88012BCE
:107E68000CD10023C0F80432D0F814329B6898472C
:107E7800204600F00BF901E0FFF79BFE10BD08B5A6
:107E88004B78092B1CD8DFE803F012181B151B09C7
:107E9800051B0F0CFFF797FE002008BDFFF72CFF0E
:107EA800FAE7FFF74FFFF7E7FFF79EFFF4E7FFF763
:107EB800B8FFF1E7FFF759FEEEE7FFF7C8FFEBE77A
:107EC800FFF777FEE8E738B504460D4690F8FC3131
:107ED800032B0FD10B79012B09D8D0F814329B68EA
:107EE8009847EB8843B9204600F0D0F804E0FFF744
:107EF80060FE01E0FFF75DFE002038BD38B505469D
:107F08000C468A880B7803F06003202B09D0D1B285
:107F18006378012B2DD0032B08D0002B4DD00020E7
:107F280038BDD0F814329B689847F8E790F8FC31D0
:107F3800022B05D0032B0AD02146FFF73AFEEEE7C5
:107F48000029ECD08029EAD0FFF70EFCE7E7638828
:107F580013B909B1802909D1D5F814329B68214693
:107F680028469847284600F091F8D8E7FFF7FCFB29
:107F7800F2E790F8FC31022B05D0032B0AD02146FA
:107F8800FFF717FECBE70029C9D08029C7D0FFF734
:107F9800EBFBC4E76388002BC1D111F07F0F03D13D
:107FA800284600F073F8BAE7FFF7EDFBD5F814326E
:107FB8009B68214628469847F2E790F8FC31022B47
:107FC80005D0032B09D02146FFF7F3FDA7E711F0F1
:107FD8007F0FA4D0FFF7C8FBA1E712F0800F11D1E3
:107FE80001F07F04103400EB041404342846FFF732
:107FF800D9FB70B10123236002222146284600F0F4
:1080080028F88CE701F07F04013400EB04140434F1
:10801800ECE700232360EFE7D0B170B50D461646B4
:108028000446FFF798FD431C5B009BB233802B701E
:1080380003236B70022307E001345A1CD2B2E854C0
:108048000233DBB20021A95420780028F4D170BD96
:10805800704708B513460222C0F8F4218361C36152
:108068000A460021FFF7C4FB002008BD08B51346E7
:108078000A460021FFF7BCFB002008BD08B51346DF
:108088000A460021FFF7C3FB002008BD08B50423FA
:10809800C0F8F43100231A461946FFF7A9FB00205F
:1080A80008BD08B50523C0F8F43100231A4619465F
:1080B800FFF7ADFB002008BD10B582B0034600F005
:1080C8000F028DF80120C0F303118DF80010C0F3E2
:1080D80007208DF80200C3F307418DF804101B0E2A
:1080E8008DF8053000F00F038DF80330131F0B2BAC
:1080F80011D8DFE803F00612171E3E5510579BAC47
:10810800BAD102F0D1FC9DF8040002F0CDFC9DF834
:10811800050002F0C9FC02B010BDF728FBD102F03F
:10812800C3FCF8E702F0C0FC9DF8040002F0BCFCB8
:10813800F1E702F0B9FC9DF8040002F0B5FC9DF8E7
:10814800050002F0B1FCE6E704EB0411534B03EB26
:10815800C101684601F05EFB04EB440304EB8303B2
:108168004F491944684600F08CFC0134032CEBD9C4
:10817800D1E70024FAE704EB0411484B03EBC101F3
:10818800684601F0D5F904EB440304EB8303444942
:108198001944684600F04AFC0134032CEBD9BAE7CD
:1081A8000024FAE70029B6D0772926D8402916D026
:1081B80000241FE004EB0411384B03EBC1016846AF
:1081C80001F013FD04EB440304EB83033449194421
:1081D800684600F0FEFC0134032CEBD9E8E70024E4
:1081E800FAE704EB04112D4B03EBC101684601F0DB
:1081F8005FF90134032CF4D98DE77B298BD87A29D0
:1082080089D000240FE004EB440304EB83032448E3
:10821800184400F0A5FB04EB0410204B03EBC0004E
:1082280000F080FD0134032CEDD974E701F07F00E4
:1082380001F0DCFF6FE704EB0411184B03EBC101FD
:10824800684601F06BFC0134032CF4D963E7002481
:10825800FAE704EB0411114B03EBC101684601F086
:1082680097FC0134032CF4D955E70024FAE704EB12
:1082780004110A4B03EBC101684601F022FC04EB30
:10828800440304EB830306491944684600F050FC94
:108298000134032CEBD93EE70024FAE7D84C002040
:1082A800A44C0020A04B1B78002B00F03B8130B47D
:1082B8009E4B1B78032B00F20381DFE813F04C0080
:1082C8004E00E9001B019A4803EB430142180024C1
:1082D8005470BBEE0E7A67EE877A03EB8102954CF9
:1082E800A25C5A2404FB02F207EE102AB8EEC77A01
:1082F80077EE277AFCEEE77A17EE902A425401339C
:10830800032B00F2DD809A1C8B4901EB8202D2ED2F
:10831800007AF5EEC07AF1EE10FAD4DBB3EE0E7AFD
:1083280027EE877A03EB430103EB81028148825CE5
:108338005A2000FB02F207EE902AF8EEE77A77EE71
:10834800877A7B484418FCEEE77A17EE902A627029
:1083580000224254D3E70023D2E7784A1388103B1F
:108368009BB2138013B9714A00211170744A1078B6
:10837800072849D8032823D900222AE002EB420122
:108388000C447049A1FB03515D1A01EB550141F3FF
:10839800800161700132032A00F2928002EB4201EF
:1083A800634C4FF0000C04F801C000F00301914247
:1083B800E4D002EB42045E49214400244C70E9E712
:1083C8000022E8E702EB42045949214481F801C040
:1083D8000132032A74D802EB4201554C4FF0000CCD
:1083E80004F801C000F003019142EBD002EB420116
:1083F8004F4C0C445349A1FB03515D1A01EB550145
:1084080041F380016170E3E70B2820D9002226E0C0
:1084180002EB42044B49A1FB03515D1A01EB5501E4
:1084280041F38001424D29550132032A48D802EB15
:1084380042043F49214400244C7000F0030191425A
:10844800E6D002EB42013A4C00256554ECE70022E5
:10845800EBE702EB4201364C002565540132032A52
:108468002ED802EB42043249214400244C7000F01B
:1084780003019142EDD002EB42043249A1FB0351C2
:108488005D1A01EB550141F38001294D2955E5E7B6
:108498002A4B1C88083CA4B21C8014B9234B002228
:1084A8001A7000230AE06242D2B2214803EB43016A
:1084B80000EB010C42548CF801200133032BF2D954
:1084C800214B1A681A4B1978516359789163D978F6
:1084D80011641979D1631D4A12689979D163D979E0
:1084E8001164597A51639B7A93630F4B00221A7077
:1084F80030BC7047114B1C88083CA4B21C8014B9CE
:108508000A4B00221A70002309E0E2B2084803EB84
:10851800430100EB010C42548CF801200133032B7A
:10852800F3D9CDE7704700BF360C0020260C002099
:10853800280C0020A44C00203C0C0020340C002007
:10854800205100202549922474030020B403002000
:1085580010B5124C00212046FDF7FCFE04212046F0
:10856800FDF7F8FE08212046FDF7F4FE0C21204611
:10857800FDF7F0FE0A4C00212046FDF7EBFE042132
:108588002046FDF7E7FE08212046FDF7E3FE0C2113
:108598002046FDF7DFFEFFF785FE10BD74030020BF
:1085A800B40300200023032B0ED810B4074C03EBB0
:1085B800430204EB020C8CF80100A1540133032B95
:1085C800F4D95DF8044B7047704700BF280C0020B1
:1085D800094B1870042808D00138C0B2022803D803
:1085E800064B4FF480621A8070470023044A1370C8
:1085F800044A1370F0E700BF260C0020340C00205A
:10860800250C0020380C0020014BFF221A707047FF
:10861800380C0020002308E0184803EB430100EB66
:10862800010C8CF8012042540133032B08D8144A5A
:108638001278144909789942EED1D243D2B2EBE7C5
:10864800114B1A680D4B1978516359789163D97891
:1086580011641979D1630D4A12689979D163D9796E
:108668001164597A51639B7A9363064A13780133EC
:10867800DBB2137003F0030313707047280C00205B
:10868800380C0020250C002074030020B4030020BF
:10869800002325E0144A991D02EB810191ED017A2E
:1086A80003F10A0102EB8101D1ED017A37EE677A15
:1086B8009FED0E6AC6EE076A9FED0D6A86EE267A72
:1086C80077EE877A03F1120102EB8101C1ED017A9D
:1086D80003F10E0102EB8102C2ED016A0133DBB244
:1086E800032BD7D9704700BF3C0C002000305D46F3
:1086F800000A1747134B821C03EB820282ED000A23
:1087080000F1120203EB8202D2ED017A37EEC00AC1
:1087180000F10E0203EB8203D3ED017A20EE270A63
:10872800FDEEC07A17EE903A002B05DBB3F5803FDB
:1087380003DB4FF6FF7300E00023024A22F81030F3
:10874800704700BF3C0C002008B52DED028B0122BC
:108758004FF480714FF09040FDF7A0F81B4B0022BA
:108768001A7601F055FD68BB184B01221A760022D3
:108778004FF480411648FDF791F8FFF789FF154B34
:108788001A68136843F0400313609FED138A0020B2
:10879800B0EE480AFFF7AEFF0120B0EE480AFFF737
:1087A800A9FF0220B0EE480AFFF7A4FF0320B0EEAD
:1087B800480AFFF79FFF054B002283F85C20BDECB9
:1087C800028B08BD014B02221A76D0E73C0C002030
:1087D800000400481003002000000000114B821C18
:1087E80003EB820282ED000A00F1120203EB82021F
:1087F800D2ED017A37EEC00A0E3003EB8000D0EDDF
:10880800017A20EE270AFDEEC07A17EE900A0028BA
:1088180005DBB0F5803F03DB4FF6FF7000E000207A
:1088280080B270473C0C002038B504460D46012242
:108838004FF480714FF09040FDF730F8084B5B5DC6
:10884800250A45EA032500224FF480714FF0904035
:10885800FDF724F8034B1B68DD602402DC6038BD9B
:10886800DCB600081003002038B501224FF48071EF
:108878004FF09040FDF712F80B4A92F85C3032F84E
:1088880013400A4AD35C250A45EA032500224FF41F
:1088980080714FF09040FDF701F8054B1B68DD60D3
:1088A8002402DC6038BD00BF3C0C0020DCB60008A8
:1088B8001003002010B5FFF7EBFE002409E0A21C0E
:1088C800054B03EB8203E0B293ED000AFFF712FFBA
:1088D8000134032CF3D910BD3C0C0020034600F5ED
:1088E8008042907920B9B2F802C0128894450FD01E
:1088F80003F58042108853F820300B6000239371F1
:10890800138801339BB21380C3F30B031380012038
:10891800704700F580439B798BB900F580425388F6
:10892800096840F8231001339BB25380C3F30B034B
:10893800538011888B4214BF002301239371704721
:1089480008B5134649B10B221A7218700246597AB3
:108958004FF09040FCF7A2FF08BD00221A72F4E71E
:1089680010B50446002020726070A070207320703B
:1089780022460146FFF7E4FFE379072B04D9FF2BD2
:1089880004D10123A37001E0062B00D210BD0123FE
:108998006370FBE710B5104B08225A7200249C72D2
:1089A80020229A750122DA75042283F823200222F4
:1089B80083F8242083F83020032283F8312008E04C
:1089C80004EB440304EB830303481844FFF7C8FF90
:1089D8000134032CF4D910BDA44C002008B5C17192
:1089E800517841719178817112780271FFF7B8FF5F
:1089F80008BD08B5134671B10B221A721A786AB10C
:108A080060B918701A7B82B90246597A4FF09040C3
:108A1800FCF744FF09E000221A72EFE718700246DB
:108A2800597A4FF09040FCF739FF08BD08B5CB796B
:108A3800012B14D0022B05D1C2780B799A4202D0AF
:108A4800FF2B00D008BD4B790279934201D0FF2B50
:108A5800F8D10A4601210846FFF772FFF2E7C2780B
:108A68000B799A4201D0FF2BECD14B7902799342D2
:108A780001D0FF2BE6D10A4600210120FFF7B9FFFC
:108A8800E0E708B5CB79012B00D008BDC2780B7997
:108A98009A4201D0FF2BF8D14B790279934201D049
:108AA800FF2BF2D10A4600210846FFF7A2FFECE7A8
:108AB800C379FF2B00D0704710B5044600F0A2F828
:108AC800A27A064B53F82230984200D310BD2246B2
:108AD80001210846FFF734FFF8E700BFE000002057
:108AE80010B50446037A1BB1013BDBB203728BB1AC
:108AF800A37873B1E378A3B1E3780133DBB2E37011
:108B08000A4AA2FB0312920802EB4202A3EB4203B9
:108B1800E37010BD0020207022460146FFF710FFC9
:108B2800E6E72046FFF7C4FFE6E700BFABAAAAAA1C
:108B380010B50C46CB79042B1FD0052B26D0032B60
:108B480000D010BD8378F82B04D0FA2BF9D100237C
:108B5800CB72F6E7CB7A53B1E37A0133DBB2E37237
:108B68006279B3FBF2F102FB1133E372E9E70A46DB
:108B780001210846FFF7E4FEEEE78378FA2BE0D1FF
:108B88000A4601210846FFF7DBFEDAE78378FA2B6D
:108B980007D0FC2BD5D10A4600210846FFF7D0FEA6
:108BA800CFE70A4600210120FFF7CAFEC9E708B54A
:108BB800CB79062B08D0072B0AD148B10A460121E8
:108BC8000846FFF7BDFE03E00A460021FFF711FF44
:108BD80008BD08B5C2780B799A4202D0FF2B00D0A5
:108BE80008BD42790A73CB79012B01D0062BF7D146
:108BF800002AF5D10A78497A4FF09040FCF74EFEEA
:108C0800EEE70000034B1A680349044801FB020021
:108C180018607047F84E00200D6619005FF36E3C2F
:108C280008B549B10B23537148B192F88500B1EEEC
:108C3800040AFFF75FFD08BD00235371F4E792F8BB
:108C480085009FED020AFFF755FDF4E700000000DC
:108C580008B571B10B235371537B6BB160B9507375
:108C6800137B8BB992F885009FED0B0AFFF742FD45
:108C78000AE000235371EFE7507330B192F8850092
:108C8800B1EE040AFFF736FD08BD92F885009FEDA6
:108C9800020AFFF72FFDF7E70000000008B50B797F
:108CA80003B908BD91F8851001EB410301EB83017D
:108CB800024B1944FFF77BFFF3E700BFA44C0020E9
:108CC80008B583793C3B07EE903AF8EEE77AF2EE86
:108CD800086A87EEA67A8368427802FB03F307EEF8
:108CE800903AF8EEE77ADFED056A87EEA60A90F883
:108CF800850030EE070AFFF7FDFC08BD0000C047FD
:108D080010B5144641B190711046FFF7D9FF2146BE
:108D18000120FFF7C3FF10BD11460020FFF7BEFF7B
:108D2800F9E7000010B5044601F0B4F804F1260094
:108D380001F04AF80023237363734523A37194F861
:108D4800850000EB400300EB8302204B13445B7863
:108D5800F3B101232371E378012B1CD09FED1C0A8A
:108D6800FFF7C8FC002363712375237784F8253047
:108D7800E3782A2B1DD8222B1ED2192B11D80D2BA4
:108D880016D30023A36100236375012323750FE025
:108D980000232371DFE7224601216078FFF7B0FF47
:108DA800E0E71F2B04D1012384F8253000236375E5
:108DB80010BDFF2BF7D0FBE70123237700232362A5
:108DC80000236375FF23A371EDE700BFA44C0020C7
:108DD8000000000010B500240CE004EB0412D300DE
:108DE8000648184480F885404FF07E538361FFF7AA
:108DF80099FF0134032CF0D910BD00BFD84C0020D6
:108E080008B5C170517841709178817012780270FC
:108E1800FFF788FF08BD000010B5044690F88430BD
:108E2800343300EB430390F885109888FFF7FCFC77
:108E380094F884300133DBB284F88430054AA2FB0D
:108E48000312D20802EB4202A3EB820384F88430B7
:108E580010BD00BFABAAAAAA10B50446C3781F2B41
:108E680002D0FF2B0FD010BDFFF7CCFE94F8852061
:108E7800134B53F822309842F5D222460121084676
:108E8800FFF7CEFEEFE7FFF7BDFE94F885200C4B09
:108E980053F822309842E6D2FFF7B4FE07EE900A64
:108EA800F8EE677A9FED077A87EE870A94F88500CF
:108EB800F1EE047A30EE670AFFF71CFCD3E700BF37
:108EC800E0000020CDCCCC4D70B5044690F884303D
:108ED800052B40F2BB810025002674E1A3F128028E
:108EE800D2B2022A10D8D4ED087AF5EEC07AF1EEA3
:108EF80010FA67D96178C54A02EB810292ED007ACF
:108F080077EEC77AC4ED087A223B082B00F2588125
:108F1800DFE813F04B015B00CD004B015B00CD0097
:108F280084018E000601D4ED087AF5EEC07AF1EEE0
:108F380010FA0AD9A178B54A02EB810292ED007ABB
:108F480077EEC77AC4ED087ADEE700222262DBE713
:108F58006178AE4A02EB810292ED007A77EE877A69
:108F6800C4ED087AD0E7A279FF2A0BD0D4ED087AAD
:108F7800B2EE007AF4EEC77AF1EE10FA17DB84ED60
:108F8800087AC1E7D4ED087AF5EEC07AF1EE10FA66
:108F98000AD9A1789D4A02EB810292ED007A77EE18
:108FA800C77AC4ED087AAFE700222262ACE761789D
:108FB800964A02EB810292ED007A77EE877AC4ED49
:108FC800087AA1E7002222629EE794ED080AF2EEF1
:108FD800007AB4EEE70AF1EE10FA04DAB5EEC00A48
:108FE800F1EE10FA09D594F88500FFF7F7FB05F1C3
:108FF800340304EB43039880E2E0DFED857A20EE4A
:10900800270AF4EE007A20EE270ABDEEC00A814B4B
:1090180010EE102A03EB820394F8850093ED000A02
:10902800FFF7DCFB05F1340304EB43039880C7E04A
:1090380094ED080AF2EE007AB4EEE70AF1EE10FABF
:1090480004DAB5EEC00AF1EE10FA09D594F88500F5
:10905800FFF7C4FB05F1340304EB43039880AFE04A
:10906800DFED6B7A20EE270AF4EE007A20EE270A6D
:10907800BDEEC00A674B10EE102A03EB820393ED96
:10908800000A94F8243007EE903AF8EEE77A67EE93
:10909800807A94F885009FED600A87EE800AFFF7D2
:1090A8009DFB05F1340304EB4303988088E094EDBD
:1090B800080AF2EE007AB4EEE70AF1EE10FA04DAE2
:1090C800B5EEC00AF1EE10FA09D594F88500FFF75D
:1090D80085FB05F1340304EB4303988070E0DFED72
:1090E8004C7A20EE270AB4EE007A20EE070A37EE13
:1090F800C00ABDEEC00A474B10EE102A03EB8203EC
:10910800D3ED007A94F88500B1EE040A30EE670AD0
:10911800FFF764FB05F1340304EB430398804FE049
:1091280094ED080AF2EE007AB4EEE70AF1EE10FACE
:1091380004DAB5EEC00AF1EE10FA09D594F8850004
:10914800FFF74CFB05F1340304EB4303988037E049
:10915800DFED2F7A20EE270AB4EE007A20EE070A18
:1091680037EEC00ABDEEC00A2A4B10EE102A03EBF8
:10917800820393ED000AF1EE047A37EEC00A94F800
:10918800243007EE903AF8EEE77A67EE807A94F8A2
:1091980085009FED210A87EE800AFFF71FFB05F186
:1091A800340304EB430398800AE094F8850094EDB7
:1091B800080AFFF713FB05F1340304EB4303988017
:1091C8000135EDB20136052E42D8E378272B3FF65C
:1091D80085AE252BBFF4C7AEA3F12202D2B2022A74
:1091E8003FF692AEA279FF2A3FF49DAED4ED087AFD
:1091F800B2EE007AF4EEC77AF1EE10FAFFF6A8AEF6
:10920800FF22A27184ED087A7EE600BFE4F600082A
:1092180000008045E0B600080000FE4294ED080A10
:1092280094F8243007EE903AF8EEE77A67EE807A01
:1092380094F885001FED080A87EE800AFFF7CEFA3A
:1092480005F1340304EB43039880B9E7062543E6A8
:1092580070BD00BF10B504468368427802FB03F373
:1092680007EE903AF8EEE77ADFED0F6A87EEA67A16
:10927800837907EE903AF8EEE77ADFED0C6A77EE3D
:10928800E67AF2EE086A87EEA60A30EE070A01F0DF
:1092980045FDDFED077A20EE270ADFED067A20EE9E
:1092A800270A84ED040A10BD0000C04700008A4266
:1092B8000000DC4372A6BE3870B5044690F88430CE
:1092C800052B05D90025A379FF2B03D0002650E0F4
:1092D8000625F8E72379002B40F08E8000260DE064
:1092E80094F885009FED450AFFF778FA05F13403F5
:1092F80004EB430398800135EDB20136052EEFD912
:1093080070BDB7EE007A77EEC77AC4ED067AD4ED71
:10931800067AB7EE007AF4EEC77AF1EE10FAF0DAD0
:10932800E3780D3B0C2B61D8DFE803F05107112ED1
:109338004707112E4707112E4700B6EE007AF4EEC4
:10934800C77AF1EE10FA54DBB7EE000A05E077EEC3
:10935800A77AB7EE000A37EEC00A94F88500FFF73F
:109368003DFA05F1340304EB430398800135EDB26F
:109378000136052EC4D894ED047AD4ED067A77EE3A
:10938800877AC4ED067AC2E7B6EE007AF4EEC77AB9
:10939800F1EE10FA08DBB1EE000A67EEC07AB0EE23
:1093A800080A37EE800AD8E7B1EE000A67EE807A3D
:1093B800B7EE000A37EEC00ACFE7FEEEEA7A104BA6
:1093C80017EE902A03EB820393ED000AC5E7FFF737
:1093D80019FC00EE100AB8EE400ADFED0A7A20EE1A
:1093E800270AF7EE007A30EE670AB6E79FED030A20
:1093F800B3E7BFEE000AB0E70026BAE700000000B6
:10940800E4FA00080000003010B5044643791BB1A7
:10941800013BDBB243718BB1237DCBB1637D9BB143
:10942800637D0133DBB26375204AA2FB0312920805
:1094380002EB4202A3EB4203637510BD0246002112
:109448000846FFF7EDFBE7E72046FFF735FFE7E7BC
:10945800237F9BB1637D6BB1637D0133DBB26375A1
:10946800124AA2FB0312920802EB4202A3EB420348
:109478006375E2E72046FFF727FDEDE794F825300E
:10948800002BDAD0637D6BB1637D0133DBB263758A
:10949800064AA2FB0312920802EB4202A3EB420324
:1094A8006375CAE72046FFF7D7FCEDE7ABAAAAAA7F
:1094B80008B5CB78052B02D0062B18D008BDC2788A
:1094C8000B789A4201D0FF2BF8D14A7803799A4257
:1094D800F4D1437907EE903AF8EE677A91F885006F
:1094E8009FED110A87EE800AFFF704F9E6E7C278D4
:1094F8000B789A4201D0FF2BE0D14A7803799A423F
:10950800DCD1437907EE903AF8EE677A9FED077A57
:1095180087EE870A91F88500F1EE047A30EE670A43
:10952800FFF7E8F8CAE700BF3333CB4133334B4288
:1095380070B505460C46CB78023B282B30D8DFE8BF
:1095480013F07300D000E9002F002F008C00AB004F
:109558002F002F008C00AB002F00290029002900C4
:109568002900D000D000D000D000E900E900E900CF
:10957800E90039014D012F002F002F002F00FB00BB
:1095880019014A004A004A004A004A004A005C00A1
:109598005C005C00C2780B789A4202D0FF2B00D0A6
:1095A80070BD04F1260632466979287900F0A6FBD9
:1095B800304600F04EFBFF2808D0A0712046FFF788
:1095C80049FE21460120FFF769FBE9E72146002013
:1095D800FFF764FBE4E7C2780B789A4201D0FF2BCF
:1095E800DED104F1260632466979287900F086FB37
:1095F800304600F02EFBA071D2E7C2780B789A4271
:1096080001D0FF2BCCD104F126063246697928799E
:1096180000F074FB304600F01CFBA071794B23620C
:109628006B7984F82430BBE7C2780B789A4201D072
:10963800FF2BB5D104F1260632466979287900F066
:109648005DFB304600F005FBFF2804D001212246CF
:10965800FFF756FBA4E70021F9E7C2780B789A4296
:1096680001D0FF2B9CD104F126063246697928796E
:1096780000F044FB304600F0F3FA00EB800007EE00
:10968800900AF8EEE77A94F885009FED5F0A87EE76
:10969800800AFFF72FF883E7C2780B789A4202D046
:1096A800FF2B7FF47DAF04F12606324669792879CD
:1096B80000F024FB304600F0D3FA00EB80004000B5
:1096C80007EE900AF8EEE77A9FED4F7A87EE870A61
:1096D80094F88500F1EE047A30EE670AFFF70AF88D
:1096E8005EE7C2780B789A4202D0FF2B7FF458AF1E
:1096F80094F8853043B1022B7FF452AF434A69791D
:10970800287900F0E7FB4BE7414A6979287900F0AE
:10971800E1FB45E7C2780B789A4202D0FF2B7FF431
:109728003FAF94F88530002B7FF43AAF384A697917
:10973800287900F0CFFB33E7C2780B789A4202D041
:10974800FF2B7FF42DAF63782A79934202D0FF2B49
:109758007FF426AF6B7903EB830307EE903AF8EEBC
:10976800E77A94F885009FED280A87EE800AFEF7CD
:10977800C1FF15E7C2780B789A4202D0FF2B7FF41D
:109788000FAF63782A79934202D0FF2B7FF408AF9A
:109798006B7903EB830307EE903AF8EEE77A94F8D7
:1097A80085009FED190A87EE800AFEF7A3FF0B23B9
:1097B8006371F5E6C2780B789A4202D0FF2B7FF4EA
:1097C800EFAE63782A79934202D0FF2B7FF4E8AE9C
:1097D800224600210120FFF73BFAE1E6C2780B7828
:1097E8009A4202D0FF2B7FF4DBAE63782A7993424A
:1097F80002D0FF2B7FF4D4AE224601210846FFF7A2
:109808000FFACDE60000A0400000FE420B4F0020FA
:10981800FC4E002070B505460C46CB78023B252B44
:1098280000F2FA80DFE813F06500C900DE00F800F6
:10983800F8007E00A100F800F8007E00A100F80002
:109848002600260026002600C900C900C900C90054
:10985800DE00DE00DE00DE00F200F800F800F800AE
:10986800F800F800EC00F800F800F800F8004C00E8
:109878004C004C00C2780B789A4202D0FF2B40F083
:10988800CB8004F126063146287900F0F0F93046FD
:1098980000F0DFF90546FF2801D1237B5BB921469B
:1098A8000120FFF7FBF9FF2D00F0B680A5712046D7
:1098B800FFF7D0FCB0E021460020FFF7EFF9F2E710
:1098C800C2780B789A4202D0FF2B40F0A58004F1B1
:1098D80026063146287900F0CAF9304600F0B9F971
:1098E800FF2801D0A07197E0237B002B40F09480E3
:1098F800F8E7C2780B789A4202D0FF2B40F08C80B0
:1099080004F126063146287900F0B1F9304600F016
:10991800A0F9FF2804D001212246FFF7F1F97BE0E6
:109928000021F9E7C2780B789A4201D0FF2B73D156
:1099380004F126063146287900F099F9304600F0FE
:1099480088F9FF2868D0304600F08AF900EB8000DB
:1099580007EE900AF8EEE77A94F885009FED3B0A47
:1099680087EE800AFEF7C6FE56E0C2780B789A4268
:1099780001D0FF2B50D104F126063146287900F09A
:1099880076F9304600F065F9FF2845D0304600F0FA
:1099980067F900EB8000400007EE900AF8EEE77ADE
:1099A8009FED2A7A87EE870A94F88500F1EE047A0B
:1099B80030EE670AFEF79EFE2EE0C2780B789A42D8
:1099C80001D0FF2B28D194F8853033B1022B23D155
:1099D8001F49287900F0E4FA1EE01E49287900F0B2
:1099E800DFFA19E0C2780B789A4201D0FF2B13D125
:1099F80094F8853083B91749287900F0D1FA0BE03B
:109A0800C2780B789A4208D0FF2B06D0EA782378E0
:109A18009A420ED0FF2B0CD070BD63782A799342FE
:109A280001D0FF2BF2D1224600210846FFF710F99A
:109A3800ECE763782A79934201D0FF2BECD12246D8
:109A480000210846FFF704F9E6E700BF0000FE42E0
:109A58000B4F0020FC4E002070B5064615461C46EC
:109A680093F803C0BCF1040F12D9ACF1120C5FFAE1
:109A78008CFCBCF1070F0ED81B7993B96273DAB965
:109A8800237B43B9FF23A3712046FFF7E3FB02E0E2
:109A9800BCF1030F00D270BD1A462946FFF730F912
:109AA800F9E721461046FFF7F9F8002DF3D0A67123
:109AB8002046FFF7CFFBEEE7A0712046FFF7CAFB71
:109AC800E9E708B5CB781D2B0DD01E2B14D01C2B25
