:020000040800F2
:1000000000800020DD1D0008E1070008E30700086C
:10001000E5070008E7070008E907000800000000FE
:10002000000000000000000000000000EB070008D6
:10003000ED07000800000000EF070008F1070008C6
:100040002D1E00082D1E00082D1E00082D1E000864
:100050002D1E00082D1E00082D1E00082D1E000854
:100060002D1E00082D1E00082D1E00082D1E000844
:100070002D1E00082D1E00082D1E00082D1E000834
:100080002D1E00082D1E00082D1E00082D1E000824
:100090002D1E00082D1E00082D1E00082D1E000814
:1000A0002D1E00082D1E00082D1E00082D1E000804
:1000B0002D1E00082D1E00082D1E00082D1E0008F4
:1000C0002D1E00082D1E00082D1E00082D1E0008E4
:1000D0002D1E00082D1E00082D1E00082D1E0008D4
:1000E0002D1E00082D1E00082D1E00082D1E0008C4
:1000F0002D1E00082D1E000800000000000000005A
:1001000000000000000000002D1E00082D1E000849
:1001100000000000000000002D1E00082D1E000839
:100120002D1E00082D1E00082D1E00082D1E000883
:100130002D1E00082D1E00082D1E00082D1E000873
:100140002D1E00080000000000000000000000005C
:10015000000000000000000000000000000000009F
:1001600000000000000000002D1E00082D1E0008E9
:100170002D1E0008000000002D1E000800000000D9
:08018000000000002D1E000824
:1001880010B5054C237833B9044B13B10448AFF3C9
:1001980000800123237010BD08000020000000002B
:1001A800881E000808B5034B1BB103490348AFF389
:1001B800008008BD000000000C000020881E000818
:1001C80080B500AF044B1968044A1268044883607C
:1001D80081F308889047FEE70040000804400008C3
:1001E80000ED00E010B584B0044600F007FC0022E2
:1001F800019204EB8404230203F1006303F58043B6
:1002080002930123039304A941F8102D01A800F0DB
:10021800B7FC00F007FC04B010BD0246036853F8B1
:10022800040B1360704710B504460A4600230168A2
:10023800022000F033FC23680433236010BD000063
:1002480010B582B0064C02A840F8044DFFF7E5FF50
:10025800A04202D0002002B010BD0120FBE700BF81
:100268000028000810B582B000F0C8FB0A4B0193C3
:10027800A3F5F0330093002407E001A8FFF7CDFFB2
:1002880001466846FFF7CFFF0134B4F5F04FF4D3C9
:1002980000F0C8FB02B010BD0020020830B59BB0CA
:1002A800002412941394159416940B940C940D94A2
:1002B8000E940F942C222146684601F0D9FD0122A4
:1002C80010924FF4803311931492022517951893C6
:1002D8004FF4E013199310A800F0A4FC0F230B931C
:1002E8000C950D944FF480630E930F9429460BA838
:1002F80000F0D8FF4FF4003300930A94684601F0E9
:10030800BBF81BB030BD10B500F0B4FAFFF7C6FF5C
:100318000A2000F0CFFA00F03BF900F0B1F900F044
:1003280075F8FFF78DFF18B900F07CFAFFF748FF62
:1003380000F058F8002406E0E0B2FFF753FF64200D
:1003480000F0B8FA01343B2CF6D900F037F8FFF783
:1003580089FF00F01FF8E7E7704700000A4B1A68AA
:100368000A4B1978516359789163D97811641979CE
:10037800D163074A12689979D163D9791164597A96
:1003880051639B7A93637047740000202800002013
:100398003400002010B5002309E0074903EB4302AD
:1003A8008818FF248C54002242700133DBB2032BDF
:1003B800F3D9FFF7D3FF10BD2800002010B50023A4
:1003C80008E0074803EB43014418FF2242546270D7
:1003D8000133DBB2032BF4D9FFF7C0FF10BD00BF18
:1003E8002800002010B5002309E0074903EB430269
:1003F800881800248C54FF2242700133DBB2032B8F
:10040800F3D9FFF7ABFF10BD2800002010B5124C40
:100418000021204601F0CAFB0421204601F0C6FB5A
:100428000821204601F0C2FB0C21204601F0BEFB4A
:100438000A4C0021204601F0B9FB0421204601F0B6
:10044800B5FB0821204601F0B1FB0C21204601F044
:10045800ADFBFFF783FF10BD7400002034000020BF
:1004680000B585B003681A4A934208D0194A9342E6
:1004780010D0194A934218D005B05DF804FB174B09
:10048800DA6942F00202DA61DB6903F002030193E0
:10049800019BF1E7114BDA6942F00402DA61DB698A
:1004A80003F004030293029BE6E70C4BDA6942F07F
:1004B8001002DA61DB6903F010030393039B002247
:1004C8001146362000F016FA362000F047FAD3E736
:1004D80000040040000800400010004000100240E6
:1004E80010B588B0002303930493059306930793EC
:1004F8000368234A934204D0224A93422AD008B080
:1005080010BD214B5A6942F400325A615A6902F40B
:1005180000320092009A5A6942F480225A615B695B
:1005280003F480230193019B502303930224049432
:10053800079403A94FF0904001F082FB0323039333
:100548000494002305930693079403A90F4801F028
:1005580077FBD4E70C4B5A6942F480225A615B69F5
:1005680003F480230293029B4FF4707303930223D6
:100578000493079303A9054801F062FBBFE700BF96
:100588000004004000080040001002400004004839
:1005980000B58FB000230A930B930C930D93089327
:1005A8000993019302930393049305930693079386
:1005B8003148324A026041F27072426083604FF4FF
:1005C8007A72C2600361836101F0F0F800283AD1C1
:1005D8000EA94FF4805341F8103D274801F052FA14
:1005E800002833D1244801F0FAF8002831D100233B
:1005F8000893099308A9204801F0F8FA60BB602322
:100608000193002202920392059201A91A4801F06F
:10061800BFF920BB04220DEB0201174801F0B8F91D
:1006280000BB082201A9144801F0B2F9E8B90C226C
:1006380001A9114801F0ACF9D0B90F48FFF750FFF4
:100648000FB05DF804FBFFF787FEC1E7FFF784FEF4
:10065800C8E7FFF781FECAE7FFF77EFECFE7FFF79F
:100668007BFED7E7FFF778FEDBE7FFF775FEDEE7EF
:10067800FFF772FEE1E700BF7400002000040040AD
:1006880000B58FB000230A930B930C930D93089336
:100698000993019302930393049305930693079395
:1006A8003148324A026041F27072426083604FF40E
:1006B8007A72C2600361836101F078F800283AD148
:1006C8000EA94FF4805341F8103D274801F0DAF99C
:1006D800002833D1244801F082F8002831D10023C2
:1006E8000893099308A9204801F080FA60BB6023A9
:1006F8000193002202920392059201A91A4801F07F
:1007080047F920BB04220DEB0201174801F040F91C
:1007180000BB082201A9144801F03AF9E8B90C22F3
:1007280001A9114801F034F9D0B90F48FFF7D8FEF4
:100738000FB05DF804FBFFF70FFEC1E7FFF70CFEF3
:10074800C8E7FFF709FECAE7FFF706FECFE7FFF79E
:1007580003FED7E7FFF700FEDBE7FFF7FDFDDEE767
:10076800FFF7FAFDE1E700BF340000200008004071
:100778001549D1F8883043F47003C1F88830134B19
:100788001A6842F001021A605868114A02405A6019
:100798001A6822F0847222F480321A601A6822F4ED
:1007A80080221A605A6822F4FE025A60DA6A22F03D
:1007B8000F02DA62186B074A02401A6300229A6035
:1007C8004FF000638B60704700ED00E000100240BE
:1007D8000CC07FF8CCFC00FF7047FEE7FEE7FEE7A1
:1007E800FEE770477047704708B500F055F808BD38
:1007F80082B00A4B9A6942F001029A619A6902F042
:1008080001020092009ADA6942F08052DA61DB69EB
:1008180003F080530193019B02B07047001002401F
:100828007047000010B5074B4FF0FF321A610024E3
:100838001C61DA60DC609A629C62FFF7F1FF204677
:1008480010BD00BF0010024010B50446074B1868E1
:10085800074BA3FB0030800900F08CF800222146EA
:100868004FF0FF3000F046F8002010BD00000020D7
:10087800D34D621008B5074A136843F0100313609C
:10088800032000F025F80020FFF7DEFFFFF7B0FF98
:10089800002008BD00200240024A1368013313609B
:1008A800704700BFF4000020014B1868704700BF74
:1008B800F400002010B582B00190FFF7F5FF044660
:1008C800FFF7F2FF001B019B9842F9D302B010BD5D
:1008D800074AD36823F4E0631B041B0C000200F4EE
:1008E800E060184340F0BF6040F40030D0607047CB
:1008F80000ED00E030B4174BDB68C3F30223C3F10B
:100908000704042C28BF04241D1D062D18D9033BF9
:100918004FF0FF3505FA04F421EA0401994005FA7D
:1009280003F322EA0303194300280BDB0901C9B2C8
:1009380000F1604000F5614080F8001330BC70475A
:100948000023E5E700F00F000901C9B2024B195472
:10095800F4E700BF00ED00E014ED00E000F01F0236
:10096800400901239340024A42F82030704700BFF3
:1009780000E100E00138B0F1807F0AD2064B5860F0
:10098800064AF02182F823100020986007221A6096
:1009980070470120704700BF10E000E000ED00E064
:1009A800044B0022DA61044A136943F0010313611E
:1009B80001807047F8000020002002400D4BDB68E2
:1009C80013F0100F14D00C4AD36943F00203D3611B
:1009D8001023084AD26812F0040F06D00649CA69E3
:1009E80042F00102CA6143F00403024AD36070472F
:1009F8000023EEE700200240F8000020074B1B69A7
:100A080013F0800F07D0054B054A5A6002F188326F
:100A18005A60002070470120704700BF0020024044
:100A280023016745034A136943F0800313610020DB
:100A3800704700BF0020024038B50446FFF734FF76
:100A48000546154BDB6813F0010F0AD0B4F1FF3FE0
:100A5800F7D0E4B1FFF728FF401BA042F1D90320EB
:100A680014E00D4BDB6813F0200F02D00A4B202254
:100A7800DA60094BDB6813F0100F04D1064BDB6812
:100A880013F0040F05D0FFF799FF012038BD0320AC
:100A9800FCE70020FAE700BF002002402DE9F843F8
:100AA800234C247E012C41D01E4690460F46044616
:100AB8001F4B01221A764CF25030FFF7BDFF034658
:100AC80070BB012C29D0022C24D04FF0040900243B
:100AD8004C4525D22101C1F12002A1F1200328FAB9
:100AE80001F106FA02F2114326FA03F3194389B217
:100AF80007EB4400FFF754FF4CF25030FFF79CFF20
:100B08000C4B1D6925F001051D61034640B90134F0
:100B1800E4B2DDE74FF00209D9E74FF00109D6E763
:100B2800034A002111761846BDE8F8830223FAE744
:100B3800F800002000200240064B0022DA61064B34
:100B48001A6942F004021A611A6942F040021A61F5
:100B5800704700BFF800002000200240064B00222A
:100B6800DA61064B1A6942F002021A6158611A6981
:100B780042F040021A617047F8000020002002404D
:100B8800264B1B7E012B45D070B50E460446234BE1
:100B980001221A760368934220D04CF25030FFF7B6
:100BA8004BFF88BB4FF0FF33336065680122A168B3
:100BB800636803EBC123AB4227D92846FFF7CEFF72
:100BC8004CF25030FFF738FF154A136923F002033F
:100BD80013610246B0B905F50065E8E74CF25030FC
:100BE800FFF72AFF08B101220FE0FFF7A5FF4CF23B
:100BF8005030FFF721FF024609490B6923F004032F
:100C08000B6102E0356000E00122044B00211976F7
:100C1800104670BD02221046704700BFF800002041
:100C28000020024070B582B00446036813F0010F3B
:100C38003BD0B64B5B6803F00C03042B1ED0B34BC0
:100C48005B6803F00C03082B13D06368B3F5803F8F
:100C580068D0002B40F0928003F1804303F5043301
:100C68001A6822F480321A601A6822F480221A6004
:100C78005DE0A64B5B6813F4803FE6D04FF4003389
:100C880093FAA3F3A14B19684FF4003393FAA3F333
:100C9800B3FA83F303F01F03012202FA03F30B42B2
:100CA80003D06368002B00F0B382236813F0020FAF
:100CB80000F0C680954B5B6813F00C0F00F09C8029
:100CC800924B5B6803F00C03082B00F08F802369BC
:100CD800002B00F0F380012292FAA2F3B3FA83F317
:100CE80003F1845303F584139B001A60FFF7DCFDBE
:100CF8000546022393FAA3F3844B1968022393FA57
:100D0800A3F3B3FA83F303F01F03012202FA03F3F8
:100D18000B4240F0C480FFF7C7FD401B0228E8D90A
:100D280003207CE2794A136843F480331360774ADE
:100D3800D36A23F00F03A1680B43D3626368002BC7
:100D480036D0FFF7B1FD05464FF4003393FAA3F30D
:100D58006E4B19684FF4003393FAA3F3B3FA83F395
:100D680003F01F03012202FA03F30B429DD1FFF7A0
:100D78009BFD401B6428E7D9032050E2B3F5A02F60
:100D880009D0624B1A6822F480321A601A6822F479
:100D980080221A60CBE703F18043A3F53C331A683D
:100DA80042F480221A601A6842F480321A60BEE760
:100DB800FFF77AFD05464FF4003393FAA3F3534B3C
:100DC80019684FF4003393FAA3F3B3FA83F303F0EB
:100DD8001F03012202FA03F30B423FF466AFFFF749
:100DE80063FD401B6428E6D9032018E2474B5B6883
:100DF80013F4803F7FF46BAF022393FAA3F3434BC2
:100E08001968022393FAA3F3B3FA83F303F01F03D9
:100E1800012202FA03F30B4204D02369934201D062
:100E28000120FCE13948036823F0F8036169F822DE
:100E380092FAA2F2B2FA82F201FA02F213430360C2
:100E4800236813F0080F00F08D80A369002B61D090
:100E5800012191FAA1F2B2FA82F22D4B13449B00C0
:100E68001960FFF721FD0546022393FAA3F293FACE
:100E7800A3F293FAA3F2254A516A93FAA3F3B3FAB9
:100E880083F303F01F03012202FA03F30B4269D133
:100E9800FFF70AFD401B0228E6D90320BFE11B48E3
:100EA800036823F0F8036169F82292FAA2F2B2FA11
:100EB80082F201FA02F213430360C1E7012393FAB5
:100EC800A3F3B3FA83F303F1845303F584139B006C
:100ED80000221A60FFF7E8FC0546022393FAA3F301
:100EE8000A4B1968022393FAA3F3B3FA83F303F0C6
:100EF8001F03012202FA03F30B42A1D0FFF7D4FC2F
:100F0800401B0228E9D9032089E100BF00100240F4
:100F180020819010012292FAA2F2B2FA82F2C14B19
:100F280013449B0000221A60FFF7BEFC054602230B
:100F380093FAA3F293FAA3F293FAA3F2BA4A516A84
:100F480093FAA3F3B3FA83F303F01F03012202FA1F
:100F580003F30B4206D0FFF7A7FC401B0228E6D993
:100F680003205CE1236813F0040F00F0B380AE4B5C
:100F7800DB6913F0805F20D1AB4BDA6942F0805215
:100F8800DA61DB6903F080530193019B0125A74BCC
:100F98001B6813F4807F12D0E368012B23D073BB46
:100FA80003F1804303F504331A6A22F001021A623E
:100FB8001A6A22F004021A621AE00025E7E79B4A3F
:100FC800136843F480731360FFF76EFC0646974B73
:100FD8001B6813F4807FDFD1FFF766FC801B642851
:100FE800F5D903201BE1904A136A43F00103136209
:100FF800E368002B41D0FFF757FC06462BE0052B92
:1010080009D0894B1A6A22F001021A621A6A22F080
:1010180004021A62ECE7844B1A6A42F004021A626C
:101028001A6A42F001021A62E2E77F4B196A022348
:1010380093FAA3F3B3FA83F303F01F03012202FA2E
:1010480003F3194245D1FFF72FFC801B41F2883387
:10105800984200F2DF80022393FAA3F293FAA3F3F3
:10106800B3FA83F35B0943F00203022BDDD00223BA
:1010780093FAA3F36C4B596AD9E7FFF715FC0646B8
:1010880015E0694B196A022393FAA3F3B3FA83F3C1
:1010980003F01F03012202FA03F3194219D0FFF7E4
:1010A80003FC801B41F28833984200F2B58002238A
:1010B80093FAA3F293FAA3F3B3FA83F35B0943F029
:1010C8000203022BDDD0022393FAA3F3564B596A8D
:1010D800D9E7B5BBE369002B00F0A080524A5268FB
:1010E80002F00C02082A00F0A380022B2FD04FF048
:1010F800807393FAA3F3B3FA83F303F1845303F5EC
:1011080084139B0000221A60FFF7CEFB04464FF0C1
:10111800007393FAA3F3444B19684FF0007393FAE2
:10112800A3F3B3FA83F303F01F03012202FA03F3D4
:1011380019426BD0FFF7B8FB001B0228E7D9032040
:101148006DE0394AD36923F08053D361C2E74FF089
:10115800807393FAA3F3B3FA83F303F1845303F58B
:1011680084139B0000221A60FFF79EFB05464FF090
:10117800007393FAA3F32C4B19684FF0007393FA9A
:10118800A3F3B3FA83F303F01F03012202FA03F374
:10119800194206D0FFF788FB401B0228E7D9032035
:1011A8003DE021494B6823F47413626A206A0243C4
:1011B80013434B604FF0807393FAA3F3B3FA83F3AE
:1011C80003F1845303F584139B0001221A60FFF78F
:1011D8006BFB04464FF0007393FAA3F3124B1968A4
:1011E8004FF0007393FAA3F3B3FA83F303F01F03EA
:1011F800012202FA03F3194206D1FFF755FB001B3F
:101208000228E7D903200AE0002008E0002006E0D1
:10121800012004E0032002E0032000E0002002B0E7
:1012280070BD00BF20819010001002400070004087
:101238000120F4E7164B596801F00C03082B24D160
:1012480001F470124FF4701393FAA3F3B3FA83F313
:1012580022FA03F30F4AD05C0D4BDB6A03F00F034D
:101268000F2292FAA2F2B2FA82F2D3400A4AD25C70
:1012780011F4803F03D1094B03FB00F07047084B82
:10128800B3FBF2F300FB03F070470548704700BF5B
:1012980000100240B01E0008C01E000800093D00F2
:1012A80000127A00704B1B6803F007038B420CD2C4
:1012B8006D4A136823F007030B431360136803F0A8
:1012C80007038B4201D00120704770B5036813F003
:1012D800020F06D0654A536823F0F003846823435D
:1012E80053600C460546036813F0010F7AD0436833
:1012F800012B2FD0022B42D0022292FAA2F25B4A93
:101308001068022292FAA2F2B2FA82F202F01F02E6
:10131800012101FA02F2104200F0A48053494A6800
:1013280022F0030213434B60FFF7BEFA06466B68D0
:10133800012B39D0022B46D04C4B5B6813F00C0FB5
:1013480050D0FFF7B1FA801B41F288339842F3D9A5
:10135800032086E04FF4003292FAA2F2434A106862
:101368004FF4003292FAA2F2B2FA82F202F01F02AD
:10137800012101FA02F20242D0D1012071E04FF0BE
:10138800007292FAA2F2394A10684FF0007292FA8B
:10139800A2F2B2FA82F202F01F02012101FA02F26D
:1013A8001042BBD101205CE0304B5B6803F00C03BA
:1013B800042B17D0FFF778FA801B41F28833984244
:1013C800F2D903204DE0294B5B6803F00C03082B8E
:1013D80008D0FFF769FA801B41F288339842F2D9A6
:1013E80003203EE0204B1B6803F00703A3420CD9FF
:1013F8001D4A136823F0070323431360136803F09F
:101408000703A34201D001202BE02B6813F0040F3F
:1014180006D0164A536823F4E063E9680B43536027
:101428002B6813F0080F07D0104A536823F4605351
:10143800296943EAC1035360FFF7FCFE0B4B5B6865
:1014480003F0F003F02292FAA2F2B2FA82F2D34049
:10145800074AD35CD840074B18600020FFF7F4F91F
:10146800002070BD0120FCE700200240001002406F
:10147800A01E000800000020F0B583B004460368F1
:1014880013F4803F48D07D4BDB6913F0805F40F058
:10149800A9807A4BDA6942F08052DA61DB6903F09D
:1014A80080530193019B0125754B1B6813F4807FC2
:1014B80000F09A80714B1B6A13F4407322D0626863
:1014C80002F440729A421DD06C48016A21F44076B9
:1014D8004FF4803393FAA3F2B2FA82F2694F3A4496
:1014E80092004FF0010CC2F800C093FAA3F3B3FACC
:1014F80083F33B449B0000221A60066211F0010F3F
:1015080040F087805D4A136A23F4407361680B4397
:101518001362002D40F0A980236813F0010F06D054
:10152800564A136B23F00303A1680B431363236824
:1015380013F0020F06D0514A136B23F44033E168CD
:101548000B431363236813F0040F06D04B4A136B45
:1015580023F4402321690B431363236813F0200FFE
:1015680006D0464A136B23F0100361690B431363DB
:10157800236813F4003F06D0404A536823F48003DD
:10158800A16A0B435360236813F0400F06D03B4A0F
:10159800136B23F02003A1690B431363236813F033
:1015A800800F06D0354A536823F44043E1690B4362
:1015B8005360236813F4006F06D0304A536823F051
:1015C8007843216A0B435360236813F4806F53D028
:1015D8002A4A136B23F04003616A0B43136300200C
:1015E80003B0F0BD00255FE7254A136843F4807314
:1015F8001360FFF759F90646214B1B6813F4807FE7
:101608007FF458AFFFF750F9801B6428F4D9032002
:10161800E6E7FFF749F9064615E0184B196A022371
:1016280093FAA3F3B3FA83F303F01F03012202FA38
:1016380003F30B427FF466AFFFF736F9801B41F2E4
:101648008833984216D8022393FAA3F293FAA3F3A5
:10165800B3FA83F35B0943F00203022BDDD00223C4
:1016680093FAA3F3054B596AD9E7D36923F080535A
:10167800D36151E70320B3E70020B1E7001002402F
:10168800007000400081901010B4036A046A24F0CE
:1016980001040462846924F0F00444EA021223F08D
:1016A8000A030B43826103625DF8044B704710B470
:1016B800036A23F0100303628469036A24F4704404
:1016C80044EA023223F0A00343EA01138261036271
:1016D8005DF8044B7047836823F0700341F00701FD
:1016E80019438160704770470368B0F1804F0ED08E
:1016F8002C4A90420BD002F58062904207D002F546
:101708008062904203D002F5A832904203D123F0C0
:1017180070034A681343B0F1804F26D0214A9042A3
:1017280023D002F5806290421FD002F58062904279
:101738001BD002F54062904217D002F580629042B9
:1017480013D002F5806290420FD002F59032904299
:101758000BD002F58062904207D002F58062904279
:1017680003D002F5A052904203D123F44073CA6813
:10177800134323F080034A69134303608B68C362F1
:101788000B688362084B984207D003F58063984240
:1017980003D003F58063984201D10B6903630123E9
:1017A800436170470004004000400140A8B110B5F3
:1017B800044690F83D305BB1022384F83D30211D8A
:1017C8002068FFF791FF012384F83D30002010BD09
:1017D80080F83C30FEF744FEEEE701207047A8B1E0
:1017E80010B5044690F83D305BB1022384F83D30D3
:1017F800211D2068FFF778FF012384F83D30002081
:1018080010BD80F83C30FFF76EFFEEE7012070470F
:1018180030B4036A23F001030362036A44688269EF
:1018280022F073020D682A4323F002038D682B43CC
:10183800144DA84207D005F58065A84203D005F5E8
:101848008065A84205D123F00803CD682B4323F017
:1018580004030C4DA84207D005F58065A84203D0C3
:1018680005F58065A84205D124F440754C692C43E0
:101878008D692C43446082614A684263036230BCCC
:10188800704700BF0040014030B4036A23F01003E2
:101898000362026A4368846924F4E6440D6844EAF2
:1018A800052422F020028D6842EA05120C4DA84258
:1018B80007D005F58065A84203D005F58065A842E4
:1018C80007D123F480634D6943EA85038D6943EAB0
:1018D8008503436084614B688363026230BC704750
:1018E8000040014030B4036A23F480730362036A42
:1018F8004268C56925F073050C682C4323F400730E
:101908008D6843EA05230C4DA84207D005F580658C
:10191800A84203D005F58065A84205D14D6942EA81
:1019280005128D6942EA05124260C4614A68C263C1
:10193800036230BC704700BF0040014030B4036A06
:1019480023F480530362036A4468C26922F4E642BE
:101958000D6842EA052223F400538D6843EA0533F3
:101968000A4DA84207D005F58065A84203D005F5C1
:101978008065A84202D14D6944EA85144460C26179
:101988004A680264036230BC704700BF00400140EF
:1019980038B590F83C30012B66D00D46044601233B
:1019A80080F83C30022380F83D300C2A1AD8DFE852
:1019B80002F00719191920191919341919194700AA
:1019C8000068FFF725FF2268936943F008039361D5
:1019D8002268936923F00403936122689369296953
:1019E8000B439361012384F83D30002084F83C00C8
:1019F80038BD0068FFF748FF2268936943F4006325
:101A080093612268936923F48063936122689369E0
:101A1800296943EA01239361E4E70068FFF762FF5D
:101A28002268D36943F00803D3612268D36923F09D
:101A38000403D3612268D36929690B43D361D1E7D1
:101A48000068FFF77BFF2268D36943F40063D36122
:101A58002268D36923F48063D3612268D369296932
:101A680043EA0123D361BDE70220C1E710B48468CB
:101A780024F47F4442EA03230B43234383605DF845
:101A8800044B704790F83C30012B7DD010B50446CC
:101A9800012380F83C30022380F83D3002689368C7
:101AA80023F47F4323F0770393600B68402B57D0D0
:101AB80010D9702B3ED01FD8502B47D0602B32D175
:101AC800CA6849680068FFF7F2FD60212068FFF7DF
:101AD80002FE28E0102B4DD008D9202B4FD0302BF8
:101AE80021D130210068FFF7F6FD1CE0DBB90021A9
:101AF8000068FFF7F0FD16E0B3F5805F0ED0B3F590
:101B0800005F10D1CB684A6889680068FFF7AEFFAC
:101B18002268936843F48043936004E00268936802
:101B280023F007039360012384F83D30002084F8F4
:101B38003C0010BDCB684A6889680068FFF796FFCB
:101B48002268936843F077039360ECE7CA684968B2
:101B58000068FFF799FD50212068FFF7BCFDE2E718
:101B6800CA6849680068FFF78FFD40212068FFF7C1
:101B7800B2FDD8E710210068FFF7ADFDD3E72021BB
:101B88000068FFF7A8FDCEE70220704710B40123D4
:101B980003FA01F4036A23EA04030362036A8A402E
:101BA800134303625DF8044B7047000010B5044608
:101BB80001220068FFF7EAFF23680B4A934207D027
:101BC80002F58062934203D002F58062934203D10A
:101BD8005A6C42F400425A642268136843F00103C5
:101BE8001360002010BD00BF0040014090F83C3059
:101BF800012B22D030B4012280F83C20022380F847
:101C08003D300468636823F07003636004686368A8
:101C18000D682B4363600468A36823F08003A36006
:101C28000468A36849680B43A36080F83D2000233B
:101C380080F83C30184630BC7047022070470000DE
:101C4800F0B482B0002336E0042400E00024B4405D
:101C58003C4302355B4E46F825405B4C2568D4432F
:101C680004EA05064F6817F4803F01D042EA0506EA
:101C7800554D2E606D6804EA05064F6817F4003F5D
:101C880001D042EA0506504D6E60AD6804EA0506CB
:101C98004F6817F4801F01D042EA05064A4DAE602E
:101CA800ED682C404E6816F4001F01D042EA050486
:101CB800454AD46001330A6832FA03F47ED001241D
:101CC8009C402240F6D04D68022D01D0122D10D133
:101CD800DE08083650F826C003F00705AF000F25C8
:101CE800BD402CEA050C0D69BD4045EA0C0540F8DD
:101CF800265006685F000325BD40ED4305EA060C43
:101D08004E6806F00306BE4046EA0C0606604E68BA
:101D180006F1FF3CBCF1010F03D9112E01D0122EA0
:101D280010D1866805EA060CCE68BE4046EA0C0665
:101D38008660466826EA04044E68C6F300169E408C
:101D480026434660C46825408C68BC402C43C46068
:101D58004C6814F0805FADD01C4CA56945F00105B6
:101D6800A561A46904F001040194019C9D08AE1CBE
:101D7800144C54F8267003F00304A6000F24B44052
:101D880027EA0407B0F1904F3FF460AF104CA0422F
:101D98000ED004F58064A0420CD004F58064A04203
:101DA8000AD004F58064A0423FF44EAF05244EE704
:101DB80001244CE702244AE7032448E702B0F0BCB8
:101DC800704700BF000001400004014000100240BD
:101DD80000040048DFF834D0002103E00C4B5B58C6
:101DE800435004310B480C4B42189A42F6D30B4A25
:101DF80002E0002342F8043B094B9A42F9D3FEF76C
:101E0800B7FC00F011F8FEF77EFAFEE7008000202C
:101E1800D81E000800000020040000200800002050
:101E280018010020FEE7000070B50D4E0D4CA41BF4
:101E3800A4100025A54209D10B4E0C4C00F020F847
:101E4800A41BA4100025A54205D170BD56F8253065
:101E580098470135EEE756F8253098470135F2E7FF
:101E6800D01E0008D01E0008D01E0008D41E00088E
:101E780002440346934200D1704703F8011BF9E777
:101E8800F8B500BFF8BC08BC9E467047F8B500BF5F
:081E9800F8BC08BC9E4670472F
:101EA000000000000000000001020304060708090A
:101EB00002030405060708090A0B0C0D0E0F10108B
:101EC0000102030405060708090A0B0C0D0E0F108A
:041ED000AD01000858
:041ED4008901000878
:041ED80000127A007A
:0400000508001DDDF5
:00000001FF
