:020000040800F2
:1000000000800020F53D0008470E0008490E00085A
:100010004B0E00084D0E00084F0E000800000000B7
:10002000000000000000000000000000510E000869
:10003000530E000800000000550E0008570E00087F
:10004000453E0008453E0008453E0008453E000884
:10005000453E0008453E0008453E0008453E000874
:10006000453E00085F0E0008453E0008453E00087A
:10007000453E0008453E0008453E0008453E000854
:10008000453E0008453E0008453E0008453E000844
:10009000453E0008453E0008453E0008690E000840
:1000A000453E0008453E0008453E0008453E000824
:1000B000453E0008453E0008453E0008453E000814
:1000C000453E0008453E0008453E0008453E000804
:1000D000453E0008453E0008453E0008453E0008F4
:1000E000453E0008453E0008453E0008453E0008E4
:1000F000453E0008453E00080000000000000000EA
:100100000000000000000000453E0008453E0008D9
:100110000000000000000000453E0008453E0008C9
:10012000453E0008453E0008850E0008950E000873
:10013000A50E0008453E0008453E0008453E000863
:10014000453E000800000000000000000000000024
:10015000000000000000000000000000000000009F
:100160000000000000000000453E0008453E000879
:10017000453E000800000000453E00080000000069
:0801800000000000453E0008EC
:1001900010B5054C237833B9044B13B10448AFF3C1
:1001A00000800123237010BD7C00002000000000AF
:1001B0009868000808B5034B1BB103490348AFF327
:1001C000008008BD00000000800000209868000842
:1001D00001F0FF01102A2BDB10F0070F08D010F8F8
:1001E000013B013A8B422DD010F0070F42B3F6D1FC
:1001F000F0B441EA012141EA014122F007047FF015
:1002000000070023F0E80256083C85EA010586EA6B
:10021000010685FA47F5A3FA87F586FA47F6A5FAA7
:1002200087F68EB9EED1F0BC01F0FF0102F00702B3
:1002300032B110F8013B013A83EA010313B1F8D15E
:100240000020704701387047002D06BF354603383F
:10025000073815F0010F07D1013015F4807F02BF78
:10026000013015F4C03F0130F0BC0138704700BFC9
:1002700081F0004102E000BF83F0004330B54FEA57
:1002800041044FEA430594EA050F08BF90EA020FC4
:100290001FBF54EA000C55EA020C7FEA645C7FEA57
:1002A000655C00F0E2804FEA5454D4EB5555B8BF7A
:1002B0006D420CDD2C4480EA020281EA030382EAEB
:1002C000000083EA010180EA020281EA0303362D7D
:1002D00088BF30BD11F0004F4FEA01314FF4801C50
:1002E0004CEA113102D0404261EB410113F0004F62
:1002F0004FEA03334CEA133302D0524263EB430319
:1003000094EA050F00F0A780A4F10104D5F1200EB6
:100310000DDB02FA0EFC22FA05F2801841F1000111
:1003200003FA0EF2801843FA05F359410EE0A5F1E5
:1003300020050EF1200E012A03FA0EFC28BF4CF016
:10034000020C43FA05F3C01851EBE37101F00045CC
:1003500007D54FF0000EDCF1000C7EEB00006EEBD9
:100360000101B1F5801F1BD3B1F5001F0CD3490863
:100370005FEA30004FEA3C0C04F101044FEA4452BA
:1003800012F5800F80F09A80BCF1004F08BF5FEA41
:10039000500C50F1000041EB045141EA050130BD21
:1003A0005FEA4C0C404141EB0101013C28BFB1F533
:1003B000801FE9D291F0000F04BF01460020B1FA7E
:1003C00081F308BF2033A3F10B03B3F120020CDA51
:1003D0000C3208DD02F1140CC2F10C0201FA0CF02F
:1003E00021FA02F10CE002F11402D8BFC2F1200C94
:1003F00001FA02F120FA0CFCDCBF41EA0C0190404A
:10040000E41AA2BF01EB0451294330BD6FEA040492
:100410001F3C1CDA0C340EDC04F11404C4F120027D
:1004200020FA04F001FA02F340EA030021FA04F38F
:1004300045EA030130BDC4F10C04C4F1200220FAE6
:1004400002F001FA04F340EA0300294630BD21FA24
:1004500004F0294630BD94F0000F83F4801306BFEA
:1004600081F480110134013D4EE77FEA645C18BFDE
:100470007FEA655C29D094EA050F08BF90EA020F75
:1004800005D054EA000C04BF1946104630BD91EA6D
:10049000030F1EBF0021002030BD5FEA545C05D170
:1004A0004000494128BF41F0004130BD14F58004AF
:1004B0003CBF01F5801130BD01F0004545F0FE4123
:1004C00041F470014FF0000030BD7FEA645C1ABF58
:1004D000194610467FEA655C1CBF0B46024650EA8F
:1004E000013406BF52EA033591EA030F41F40021BB
:1004F00030BD00BF90F0000F04BF0021704730B541
:100500004FF4806404F132044FF000054FF0000115
:1005100050E700BF90F0000F04BF0021704730B5D6
:100520004FF4806404F1320410F0004548BF4042AB
:100530004FF000013EE700BF42004FEAE2014FEA00
:1005400031014FEA02701FBF12F07F4393F07F4FDB
:1005500081F06051704732F07F4208BF704793F0DE
:100560007F4F04BF41F40021704730B54FF46074F1
:1005700001F0004521F000411CE700BF50EA0102F4
:1005800008BF704730B54FF000050AE050EA01029D
:1005900008BF704730B511F0004502D5404261EB0D
:1005A00041014FF4806404F132045FEA915C3FF44E
:1005B000D8AE4FF003025FEADC0C18BF03325FEAEB
:1005C000DC0C18BF033202EBDC02C2F1200300FA9C
:1005D00003FC20FA02F001FA03FE40EA0E0021FAC1
:1005E00002F11444BDE600BF70B54FF0FF0C4CF4AF
:1005F000E06C1CEA11541DBF1CEA135594EA0C0F61
:1006000095EA0C0F00F0DEF82C4481EA030621EA9B
:100610004C5123EA4C5350EA013518BF52EA0335D6
:1006200041F4801143F4801338D0A0FB02CE4FF088
:100630000005E1FB02E506F00042E0FB03E54FF0B8
:100640000006E1FB03569CF0000F18BF4EF0010EB0
:10065000A4F1FF04B6F5007F64F5407404D25FEAAC
:100660004E0E6D4146EB060642EAC62141EA55515F
:100670004FEAC52040EA5E504FEACE2EB4F1FD0CA1
:1006800088BFBCF5E06F1ED8BEF1004F08BF5FEA1F
:10069000500E50F1000041EB045170BD06F00046D1
:1006A00046EA010140EA020081EA0301B4EB5C047E
:1006B000C2BFD4EB0C0541EA045170BD41F4801176
:1006C0004FF0000E013C00F3AB8014F1360FDEBF9B
:1006D000002001F0004170BDC4F10004203C35DA77
:1006E0000C341BDC04F11404C4F1200500FA05F3FA
:1006F00020FA04F001FA05F240EA020001F000429B
:1007000021F0004110EBD37021FA04F642EB060110
:100710005EEA430E08BF20EAD37070BDC4F10C043A
:10072000C4F1200500FA04F320FA05F001FA04F2FE
:1007300040EA020001F0004110EBD37041F10001EA
:100740005EEA430E08BF20EAD37070BDC4F12005F5
:1007500000FA05F24EEA020E20FA04F301FA05F25D
:1007600043EA020321FA04F001F0004121FA04F205
:1007700020EA020000EBD3705EEA430E08BF20EAD5
:10078000D37070BD94F0000F0FD101F0004640000F
:1007900041EB010111F4801F08BF013CF7D041EA91
:1007A000060195F0000F18BF704703F00046520095
:1007B00043EB030313F4801F08BF013DF7D043EA66
:1007C0000603704794EA0C0F0CEA135518BF95EA1C
:1007D0000C0F0CD050EA410618BF52EA4306D1D1A3
:1007E00081EA030101F000414FF0000070BD50EAC2
:1007F000410606BF1046194652EA430619D094EA4C
:100800000C0F02D150EA013613D195EA0C0F05D135
:1008100052EA03361CBF104619460AD181EA030189
:1008200001F0004141F0FE4141F470014FF0000041
:1008300070BD41F0FE4141F4780170BD70B54FF0DC
:10084000FF0C4CF4E06C1CEA11541DBF1CEA13555C
:1008500094EA0C0F95EA0C0F00F0A7F8A4EB05043E
:1008600081EA030E52EA03354FEA013100F0888035
:100870004FEA03334FF0805545EA131343EA1263FE
:100880004FEA022245EA111545EA10654FEA0026B3
:100890000EF000419D4208BF964244F1FD0404F56C
:1008A000407402D25B084FEA3202B61A65EB0305C8
:1008B0005B084FEA32024FF480104FF4002CB6EB85
:1008C000020E75EB030E22BFB61A754640EA0C0005
:1008D0005B084FEA3202B6EB020E75EB030E22BF45
:1008E000B61A754640EA5C005B084FEA3202B6EB86
:1008F000020E75EB030E22BFB61A754640EA9C0045
:100900005B084FEA3202B6EB020E75EB030E22BF14
:10091000B61A754640EADC0055EA060E18D04FEAD2
:10092000051545EA16754FEA06164FEAC30343EA72
:1009300052734FEAC2025FEA1C1CC0D111F4801F3F
:100940000BD141EA00014FF000004FF0004CB6E738
:1009500011F4801F04BF01430020B4F1FD0C88BFD7
:10096000BCF5E06F3FF6AFAEB5EB030C04BFB6EBE2
:10097000020C5FEA500C50F1000041EB045170BDD5
:100980000EF0004E4EEA113114EB5C04C2BFD4EB02
:100990000C0541EA045170BD41F480114FF0000E86
:1009A000013C90E645EA060E8DE60CEA135594EA02
:1009B0000C0F08BF95EA0C0F3FF43BAF94EA0C0F05
:1009C0000AD150EA01347FF434AF95EA0C0F7FF47A
:1009D00025AF104619462CE795EA0C0F06D152EACE
:1009E00003353FF4FDAE1046194622E750EA4106B2
:1009F00018BF52EA43067FF4C5AE50EA41047FF4C3
:100A00000DAF52EA43057FF4EBAE12E74FF0FF3C27
:100A100006E000BF4FF0010C02E000BF4FF0010CF8
:100A20004DF804CD4FEA410C7FEA6C5C4FEA430C71
:100A300018BF7FEA6C5C1BD001B050EA410C0CBFC0
:100A400052EA430C91EA030F02BF90EA020F002022
:100A5000704710F1000F91EA030F58BF994208BF89
:100A600090422CBFD8176FEAE37040F00100704746
:100A70004FEA410C7FEA6C5C02D150EA013C07D19D
:100A80004FEA430C7FEA6C5CD6D152EA033CD3D0E8
:100A90005DF8040B704700BF8446104662468C46E2
:100AA0001946634600E000BF01B5FFF7B7FF002815
:100AB00048BF10F1000F01BD4DF808EDFFF7F4FF3E
:100AC0000CBF012000205DF808FB00BF4DF808EDC9
:100AD000FFF7EAFF34BF012000205DF808FB00BFEC
:100AE0004DF808EDFFF7E0FF94BF012000205DF80E
:100AF00008FB00BF4DF808EDFFF7CEFF94BF0120C3
:100B000000205DF808FB00BF4DF808EDFFF7C4FFBB
:100B100034BF012000205DF808FB00BF4FEA41020E
:100B200012F5001215D211D56FF47873B3EB62523F
:100B300012D94FEAC12343F0004343EA505311F066
:100B4000004F23FA02F018BF404270474FF00000F8
:100B5000704750EA013005D111F0004008BF6FF036
:100B6000004070474FF00000704700BF70B59AB06A
:100B70002822002110A803F0AFF900240B940C9454
:100B80000D940E940F942C222146684603F0A4F98C
:100B9000032310934FF480331193012214921022F7
:100BA00015920225179518934FF4E013199310A886
:100BB00001F0FAFE0F230B930C950D944FF4806611
:100BC0000E960F9429460BA802F02AFA4FF40263FE
:100BD000009305944FF028430893684602F0F0FA1A
:100BE0004FF4007002F046FE304602F043FE4FF430
:100BF000006002F03FFE1AB070BD000070B52DED30
:100C0000028B90B001F098FEFFF7B0FF00F078F98A
:100C100000F000FE00F00AFA00F070FA00F0D0FADE
:100C200000F002FB00F006FC00F044FD00F09EFD29
:100C300000F034FC02F0CCFF6B4C0021204601F0A8
:100C4000C9FD0421204601F0C5FD0C21204601F01C
:100C5000C1FD664C0021204601F0BCFD0421204668
:100C600001F0B8FD0821204601F0B4FD0C2120461A
:100C700001F0B0FD5E4B1A68136843F00103136086
:100C800000215C4801F0C6FD00215B4B19705B4CF4
:100C9000204601F0ABFA4FF0FF31204601F0CEFACA
:100CA0004FF400625649204601F0F0FA96E0544BAA
:100CB00053F822301B1407EE903AF8EEE77A9FEDD6
:100CC000517A67EE877A504B03EB8203C3ED007ACB
:100CD0000132B2F5806FEAD3002002F043FF01F049
:100CE00049FE00229FED490A4FF48061464802F018
:100CF000CFFEB0EE408A01F03DFE18EE100AFFF77D
:100D00001BFC41EC100B05A9052003F09DF8404C9D
:100D1000002501950095012394E8060005A803F03D
:100D20004BF89FED3C0A88EE000A05F019FCDFED58
:100D30003A7A60EE277AFDEEE77ACDED037A039AF0
:100D400002F5FA72354981FB0230D317C3EB202339
:100D500042F6E06000FB1323034481FB0321DA1712
:100D6000C2EB212200FB123204920DF1280C2C4E12
:100D70000FCEACE80F0096E803008CE803003221A8
:100D8000284603F013F80498264E86FB0032C0175D
:100D9000C0EBA21010AB03EB4000012394E8060067
:100DA00010F8180C02F0A4FF049886FB0036C01758
:100DB000C0EBA61010AB03EB4000012394E8060043
:100DC00010F8170C02F094FF02F0DCFE0A4B1D70C5
:100DD0004FF400620A49094801F058FA064B1B78A3
:100DE000002BFBD0002274E700230020C02200204B
:100DF000402300208022002098200020B4210020E1
:100E000098100020000080B7980000209A99193EA1
:100E10000C0000200000DC4300803B46F119760501
:100E2000B0680008D34D62107047000008B5034B4E
:100E300001221A70024801F079FA08BD98200020BA
:100E4000B421002070477047FEE7FEE7FEE7FEE7AB
:100E500070477047704708B501F080FD08BD08B5C0
:100E6000082002F07FFB08BD08B5202002F07AFBC5
:100E70004FF4807002F076FB4FF4007002F072FBCA
:100E800008BD000008B5024802F02FFC08BD00BFF5
:100E9000E820002008B5024802F027FC08BD00BF8A
:100EA0002C21002008B5024802F01FFC08BD00BF3D
:100EB0007021002082B00A4B9A6942F001029A61C7
:100EC0009A6902F001020092009ADA6942F08052B7
:100ED000DA61DB6903F080530193019B02B0704734
:100EE00000100240054BD3F8882042F47002C3F88A
:100EF00088204FF000629A60704700BF00ED00E06C
:100F0000F0B58DB000240794089409940A940B94CA
:100F1000404B5A6942F400225A615A6902F4002295
:100F20000192019A5A6942F480025A615A6902F4A4
:100F300080020292029A5A6942F400325A615A6956
:100F400002F400320392039A5A6942F480225A61F1
:100F50005A6902F480220492049A5A6942F40012F7
:100F60005A615A6902F400120592059A5A6942F4CC
:100F700080125A615B6903F480130693069B4FF459
:100F8000604307930325089507A9234802F01CFA3C
:100F900048F2041307930895099407A94FF090406D
:100FA00002F012FA282307931C4F0897012609968E
:100FB00007A94FF0904002F007FA4FF440730793EF
:100FC0000897099607A9164802F0FEF94CF2383343
:100FD00007930895099407A9124802F0F5F9C02370
:100FE00007930895099407A90F4802F0EDF92246E6
:100FF0002146092002F0E6FB092002F01BFC2246F4
:101000002146172002F0DEFB172002F013FC0DB082
:10101000F0BD00BF00100240000800480000211091
:1010200000100048000400480014004808B51548A6
:10103000154B036002234360002383600122C260DA
:10104000036143618361C361036200F03CFD80B9C9
:101050004FF480510B4800F07EFE68B9002109482A
:1010600000F0A7FE58B9094A136843F480131360CF
:1010700008BDFFF7E7FEEBE7FFF7E4FEEEE7FFF75B
:10108000E1FEF0E79C2000200054004000000140F9
:1010900010B588B000230393049305930693079338
:1010A0000268134B9A4201D008B010BD114C63691D
:1010B00043F480236361636903F480230193019BFC
:1010C000C023039312230493012305930323069360
:1010D0000423079303A9084802F076F9E36943F46F
:1010E0000013E361E36903F400130293029BDBE75F
:1010F00000540040001002400004004800B585B0D4
:10110000002300930193029303932A482A4A026022
:1011100043604FF080728260C3604FF4407303619C
:101120000223C3624FF40053036300F025FF58BB52
:101130000021204801F03AF848BB4FF4005200214A
:101140001C4801F011F828BB02211A4800F0F6FFF4
:1011500018BB01221949174800F0B6FF00BB4FF039
:101160004063009300210191029103916A46114866
:1011700000F054FFB8B9002210490E4800F072FF89
:10118000A0B905B05DF804FBFFF75CFED0E7FFF700
:1011900059FED2E7FFF756FED6E7FFF753FED8E732
:1011A000FFF750FEDBE7FFF74DFEE4E7FFF74AFEEF
:1011B000E7E700BFB42100200060014040000600C6
:1011C00000B585B000230093019302930393144864
:1011D000144A026043608360C3604FF4407303614C
:1011E00000F0CAFE98B900210D4800F08FFF88B9C1
:1011F0004FF04063009300210191029103916A46F0
:10120000074800F00BFF40B905B05DF804FBFFF79D
:1012100019FEE8E7FFF716FEEAE7FFF713FEF3E72C
:10122000F82100200064014000B585B00023009340
:101230000193029303931448144A0260436083604D
:10124000C3604FF44073036100F096FE98B900212B
:101250000D4800F05BFF88B94FF040630093002118
:101260000191029103916A46074800F0D7FE40B908
:1012700005B05DF804FBFFF7E5FDE8E7FFF7E2FDE9
:10128000EAE7FFF7DFFDF3E73C22002000680140BA
:1012900030B58DB0044600230793089309930A9351
:1012A0000B930368574A934207D0574A93423BD067
:1012B000564A93426FD00DB030BD554B9A6942F0FB
:1012C00080729A619A6902F080720192019A5A6959
:1012D00042F480225A615B6903F480230293029BEB
:1012E000012307930323089307A94A4802F06CF8E7
:1012F00049484A4B03600023436083608022C260F8
:101300004FF4807202614FF48062426183614FF456
:101310000053C36102F070F918B93F4B63615C621E
:10132000C9E7FFF78FFDF8E7394B9A6942F0007281
:101330009A619A6902F000720392039A5A6942F420
:1013400080225A615B6903F480230493049B042385
:1013500007930323089307A92E4802F035F8304875
:10136000304B03600023436083608022C2604FF4EF
:10137000807202614FF48062426183614FF40053D6
:10138000C36102F039F918B9254B63615C6292E7D9
:10139000FFF758FDF8E71E4B9A6942F080629A61A8
:1013A0009A6902F080620592059A5A6942F48012A5
:1013B0005A615B6903F480130693069B4FF48075B2
:1013C00007950323089307A9174801F0FDFF174865
:1013D000174B03600023436083608022C260056175
:1013E0004FF48062426183614FF40053C36102F0A5
:1013F00003F918B90D4B63615C625CE7FFF722FDEE
:10140000F8E700BF0060014000640140006801404F
:101410000010024000040048E82000203004024090
:101420002C21002044040240000C004870210020C0
:101430005804024000B58DB02422002103A802F018
:101440004BFD0023019302931248134A026043604C
:1014500083604FF6FF72C2600361836101230393CF
:101460000222049205930892099303A901F024F83B
:1014700050B900230193029301A9064801F00CFA28
:1014800028B90DB05DF804FBFFF7DCFCF1E7FFF7CE
:10149000D9FCF6E7402300200008004000B589B0E1
:1014A00000230193029303930493059306930793F8
:1014B0001448154A02604360836040F6C902C26066
:1014C0000361836100F0C4FF90B90E4800F0DAFFB9
:1014D00088B96023019301230293002203920592AD
:1014E00001A9084801F0FAF840B909B05DF804FB19
:1014F000FFF7A8FCE9E7FFF7A5FCEAE7FFF7A2FC86
:10150000F3E700BF80220020001C004082B0036887
:10151000B3F1804F04D00E4A93420DD002B0704711
:1015200003F50433DA6942F00102DA61DB6903F0A2
:1015300001030093009BF1E7064BDA6942F00202D7
:10154000DA61DB6903F002030193019BE6E700BF68
:10155000000400400010024000B589B0002303934E
:1015600004930593069307930268144B9A4202D0A2
:1015700009B05DF804FB03F50233DA6942F00402B6
:10158000DA61DA6902F004020192019A5A6942F4BE
:1015900000325A615B6903F400330293029B4FF4FB
:1015A000C053039302230493012305930A23079353
:1015B00003A94FF0904001F007FFD9E70008004071
:1015C0000268094B9A4200D0704782B003F5FA33A3
:1015D000DA6942F08002DA61DB6903F0800301938B
:1015E000019B02B0704700BF001C004010B588B0DE
:1015F0000023039304930593069307930368B3F1C1
:10160000804F04D0284A934226D008B010BD03F57D
:1016100004335A6942F400325A615B6903F40033BF
:101620000093009B03230393022404940123079354
:1016300003A94FF0904001F0C7FE4FF4C06303933D
:1016400004940023059306930A23079303A94FF0FC
:10165000904001F0B9FED8E7144B5A6942F40032C9
:101660005A615A6902F400320192019A5A6942F4AD
:1016700080225A615B6903F480230293029B50230A
:10168000039302240494079403A94FF0904001F0BF
:101690009BFE03940494002305930693079403A9E7
:1016A000034801F091FEB0E7000400400010024042
:1016B0000004004800B58BB0002308930993019300
:1016C00002930393049305930693079326484FF0E0
:1016D000804202604FF47A7242608360FF22C260EF
:1016E0000361836100F0CEFE58BB00230893099389
:1016F00008A91D4801F0D0F830BB602301930022F7
:1017000002920392059201A9174800F0E7FFF0B991
:1017100004220DEB0201144800F0E0FFD0B90822CA
:1017200001A9114800F0DAFFB8B90C2201A90E484E
:1017300000F0D4FFA0B90C48FFF758FF0BB05DF8DC
:1017400004FBFFF77FFBD0E7FFF77CFBD5E7FFF754
:1017500079FBDDE7FFF776FBE1E7FFF773FBE4E7F3
:10176000FFF770FBE7E700BFC022002000B58BB099
:101770000023089309930193029303930493059321
:10178000069307932148224A02604FF47A7242601E
:101790008360FF22C2600361836100F073FE28BB97
:1017A00000230893099308A9184801F075F800BBB5
:1017B00060230193002202920392059201A913482B
:1017C00000F08CFFC0B904220DEB02010F4800F0BD
:1017D00085FFA0B90C2201A90C4800F07FFF88B951
:1017E0000A48FFF703FF0BB05DF804FBFFF72AFB85
:1017F000D6E7FFF727FBDBE7FFF724FBE3E7FFF77D
:1018000021FBE7E7FFF71EFBEAE700BF002300200C
:101810000004004000B583B0124B5A6942F0020246
:101820005A615B6903F002030193019B0022114698
:101830003A2001F0C7FF3A2001F0FCFF00221146D8
:101840003B2001F0BFFF3B2001F0F4FF00221146D6
:101850003C2001F0B7FF3C2001F0ECFF03B05DF845
:1018600004FB00BF0010024003689A6912F0020FE7
:1018700001D000229A6203689A6912F0010F03D125
:101880009A6942F001029A61704730B4029D04687F
:1018900060684FEA555C0CF4806C4CF07F7C4CF433
:1018A000583C4CF47F7C4CF0030C20EA0C00C1F354
:1018B000090141EA0241194329430143616030BCF7
:1018C0007047F8B505460E46174603689B6913F046
:1018D000100F01D10020F8BD2B689C6914F0200F77
:1018E00012D1B6F1FF3FF7D026B101F043F8C01B8B
:1018F000B042F1D9202385F84130002385F84230E9
:1019000085F840300320E6E71022DA612B682024B6
:10191000DC612846FFF7A8FF2A68536823F0FF73AD
:1019200023F48B3323F4FF7323F001035360042368
:101930006B6485F84140002385F8423085F84030DB
:101940000120C8E770B504460D46164623689B691A
:1019500013F0020F1CD1324629462046FFF7B1FF93
:10196000C0B9B5F1FF3FF1D025B101F003F8801BFC
:10197000A842EBD9636C43F020036364202384F80E
:101980004130002384F8423084F84030032000E0E6
:10199000002070BD0120FCE72DE9F0410646884695
:1019A00017461D463468A46938EA04030CBF4FF09B
:1019B000010C4FF0000CBC4513D1B5F1FF3FF1D045
:1019C0002DB100F0D7FF069BC01AA842EAD9202308
:1019D00086F84130002386F8423086F840300320F4
:1019E00000E00020BDE8F0812DE9F04182B004461E
:1019F00090461D46089E099F1E4B00934FF0807332
:101A0000EAB2FFF742FF3A4631462046FFF79AFF17
:101A100030B1636C042B01D003200FE001200DE0F6
:101A2000012D0ED123685FFA88F29A62009733463F
:101A3000002280212046FFF7AFFFC0B902B0BDE809
:101A4000F08123684FEA18229A623A4631462046CE
:101A5000FFF778FF30B1636C042B01D00320EDE772
:101A60000120EBE723685FFA88F29A62DEE7032041
:101A7000E4E700BF0020008070B505460C4616461E
:101A80002B689B6913F0200F19D132462146284656
:101A9000FFF717FFA8B924B100F06CFF801BA0422C
:101AA000EED96B6C43F020036B64202385F8413042
:101AB000002385F8423085F84030032070BD0020B7
:101AC000FCE70120FAE7002859D010B5044690F849
:101AD0004130002B43D0242384F84130226813681E
:101AE00023F0010313606368226823F070631361BD
:101AF0002268936823F400439360E368012B33D09A
:101B0000A368226843F404439360E368022B31D056
:101B10002268536843F0007343F400435360226823
:101B2000D36823F40043D360236962691343A16936
:101B3000226843EA0123D360E369216A22680B43E8
:101B400013602268136843F001031360002060648F
:101B5000202384F84130206384F8420010BD80F8CF
:101B60004030FFF795FAB6E7A368226843F40043D4
:101B70009360CAE723684FF400625A60C8E7012007
:101B800070472DE9F04F83B00D46BDF834A00E9F8D
:101B900090F84110C9B2202940F0CF800446904609
:101BA00099460C9B002B00F0CC80BAF1000F00F09E
:101BB000CA8090F84030012B00F0C7804FF0010B35
:101BC00080F840B000F0D6FE0646009019235A4631
:101BD0004FF400412046FFF7DFFE002840F0B780B9
:101BE000212384F84130402384F842300023636489
:101BF0000C9A6262A4F82AA06363019600974B4690
:101C0000424629462046FFF7EFFE60B1636C042B85
:101C100004D0002384F8403003208FE0002384F8B0
:101C2000403058468AE0638D9BB2FF2B0AD9FF22D1
:101C30002285002300934FF0807329462046FFF74A
:101C400024FE23E0628D92B22285002300934FF0A0
:101C50000073D2B229462046FFF717FE16E0636CE8
:101C6000042B01D0032069E0012067E0628D92B26D
:101C70002285002300934FF00073D2B229462046FC
:101C8000FFF703FE638D9BB2002B33D032463946FB
:101C90002046FFF757FE0028E1D1636A5A1C6262B2
:101CA00022681B789362638D9BB2013B9BB2638574
:101CB000238D013B9BB22385002BE3D1638D9BB227
:101CC000002BDFD000963B46002280212046FFF704
:101CD00063FE00283DD1638D9BB2FF2BC6D9FF2246
:101CE0002285002300934FF0807329462046FFF79A
:101CF000CCFDC7E7324639462046FFF7BDFE30B17E
:101D0000636C042B01D0032018E0012016E0236847
:101D10002022DA6121684B6823F0FF7323F48B33B0
:101D200023F4FF7323F001034B6084F84120002368
:101D300084F8423084F8403000E0022003B0BDE86F
:101D4000F08F0120FAE70120F8E70220F6E70320F0
:101D5000F4E70320F2E790F84130DBB2202B24D1E6
:101D600090F84030012B22D0012380F8403024230A
:101D700080F841300268136823F0010313600268A1
:101D8000136823F4805313600268136819431160C9
:101D90000268136843F001031360202380F8413088
:101DA000002380F840301846704702207047022018
:101DB000704790F84130DBB2202B22D190F84030B0
:101DC000012B20D0012380F84030242380F84130BB
:101DD0000268136823F0010313600268136823F498
:101DE000706343EA012111600268136843F0010344
:101DF0001360202380F84130002380F840301846DB
:101E0000704702207047022070470268136823F071
:101E100000431360704782B20023184601E0520865
:101E20000133082B04D812F0010FF8D00130F6E787
:101E3000704738B504460268136843F000431360E6
:101E400000F098FD054623689B68002B06DB00F038
:101E500091FD401BC828F6D9032000E0002038BDC2
:101E600010B50446036A4362C36A6BB902685368DB
:101E700043F40043536094F83C30012B1ED00523FB
:101E800084F83C30002010BDFFF7D3FF58B9E36A57
:101E9000012B0DD022685368216B0B435360204601
:101EA000FFF7B3FFE7E7FF2384F83C300320EAE7BE
:101EB0002268136843F480431360F0E70423DFE7EC
:101EC00030B583B00446C369012B12D000F052FD37
:101ED000054623689B6813F4005F13D000F04AFDA9
:101EE000401BC828F5D9FF2384F83C30032003B0F9
:101EF00030BD03681A6E0192019A5A6822F02002DE
:101F00005A60E3E7E36A9BB9E369012B2BD02368AE
:101F10001A6E0192019ADA6842F00402DA6094F8CB
:101F20003C30042B25D0032384F83C300020DEE72E
:101F30002046FFF77EFF58B9E36A012B0DD02268D7
:101F4000536823F4C04353602046FFF75EFFDBE78E
:101F5000FF2384F83C300320C9E72268136823F488
:101F600080431360F0E72268536843F02003536016
:101F7000CDE70123D8E7000000284AD010B5044679
:101F800000238361C3610122026242628362C362F1
:101F90004FF400520263436383630364FFF778F9ED
:101FA0002268136823F4E053136021680B686268A9
:101FB000E068024313430B602268536823F0807388
:101FC000536022685368A1680B435360124B1B682F
:101FD00003F44073226993420ED12268536843F0A0
:101FE0000103536023689B6813F4004FFAD1012367
:101FF00084F83C30002010BD074B1A6822F4407270
:102000001A601A6821690A431A60022000F0B8FCBD
:10201000E3E70120704700BF00600140F8B590F889
:102020003C30012B02D001263046F8BD04460D4657
:102030001746FFF7FEFE064620B1FF2384F83C302A
:102040000326F1E7216801EB85013B687A681343B9
:10205000BA681343FA6813430B622046FFF7D5FEB4
:10206000E2E70000F8B590F83C30012B02D00126E1
:102070003046F8BD04460D461746FFF7DAFE064621
:10208000B8B9104B9D4219D02D0C2068036CAD00DF
:1020900005F01F0103228A4023EA02030364226839
:1020A000136C07FA01F1194311642046FFF7ADFEE6
:1020B000DEE7FF2384F83C300326D9E723685F641A
:1020C000F3E700BF0001080010B5044690F83C306B
:1020D000013BDBB2FD2B16D80846236889B2596153
:1020E000012A0AD021684B6823F020034B60E2618B
:1020F000FFF791FE2062002010BD21684B6843F07D
:1021000020034B60F3E70120F6E7000002680A4B6A
:102110009A4209D090F83C20531EDBB2012B07D91C
:10212000042A05D0012070470129F3D1012070470E
:1021300081620020704700BF006001400268094BC7
:102140009A4208D090F83C30013BDBB2022B06D813
:10215000C162002070470129F4D10120704701209D
:10216000704700BF00600140F8B590F83C30012B8B
:1021700002D001252846F8BD04460F461646FFF753
:1021800058FE054620B1FF2384F83C300325F1E7D3
:102190002268536823F47063536023685968394395
:1021A000596026632046FFF730FEE3E770B590F8EC
:1021B0003C30012B02D00125284670BD04460E4656
:1021C000FFF737FE054620B1FF2384F83C30032596
:1021D000F2E72268536823F040035360236859688C
:1021E000314359602046FFF710FEE5E770B590F8DF
:1021F0003C30012B02D00126304670BD04460D460E
:10220000FFF717FE064620B1FF2384F83C30032673
:10221000F2E72268536823F0060353602368596885
:10222000294359602046FFF7F0FD2268536843F0C8
:1022300010035360022384F83C30DDE790F83C3013
:10224000022B01D00120704770B504460D4600F006
:1022500091FB064623689A6812F0010F0BD1B5F185
:10226000FF3FF7D000F086FB801BA8420CD8002D62
:10227000F0D1032007E0DA6842F00102DA600123BE
:1022800084F83C30002070BD0320FCE710B5044604
:102290000068006810F4003F3CD1E36A3BB9E06994
:1022A00028B96069806910B9206A904234D32BB98B
:1022B000E3691BB963699B69202B2FD094F83C30EC
:1022C000012B03D0032B01D0012024E063691448C3
:1022D000986263691348186363699869202812D06B
:1022E0002068036843F480330360206813460A467D
:1022F00000F16001606901F0A7F938B1FF2384F8AB
:102300003C30012007E00848D862E9E72046FFF7A3
:10231000A7FD00E0012010BD0120FCE70120FAE745
:10232000712300087D2300086723000890F83C30E3
:10233000043BDBB2012B01D90120704710B50446E4
:102340000268136823F480331360406901F0B6F922
:1023500020B1FF2384F83C30012010BD2046FFF758
:10236000AFFDFAE7704708B5406AFFF7FBFF08BD0D
:1023700008B5406AFEF75AFD08BD704708B5406AC7
:1023800003230364FFF7F9FF08BD00000368B0F101
:10239000804F0ED02C4A90420BD002F580629042C2
:1023A00007D002F58062904203D002F5A832904235
:1023B00003D123F070034A681343B0F1804F26D055
:1023C000214A904223D002F5806290421FD002F54C
:1023D000806290421BD002F54062904217D002F515
:1023E0008062904213D002F5806290420FD002F5D5
:1023F000903290420BD002F58062904207D002F5F5
:102400008062904203D002F5A052904203D123F49F
:102410004073CA68134323F080034A69134303607F
:102420008B68C3620B688362084B984207D003F540
:102430008063984203D003F58063984201D10B6911
:1024400003630123436170470004004000400140E2
:10245000B0B110B5044690F83D3063B1022384F862
:102460003D30214651F8040BFFF790FF012384F81B
:102470003D30002010BD80F83C30FFF7A1F8EDE7BB
:1024800001207047B0B110B5044690F83D3063B1FB
:10249000022384F83D30214651F8040BFFF776FF04
:1024A000012384F83D30002010BD80F83C30FFF758
:1024B0002DF8EDE70120704700284AD0F8B50C460A
:1024C000054690F83D30002B3ED0022385F83D3084
:1024D0002A68936823F007039360294651F8040B98
:1024E000FFF754FF29688A688B690E6A20681043D9
:1024F00023F4407C2CF0030CA268A36942EA032376
:1025000043EA0C0323F47C4323F0FC03E269E7680D
:1025100047EA022C4CEA030C226A1303226943EABD
:10252000021343EA0C0326F0AA066268646942EAD1
:1025300004123243886029688B612B681A62012378
:1025400085F83D300020F8BD80F83C30FFF704F8F6
:10255000BBE701207047000030B4036A23F0010399
:102560000362036A4568826922F073020C682243A1
:1025700023F002038C682343154CA04207D004F5D6
:102580008064A04203D004F58064A04205D123F00A
:102590000803CC68234323F004030D4CA04207D06A
:1025A00004F58064A04203D004F58064A04207D102
:1025B00025F4407C4C6944EA0C0C8D6945EA0C0515
:1025C000456082614A684263036230BC704700BF65
:1025D0000040014030B4036A23F010030362036A31
:1025E0004468826922F4E6420D6842EA052223F03B
:1025F00020038D6843EA05130C4DA84207D005F56A
:102600008065A84203D005F58065A84207D124F46F
:1026100080644D6944EA85048D6944EA8504446018
:1026200082614A688263036230BC704700400140A7
:1026300030B4036A23F480730362036A4268C46996
:1026400024F073040D682C4323F400738D6843EA6F
:1026500005230C4DA84207D005F58065A84203D09C
:1026600005F58065A84205D14D6942EA05128D69DC
:1026700042EA05124260C4614A68C263036230BC28
:10268000704700BF0040014030B4036A23F4805318
:102690000362036A4468C26922F4E6420D6842EAB2
:1026A000052223F400538D6843EA05330A4DA842FE
:1026B00007D005F58065A84203D005F58065A842DE
:1026C00002D14D6944EA85144460C2614A680264DB
:1026D000036230BC704700BF0040014038B590F83D
:1026E0003C30012B66D004460D46012380F83C3077
:1026F000022380F83D300C2A1AD8DFE802F00719CF
:102700001919201919193419191947000068FFF708
:1027100023FF2268936943F0080393612268936959
:1027200023F0040393612268936929690B43936141
:10273000012384F83D30002084F83C0038BD006857
:10274000FFF748FF2268936943F4006393612268AE
:10275000936923F48063936122689369296943EA4A
:1027600001239361E4E70068FFF762FF2268D36901
:1027700043F00803D3612268D36923F00403D361D3
:102780002268D36929690B43D361D1E70068FFF759
:102790007BFF2268D36943F40063D3612268D36965
:1027A00023F48063D3612268D369296943EA012352
:1027B000D361BDE70220C1E7012303FA01FC036AEC
:1027C00023EA0C030362036A02FA01F10B4303627A
:1027D0007047000010B5044601220068FFF7ECFFC7
:1027E00023680B4A934207D002F58062934203D0DC
:1027F00002F58062934203D15A6C42F400425A645B
:102800002268136843F001031360002010BD00BF6D
:102810000040014010B504460C290DD8DFE801F056
:10282000070C0C0C270C0C0C2D0C0C0C3300026844
:10283000D36843F00203D36001222068FFF7BCFF96
:102840002368144A934207D002F58062934203D072
:1028500002F58062934203D15A6C42F400425A64FA
:102860002268136843F001031360002010BD026862
:10287000D36843F00403D360DEE70268D36843F013
:102880000803D360D8E70268D36843F01003D3602D
:10289000D2E700BF0040014090F83C30012B22D02D
:1028A00030B4012280F83C20022380F83D300468D7
:1028B000636823F070036360046863680D682B43EA
:1028C00063600468A36823F08003A3600468A368BE
:1028D00049680B43A36080F83D20002380F83C301A
:1028E000184630BC704702207047000010B50446FF
:1028F0000E4B18784FF47A73B3FBF0F30C4A106860
:10290000B0FBF3F000F0A2FF68B90F2C01D9012051
:102910000AE0002221464FF0FF3000F053FF054B44
:102920001C60002000E0012010BD00BF040000205A
:10293000000000200800002008B5074A136843F093
:1029400010031360032000F02BFF0020FFF7CEFFE1
:10295000FEF7B0FA002008BD00200240034A1168CB
:10296000034B1B780B441360704700BF802300208B
:1029700004000020014B1868704700BF802300202E
:1029800038B50446FFF7F6FF0546B4F1FF3F02D025
:10299000044B1B781C44FFF7EDFF401BA042FAD309
:1029A00038BD00BF04000020002800F0F18270B59F
:1029B00082B00446036813F0010F3BD0B54B5B684F
:1029C00003F00C03042B1ED0B24B5B6803F00C0326
:1029D000082B13D06368B3F5803F68D0002B40F01C
:1029E000928003F1804303F504331A6822F48032A5
:1029F0001A601A6822F480221A605DE0A54B5B68B9
:102A000013F4803FE6D04FF4003393FAA3F3A14BC5
:102A100019684FF4003393FAA3F3B3FA83F303F086
:102A20001F03012202FA03F30B4203D06368002B59
:102A300000F0B082236813F0020F00F0C580954BC0
:102A40005B6813F00C0F00F09C80924B5B6803F006
:102A50000C03082B00F08F802369002B00F0F2801C
:102A6000012292FAA2F3B3FA83F303F1845303F53C
:102A700084139B001A60FFF77DFF0546022393FA3B
:102A8000A3F3844B1968022393FAA3F3B3FA83F3F5
:102A900003F01F03012202FA03F30B4240F0C3804C
:102AA000FFF768FF401B0228E8D903207BE2794A40
:102AB000136843F480331360764AD36A23F00F031C
:102AC000A1680B43D3626368002B36D0FFF752FF37
:102AD00005464FF4003393FAA3F36E4B19684FF495
:102AE000003393FAA3F3B3FA83F303F01F03012235
:102AF00002FA03F30B429DD1FFF73CFF401B642811
:102B0000E7D903204FE2B3F5A02F09D0614B1A6833
:102B100022F480321A601A6822F480221A60CBE70D
:102B200003F18043A3F53C331A6842F480221A6013
:102B30001A6842F480321A60BEE7FFF71BFF0546B1
:102B40004FF4003393FAA3F3524B19684FF4003358
:102B500093FAA3F3B3FA83F303F01F03012202FAFB
:102B600003F30B423FF466AFFFF704FF401B6428FA
:102B7000E6D9032017E2474B5B6813F4803F7FF4EC
:102B80006BAF022393FAA3F3424B1968022393FA23
:102B9000A3F3B3FA83F303F01F03012202FA03F352
:102BA0000B4203D02369934240F0F6813948036811
:102BB00023F0F8036169F82292FAA2F2B2FA82F2E3
:102BC00001FA02F213430360236813F0080F00F0C8
:102BD0008D80A369002B61D0012191FAA1F2B2FA94
:102BE00082F22D4B13449B001960FFF7C3FE05468C
:102BF000022393FAA3F293FAA3F293FAA3F2254ADB
:102C0000516A93FAA3F3B3FA83F303F01F0301228B
:102C100002FA03F30B4269D1FFF7ACFE401B022816
:102C2000E6D90320BFE11B48036823F0F80361697C
:102C3000F82292FAA2F2B2FA82F201FA02F21343F5
:102C40000360C1E7012393FAA3F3B3FA83F303F11B
:102C5000845303F584139B0000221A60FFF78AFE59
:102C60000546022393FAA3F30A4B1968022393FA49
:102C7000A3F3B3FA83F303F01F03012202FA03F371
:102C80000B42A1D0FFF776FE401B0228E9D90320B2
:102C900089E100BF0010024020819010012292FAC9
:102CA000A2F2B2FA82F2B74B13449B0000221A60E0
:102CB000FFF760FE0546022393FAA3F293FAA3F20C
:102CC00093FAA3F2B04A516A93FAA3F3B3FA83F3E7
:102CD00003F01F03012202FA03F30B4206D0FFF7B1
:102CE00049FE401B0228E6D903205CE1236813F06B
:102CF000040F00F0A980A44BDB6913F0805F20D1A2
:102D0000A14BDA6942F08052DA61DB6903F080534B
:102D10000193019B01259D4B1B6813F4807F12D00A
:102D2000E368012B23D073BB03F1804303F5043325
:102D30001A6A22F001021A621A6A22F004021A6266
:102D40001AE00025E7E7914A136843F480731360A3
:102D5000FFF710FE06468D4B1B6813F4807FDFD112
:102D6000FFF708FE801B6428F5D903201BE1864A83
:102D7000136A43F001031362E368002B3CD0FFF7B2
:102D8000F9FD06462BE0052B09D07F4B1A6A22F08D
:102D900001021A621A6A22F004021A62ECE77A4B04
:102DA0001A6A42F004021A621A6A42F001021A62B6
:102DB000E2E7754B196A022393FAA3F3B3FA83F39C
:102DC00003F01F03012202FA03F319423BD1FFF77C
:102DD000D1FD801B41F28833984200F2DF8002234C
:102DE00093FAA3F293FAA3F3002BE2D1022393FA0E
:102DF000A3F3654B596ADEE7FFF7BCFD064615E015
:102E0000614B196A022393FAA3F3B3FA83F303F035
:102E10001F03012202FA03F3194214D0FFF7AAFD9F
:102E2000801B41F28833984200F2BA80022393FA61
:102E3000A3F293FAA3F3002BE2D1022393FAA3F3B4
:102E4000514B596ADEE7B5BBE369002B00F0AA805D
:102E50004D4A526802F00C02082A00F0A680022BAC
:102E60002FD04FF0807393FAA3F3B3FA83F303F1F7
:102E7000845303F584139B0000221A60FFF77AFD48
:102E800004464FF0007393FAA3F33F4B19684FF0D9
:102E9000007393FAA3F3B3FA83F303F01F03012241
:102EA00002FA03F319426BD0FFF764FD001B0228FE
:102EB000E7D9032077E0344AD36923F08053D36104
:102EC000C2E74FF0807393FAA3F3B3FA83F303F1ED
:102ED000845303F584139B0000221A60FFF74AFD18
:102EE00005464FF0007393FAA3F3274B19684FF090
:102EF000007393FAA3F3B3FA83F303F01F030122E1
:102F000002FA03F3194206D0FFF734FD401B0228F2
:102F1000E7D9032047E01C494B6823F47413626A25
:102F2000206A024313434B604FF0807393FAA3F37C
:102F3000B3FA83F303F1845303F584139B00012256
:102F40001A60FFF717FD04464FF0007393FAA3F3DE
:102F50000D4B19684FF0007393FAA3F3B3FA83F3A0
:102F600003F01F03012202FA03F3194206D1FFF70F
:102F700001FD001B0228E7D9032014E0002012E025
:102F8000002010E0208190100010024000700040EE
:102F900001207047012006E0012004E0032002E048
:102FA000032000E0002002B070BD0120FBE700BF5D
:102FB000164B5B6803F00C02082A01D014487047D6
:102FC00003F470114FF4701292FAA2F2B2FA82F284
:102FD00021FA02F20F49885C0C4AD26A02F00F0211
:102FE0000F2191FAA1F1B1FA81F1CA400A498A5C34
:102FF00013F4803F05D0064BB3FBF2F303FB00F064
:103000007047064B03FB00F0704700BF0010024002
:1030100000127A00D8680008E868000800093D003E
:10302000002800F0BD8070B50D460446604B1B685B
:1030300003F007038B420BD25D4A136823F00703AA
:103040000B431360136803F007038B4240F0AA8020
:10305000236813F0020F06D0564A536823F0F0039A
:10306000A1680B435360236813F0010F5AD06368C3
:10307000012B2DD0022B40D0022292FAA2F24D4A0F
:103080001068022292FAA2F2B2FA82F202F01F0251
:10309000012101FA02F2104200F0868045494A6897
:1030A00022F0030213434B60FFF764FC0646414BDA
:1030B0005B6803F00C036268B3EB820F32D0FFF75A
:1030C00059FC801B41F288339842F0D9032066E016
:1030D0004FF4003292FAA2F2364A10684FF40032EE
:1030E00092FAA2F2B2FA82F202F01F02012101FA70
:1030F00002F20242D2D1012051E04FF0007292FA66
:10310000A2F22C4A10684FF0007292FAA2F2B2FAC0
:1031100082F202F01F02012101FA02F21042BDD137
:1031200001203CE0224B1B6803F00703AB420AD9A5
:103130001F4A136823F007032B431360136803F03F
:103140000703AB4232D1236813F0040F06D0194AAB
:10315000536823F4E063E1680B435360236813F082
:10316000080F07D0134A536823F46053216943EAD8
:10317000C1035360FFF71CFF0E4B5B6803F0F003C5
:10318000F02292FAA2F2B2FA82F2D3400A4AD35C57
:10319000D8400A4B18600020FFF7A8FB002070BD44
:1031A000012070470120FAE70120F8E70120F6E747
:1031B0000020024000100240C86800080000002003
:1031C000F0B583B00446036813F4803F48D07B4BCE
:1031D000DB6913F0805F40F0A880784BDA6942F039
:1031E0008052DA61DB6903F080530193019B012572
:1031F000734B1B6813F4807F00F099806F4B1B6A40
:1032000013F4407322D0626802F440729A421DD0D7
:103210006A48016A21F440764FF4803393FAA3F2AE
:10322000B2FA82F2674F3A4492004FF0010CC2F8B2
:1032300000C093FAA3F3B3FA83F33B449B0000224C
:103240001A60066211F0010F40F086805B4A136A33
:1032500023F4407361680B431362002D40F0A38098
:10326000236813F0010F06D0544A136B23F00303B5
:10327000A1680B431363236813F0020F06D04F4A73
:10328000136B23F44033E1680B431363236813F09B
:10329000040F06D0494A136B23F4402321690B43E2
:1032A0001363236813F0200F06D0444A136B23F0F6
:1032B000100361690B431363236813F4003F06D0C6
:1032C0003E4A536823F48003A16A0B43536023688A
:1032D00013F0400F06D0394A136B23F02003A16985
:1032E0000B431363236813F0800F06D0334A5368EF
:1032F00023F44043E1690B435360236813F4006FE8
:1033000006D02E4A536823F07843216A0B4353605A
:10331000236813F4806F4DD0284A136B23F04003C9
:10332000616A0B431363002045E0002560E7244AEF
:10333000136843F480731360FFF71CFB0646204BB1
:103340001B6813F4807F7FF459AFFFF713FB801BDA
:103350006428F4D903202EE0FFF70CFB064615E0A5
:10336000164B196A022393FAA3F3B3FA83F303F01B
:103370001F03012202FA03F30B427FF467AFFFF74A
:10338000F9FA801B41F28833984211D8022393FA4C
:10339000A3F293FAA3F3002BE2D1022393FAA3F34F
:1033A000064B596ADEE7D36923F08053D36157E7B0
:1033B000032000E0002003B0F0BD00BF0010024079
:1033C0000070004000819010F0B583B0002236E01C
:1033D000042400E00024B4403C4302355D4E46F82E
:1033E00025405D4C2568DC4325EA03064F6817F449
:1033F000803F01D043EA0506574D2E606D6804EA10
:1034000005064F6817F4003F01D043EA0506524D08
:103410006E60AD6804EA05064F6817F4801F01D09E
:1034200043EA05064C4DAE60ED682C404E6816F43C
:10343000001F01D043EA0504474BDC6001320B68F2
:1034400033FA02F400F083804FF0010C0CFA02FC16
:103450001CEA0303F2D04C68022C01D0122C10D1CC
:10346000D508083550F8257002F00704A6000F248F
:10347000B44027EA040E0C69B44044EA0E0440F854
:10348000254005684FEA420E032404FA0EF4E64391
:1034900025EA04054C6804F0030404FA0EF42C43F6
:1034A00004604C68651E012D03D9112C01D0122C2B
:1034B00010D185683540CC6804FA0EF42C43846042
:1034C000456825EA0C0C4D68C5F30015954045EAA2
:1034D0000C054560C46826408C6804FA0EF4344339
:1034E000C4604C6814F0805FA8D01C4CA56945F0FE
:1034F0000105A561A46904F001040194019C9508EB
:10350000AE1C144C54F8267002F00304A6000F24DD
:10351000B44027EA0407B0F1904F3FF45BAF104C82
:10352000A0420ED004F58064A0420CD004F5806463
:10353000A0420AD004F58064A0423FF449AF0524BC
:1035400049E7012447E7022445E7032443E703B0A2
:10355000F0BD00BF00000140000401400010024027
:103560000004004808B5054B5B69034200D108BD63
:10357000024B5861FDF758FCF9E700BF0004014019
:1035800030B40124056CAC40C56B6C6004686360AA
:103590004368102B05D0036899600368DA6030BC7B
:1035A000704703689A600368D960F8E702680C4BBB
:1035B0009A420AD80B4B13440B4AA2FB03231B0964
:1035C0009B000364094BC3637047094B1344064ACD
:1035D000A2FB03231B099B000364064BC3637047D4
:1035E00007040240F8FFFDBFCDCCCCCC0000024068
:1035F000F8FBFDBF0004024020B310B504460223CF
:1036000080F8213001680A6822F47F5222F03002EB
:10361000436880680343E0680343206903436069AB
:103620000343A0690343E069034313430B6020464F
:10363000FFF7BCFF0020A063012384F8213084F849
:10364000200010BD0120704738B5044690F82000D6
:10365000012831D0012084F8200094F821000128AD
:1036600004D0002384F82030022038BD022084F8E2
:1036700021000020A0632568286820F00100286050
:103680002046FFF77DFFE36A5BB12268136843F0D1
:103690000E0313602268136843F0010313600020D7
:1036A000E3E72268136843F00A0313602268136893
:1036B00023F004031360EDE70220D6E70346016818
:1036C0000A6822F00E020A6001680A6822F001020C
:1036D0000A60026CC06B012101FA02F2426083F8B9
:1036E0002110002083F82000704738B5C36B1A689A
:1036F00004682568016C04238B40134213D015F035
:10370000040F10D0236813F0200F03D1236823F097
:1037100004032360016CC26B04238B405360C36AB3
:1037200003B1984738BD02238B4013421AD015F0DD
:10373000020F17D0236813F0200F06D1236823F05F
:103740000A032360012380F82130016CC26B02233D
:103750008B405360002380F82030836A002BE1D037
:103760009847DFE7082303FA01F11142DAD015F098
:10377000080FD7D0236823F00E032360026CC16BBF
:10378000012303FA02F24A60836380F821300023A8
:1037900080F82030036B002BC4D09847C2E70000AC
:1037A000074AD36823F4E0631B041B0C000200F4F7
:1037B000E060034343F0BF6343F40033D3607047DA
:1037C00000ED00E000B5194BDB68C3F30223C3F141
:1037D000070CBCF1040F28BF4FF0040C03F1040EDA
:1037E000BEF1060F18D9033B4FF0FF3E0EFA0CFC5A
:1037F00021EA0C0199400EFA03F322EA030319436C
:1038000000280BDB0901C9B200F1604000F56140FE
:1038100080F800135DF804FB0023E5E700F00F00DB
:103820000901C9B2024B1954F4E700BF00ED00E0F2
:1038300014ED00E000F01F02400901239340024A0A
:1038400042F82030704700BF00E100E00138B0F1DD
:10385000807F0BD24FF0E0235861054AF02182F8B7
:1038600023100020986107221A61704701207047D9
:1038700000ED00E082B0084AD16941F08051D16189
:10388000D26902F080520192019B044A13680343FB
:10389000136002B0704700BF00100240007000408B
:1038A00010B500241BE001EB8302D2ED007A03EB9C
:1038B0000C0201EB820292ED007A77EEC77A67EE96
:1038C000A77A00EB8C0292ED017A77EE277AC2EDAF
:1038D000017A01331BB29E45E5DC013424B2B0F914
:1038E00002E0A64506DDA44600EB840300225A60F0
:1038F0000023F0E710BD00004FF07E5343609FEDC2
:103900000D7A012311E000EB8302D2ED017A37EE4C
:10391000277A06EE903AB8EEE66AC6EE076A67EED8
:10392000A67AC2ED017A01331BB2B0F902209A42A5
:10393000E9DC7047000000000346022030E001305F
:1039400000B28446411C91420CDA03EB810191EDF7
:10395000017A03EB8001D1ED017AB4EEE77AF1EE62
:1039600010FAECD403EB8C0C9CED017AF7EE007AA4
:1039700077EEC77A03F60401C1ED007A824221D0C6
:1039800003EB800292ED017A03F60802D2ED007A91
:10399000B4EEE77AF1EE10FA14DA7047013000B2B3
:1039A000B3F902208242E9DD03EB800191ED017A57
:1039B00003F60801D1ED007AB4EEE77AF1EE10FAE1
:1039C000ECD5BEE703F6040300221A604FF0FF3087
:1039D000E3E700292ADD4B1E1BB24A1CB0F902C0E6
:1039E000624525DA12B28B4224D08A4239D000EBEC
:1039F0008303D3ED016A00EB810393ED017A00EBC1
:103A00008200D0ED017A06EE101AB8EEC60A37EE43
:103A1000E66A37EE077A77EE677A77EEE67A77EE40
:103A2000A77A86EE277A30EE070A70470B46D4E76E
:103A30000A46D8E700EB810393ED017A00EB8200A0
:103A4000D0ED017AB4EEE77AF1EE10FA04D807EE81
:103A5000901AB8EEE70A704707EE902AB8EEE70A28
:103A6000704700EB810292ED017A00EB8300D0ED0C
:103A7000017AB4EEE77AF1EE10FA04D807EE901A64
:103A8000B8EEE70A704707EE903AB8EEE70A7047DB
:103A9000B1F5806F02D9BFEE000A704710B582B051
:103AA000194C21804908618004F6040300221A6041
:103AB00004F6080383ED000A4FF6FF73ADF80630F5
:103AC00001462046FFF7ECFE2046FFF715FF204693
:103AD000FFF732FFADF80600BDF806301BB2B3F1B8
:103AE000FF3F0DD0BDF8061009B22046FFF771FF69
:103AF000F0EE407A9FED057A87EE270A02B010BDFE
:103B0000BFEE000AFAE700BF842300200050C3463E
:103B100000B587B08DF817004FF0FF3302930123F3
:103B200001930DF117020092002278210248FEF75E
:103B300028F807B05DF804FB9C20002000B585B094
:103B40004FF0FF33029389B201910090012340228C
:103B500078210348FEF715F805B05DF804FB00BFB7
:103B60009C200020002303E0FF21054AD1540133AB
:103B7000B3F5806F03D20028F6D10146F5E7704710
:103B8000982B002070B582B000241AE0A4F15000F8
:103B9000C0B28DF8040000268DF8056010258DF860
:103BA0000650FFF7B5FF3046FFF7B2FF2846FFF794
:103BB000AFFF8021054800EBC410FFF7BFFF0134C1
:103BC000E4B2072CE2D902B070BD00BF982B0020F0
:103BD00008B56420FEF7D4FEAE20FFF799FF202041
:103BE000FFF796FF0020FFF793FFB020FFF790FF4D
:103BF000C820FFF78DFF0020FFF78AFF1020FFF796
:103C000087FF4020FFF784FF8120FFF781FFFF201F
:103C1000FFF77EFFA120FFF77BFFA620FFF778FFCD
:103C2000A820FFF775FF3F20FFF772FFA420FFF7E2
:103C30006FFFD320FFF76CFF0020FFF769FFD5204F
:103C4000FFF766FFF020FFF763FFD920FFF760FF63
:103C50002220FFF75DFFDA20FFF75AFF1220FFF75F
:103C600057FFDB20FFF754FF1020FFF751FF8D2097
:103C7000FFF74EFF1420FFF74BFFAF20FFF748FF81
:103C80000020FFF76FFFFFF77DFF034B00221A8034
:103C90005A8001225A7108BD902B002010F0800F2D
:103CA00015D13F2913D8104B1B7913B1B2FA82F208
:103CB0005209012A0CD0CB0800EBC31001F0070118
:103CC00001238B40094A115C21EA0301115470471A
:103CD000CB0800EBC31001F0070101238B40034A1E
:103CE000115C194311547047902B0020982B002031
:103CF0002DE9F04383B0814602A800E9060098460A
:103D0000A9F12003DBB25E2B4CD8274B1B889DF812
:103D100000603344802B06DC234B5B889DF8012038
:103D20001344402B07DD9DF801201F4B59880A449E
:103D30005A8002221A8000251FE01B4B18885988E0
:103D400029442044B8FA88F25209C9B2C0B2FFF738
:103D5000A5FF0134A6420FD907FA04F313F4004F6C
:103D6000EBD0114B18885988294420444246C9B2E7
:103D7000C0B2FFF793FFECE701359DF80120AA429E
:103D800008D9A9F1200302FB0353019A32F81370FA
:103D90000024DFE7044B1A8816441E80484603B00F
:103DA000BDE8F0830020FAE7902B0020014B18803B
:103DB00059807047902B002030B583B0044602A88C
:103DC00000E906001D469DF81C109DF81800FFF73D
:103DD000EDFF00E00134207848B12B4602AA12E939
:103DE0000600FFF785FF024620788242F2D003B03A
:103DF00030BD0000DFF834D0002103E00C4B5B58ED
:103E0000435004310B480C4B42189A42F6D30B4AEC
:103E100002E0002342F8043B094B9A42F9D3FDF734
:103E200061F800F035F8FCF7E9FEFEE700800020BD
:103E300030730008000000207C0000207C0000207F
:103E4000AC2F0020FEE7000030B5002285B00C4604
:103E50000546002351EC100B8DED020BFCF736FEEE
:103E60009DED020B224618B12D2302F8013B013DC6
:103E700000230648009329466723006800F0ACF849
:103E8000002814BF2046002005B030BD14000020DB
:103E900070B50D4D0D4C641BA4100026A64209D12F
:103EA0000B4D0C4C02F0F8FC641BA4100026A6423B
:103EB00005D170BD55F8043B98470136EEE755F83B
:103EC000043B98470136F2E728730008287300087E
:103ED000287300082C73000802440346934200D163
:103EE000704703F8011BF9E7F0B587B043EC102BDE
:103EF0000C9C9DF834600E9D04AB019303AB0093C2
:103F0000621C05AB0F46022100F0F6FD059A42F255
:103F10000F739A4205D10146384600F039FD07B0CB
:103F2000F0BD3B46017803F8011B002CC8BF0125FA
:103F30002E2110F8017F0FB1002C37DC672E46D000
:103F4000472E46D02E213020002C38DC511E00296F
:103F5000B8BFC2F1010218460591ACBF2B220592F1
:103F600000F8026BA8BF5A70059ABCBF2D2159708A
:103F7000632A0BDD642192FBF1F101F13004D81CBE
:103F80009C706FF0630303FB01220592059B0A22DC
:103F900093FBF2F202F1300101706FF0090101FBB5
:103FA00002333033437000238370B8E70DB103F858
:103FB000011B057803F8015B013C0025B9E70DB151
:103FC00003F8011B03F8010B013C0025BCE7652643
:103FD000BCE74526BAE700002DE9F04755EC104B49
:103FE00088B08146884616469A4610EE100A00228E
:103FF00000232946109FFCF769FD10B105F100432D
:104000001D460022002320462946FCF755FD38B105
:104010003023337000237370304608B0BDE8F0875A
:104020004BA3D3E9002320462946FCF759FD58B19C
:1040300008F1FF310091CDE901A722462B46314618
:104040004846FFF751FFE7E7404600F009FC2246EB
:1040500051EC100B2B46FCF743FD0028E8D107ABD1
:10406000019306AB0093424605AB45EC104B022191
:10407000484600F041FD059A42F20F739A420ED075
:104080003346B044054610F8011B059CA8EB03021B
:1040900009B1002C08DC00214FF0300C0DE0014686
:1040A000304600F075FCB7E7013C03F8011B0594AE
:1040B000E8E703F801CB013A0121002C20462ADC75
:1040C00001B105940FB9297811B3B34204BF30216F
:1040D00003F8011B2E211970059918460024A1EB45
:1040E000030C4FF0300E1CEB000F1CD40029C1F163
:1040F0000000C8BF002000F1010C6344014404B17A
:104100000591691E11F8010F08B1002A0FDCDFB913
:1041100000221A7080E7002A04F1FF34C9DC00296C
:10412000D0D00590CEE700F801EF0124DBE703F8DB
:10413000010B013AE6E701F8015B601A0028FADC9E
:10414000002AA8BF9B18E3E719469C183025F4E71E
:104150002D431CEBE2361A3F70B5466A04460D4605
:1041600076B9102001F0C8FA0246606220B9184BF7
:104170001848662100F014FCC0E901660660C660BC
:10418000666AF36883B1636ADB6853F82500B8B9DF
:10419000012101FA05F6721D9200204600F07EFB17
:1041A00060B1C0E901560EE021220421204600F052
:1041B00075FB636AF060DB68002BE4D1002070BD02
:1041C000026843F825200023C0E90333F7E700BF66
:1041D000687000087F70000870B5466A05460C4696
:1041E00076B9102001F088FA0246686220B9094BBE
:1041F00009488A2100F0D4FBC0E901660660C66068
:104200003CB16B6A6268DB6853F82210216043F8A6
:10421000224070BD687000087F7000082DE9F041F1
:104220000D6907460C461E4601F1140C0020DCF80F
:10423000003099B202FB01611E0C0B0C02FB06332D
:1042400089B2013001EB034185424CF8041B4FEA6F
:104250001346ECDC0EB3A368AB4219DC6168384648
:104260000131FFF779FF804628B902460C4B0D4813
:10427000B52100F095FB2269023204F10C01920095
:104280000C3001F041FA21463846FFF7A5FF4446BD
:1042900004EB850301355E6125612046BDE8F081B0
:1042A000D97000087F700008030C1B04D3B9000408
:1042B000102310F07F4F04BF0002083310F0704F3E
:1042C00004BF0001043310F0404F04BF80000233EC
:1042D000002805DB10F0804F03F1010308BF202305
:1042E000184670470023E4E7036813F0070201460D
:1042F0000BD0DA0723D4980749BF5B089B0801203D
:104300000B605CBF0B600220704798B2A8B91B0C11
:104310001020DAB20AB908301B0A1A0704BF1B09B9
:1043200004309A0704BF9B080230DA0703D45B0805
:1043300000F1010005D00B6070471046E9E700204E
:10434000704720207047000010B50C460121FFF790
:1043500003FF024628B9054B05484FF4A07100F051
:104360001FFB01234461036110BD00BFD970000829
:104370007F7000082DE9F04F91460A69D9F8103096
:104380009A42B8BF0B460C46BCBF4C4699462769BB
:10439000D9F810A0A368616807EB0A06B34285B09C
:1043A000B8BF0131FFF7D8FE30B90246444B45484B
:1043B00040F25D1100F0F4FA00F1140505EB8608F7
:1043C0002B460022434521D304F1140303EB870756
:1043D00009F1140303EB8A0202923A1B153A22F008
:1043E0000302043204F115018F4238BF0422019206
:1043F000029A03939A420CD8002E03DD58F8043D2C
:10440000002B5AD0066105B0BDE8F08F43F8042BAD
:10441000D8E7B3F800A0BAF1000F24D004F1140ECD
:10442000A9464FF0000C5EF8042BD9F800101FFAD3
:1044300082FB89B20AFB0B114FEA124BD9F800201C
:1044400061444FEA124C0AFB0BC202EB114289B2E3
:1044500041EA0241774549F8041B4FEA124CE2D881
:10446000019A45F802C0039AB2F802900433B9F1F8
:10447000000F20D0296804F1140CAE464FF0000A5A
:10448000BCF800B0BEF8022009FB0B22924489B2AE
:1044900041EA0A414EF8041B5CF8042BBEF80010F8
:1044A000120C09FB021101EB1A4167454FEA114A50
:1044B000E6D8019AA95004359AE7013E9CE700BF6F
:1044C000D97000087F7000082DE9F843154612F0F6
:1044D000030206460F4607D0254C013A002354F844
:1044E0002220FFF79BFE0746AD103DD0746A7CB9D1
:1044F000102001F001F90246706228B91D4B1E48D8
:104500004FF4D77100F04CFAC0E901440460C46074
:10451000D6F82480D8F808404CB940F271213046D2
:10452000FFF712FF0023C8F80800044603604FF0AD
:104530000009EB070AD5394622463046FFF71AFF35
:10454000394680463046FFF747FE47466D100BD090
:10455000206838B9224621463046FFF70BFF20601D
:10456000C0F800900446E4E73846BDE8F88300BF91
:10457000E0710008687000087F7000082DE9F047BE
:104580000C464968236903EB6218A3680746914605
:104590004FEA621A08F10106B3420BDB3846FFF717
:1045A000DBFD054648B902462A4B2B4840F2D9119B
:1045B00000F0F6F901315B00EEE7002300F1140191
:1045C00000F110021846534537DB20692AEAEA7ADF
:1045D00004F1140319F01F0901EB8A0103EB8000B9
:1045E0002FD0C9F1200E8A464FF0000C1A6802FA4B
:1045F00009F242EA0C024AF8042B53F8042B9842C1
:1046000022FA0EFCF2D8031B153B23F003030433FC
:1046100004F11502904238BF042341F803C0BCF1F5
:10462000000F01D008F10206013E38462E612146F6
:10463000FFF7D2FD2846BDE8F08742F8040F0133AA
:10464000C1E7043953F8042B41F8042F9842F9D8F4
:10465000EAE700BFD97000087F70000830B5026932
:104660000C69121B0ED100F11403143103EB84000A
:1046700001EB840150F8045D51F8044DA54203D0CC
:1046800005D30122104630BD8342F3D3FAE74FF041
:10469000FF32F7E72DE9F84F0C4606461146204653
:1046A0009046FFF7DBFF051E10D129463046FFF785
:1046B00053FD30B93A4B024640F23221394800F0FE
:1046C0006FF90123C0E90435BDE8F88FA4BF434664
:1046D000A0463046D8F80410A6BF1C460025012588
:1046E000FFF73AFD20B92E4B02464FF41071E5E773
:1046F000D8F810702669C56004F1140908F1140592
:1047000000F1140E05EB870C09EB860608F1100288
:10471000F246002159F8043B52F804BF1FFA83F80F
:1047200011FA8BF11B0CA1EB0808C3EB1B4303EB45
:1047300028431FFA88F819144E4548EA03434AF8FB
:10474000043BE7D8331B153B23F003030433153434
:10475000A64238BF04231D4473449E462E46664538
:104760000ED30CF10302521B22F00302033DAC45B1
:1047700038BF00221A4452F8043D7BB10761A3E719
:1047800056F8048B11FA88F2141404EB184492B210
:1047900042EA04424EF8042B2114E0E7013FEAE725
:1047A000D97000087F7000082DE9F7438946012180
:1047B00057EC106B9046FFF7CFFC044630B9024629
:1047C000254B264840F20A3100F0EAF8C7F30A55B3
:1047D000C7F3130335BB002E019328D0684600961B
:1047E000FFF782FD009900B3019AC0F1200302FA9D
:1047F00003F30B43C24063610192019BA361002B51
:1048000014BF022201222261D5B1A5F2334505442D
:10481000C9F80050C0F13500C8F80000204603B0C8
:10482000BDE8F08343F48013D5E76161E5E701A8B3
:10483000FFF75AFD019B6361012222612030E3E70B
:1048400004EB8203A0F23240C9F800001869FFF7B8
:104850002BFDC0EB4210DFE7D97000087F70000825
:104860001728D0B5044607DC094800EBC404D4E996
:10487000000141EC100BD0BD0649074F0020002677
:1048800032463B46FBF7B0FE013CF9D1F1E700BFF1
:10489000187100080000F03F0000244013B54A439F
:1048A0001146019200F00AF8044618B1019A00215D
:1048B000FFF712FB204602B010BD0000F8B5CD1C7A
:1048C00025F0030508350C2D38BF0C25002D0646B4
:1048D00001DBA94203D90C2333600020F8BD00F0AE
:1048E00021FF21490A6814469CB9204F3B6823B92F
:1048F0002146304600F03CF838602946304600F04A
:1049000037F8431C23D10C233360304600F010FFEE
:10491000E3E723685B1B17D40B2B03D923601C44EC
:10492000256004E06368A2420CBF0B605360304610
:1049300000F0FEFE04F10B00231D20F00700C21A58
:10494000CCD01B1AA350C9E722466468CCE7C41C2C
:1049500024F00304A042E3D0211A304600F008F806
:104960000130DDD1CFE700BF982F00209C2F002021
:1049700038B5064D0023044608462B6001F06EFF53
:10498000431C02D12B6803B1236038BDA02F002047
:10499000034611F8012B03F8012B002AF9D17047C7
:1049A0001FB514461A46094B1B680546D8684CB11A
:1049B000074B0091CDE9013406492B4600F08AFEF1
:1049C00001F0B6FA044B1C46F3E700BF14000020C8
:1049D000EC710008F9710008277200082DE9F74F03
:1049E00003690C69A3420746C0F28180013C01F1D2
:1049F000140800F1140505EB8403019358F82430E2
:104A000055F8242001339A424FEA840B08EB8409BD
:104A1000B2FBF3F631D34FF0000E4046AC46F246FF
:104A200050F8042B93B206FB03E34FEA134E9BB2FC
:104A3000AAEB0303120CDCF800A006FB02E213FA57
:104A40008AF34FEA124E1FFA82FADCF80020CAEB12
:104A5000124202EB23429BB243EA024381454CF8E7
:104A6000043B4FEA224ADBD255F80B302BB9019BAD
:104A7000043B9D421A462ED33C613846FFF7EEFDBB
:104A8000002824DB013628464FF0000C58F8042B90
:104A9000D0F800E093B2ACEB0303120C13FA8EF3E0
:104AA000C2EB1E4202EB23429BB243EA0243C145E2
:104AB00040F8043B4FEA224CE8D255F8242005EB9D
:104AC000840322B9043B9D421A460AD33C61304616
:104AD00003B0BDE8F08F1268043B002ACCD1013C42
:104AE000C7E71268043B002AF0D1013CEBE7002045
:104AF000EEE70000000000002DE9F04F2DED048BE3
:104B000057EC106B93B0456ADDF88080069110EE8B
:104B100010AA044609920C93BB4675B9102000F008
:104B2000EBFD0246606220B9A74BEA21A748FFF7D8
:104B300037FFC0E901550560C560636A196851B166
:104B40005A684A60012393408B602046FFF744FB7C
:104B5000636A00221A603B1EAABF002323F0004BA9
:104B6000C8F800309A4BBCBF0122C8F8002033EAD5
:104B70000B031BD10C9A42F20F731360CBF3130398
:104B8000334300F09285219B63B9924B22E0924B14
:104B900001930833219A1360019813B0BDEC048B84
:104BA000BDE8F08F8B4B01930333F3E70022002322
:104BB00050465946FBF780FF4BEC19AB804658B185
:104BC0000C9A01231360219B002B00F06B85834816
:104BD0001860431E0193DFE74BEC10AB10AA11A93C
:104BE0002046FFF7E1FDCBF30A5508EE100A002D31
:104BF00000F0848019EE903AC3F3130343F07F571B
:104C0000564647F44017A5F2FF35CDF83880744B6F
:104C1000002230463946FBF72FFB65A3D3E900237A
:104C2000FBF7E2FC64A3D3E90023FBF727FB06466E
:104C300028460F46FBF76EFC61A3D3E90023FBF780
:104C4000D3FC02460B4630463946FBF717FB0646B7
:104C50000F46FBF763FF00220090002330463946E1
:104C6000FBF734FF50B10098FBF754FC32463B464B
:104C7000FBF722FF10B9009B013B0093009B162B12
:104C80005AD8009A574B03EBC203D3E9002351ECE7
:104C9000190BFBF71BFF002850D0009B013B009332
:104CA00000230B93109B5D1B6B1E059345BFC5F145
:104CB00001030493002300234CBF05930493009B3E
:104CC000002B3DDB059B009A0A92134405930023B9
:104CD0000793069B092B00F28980052BC4BF043B78
:104CE0000693069BA3F10203CCBF00250125032BED
:104CF00000F28780DFE803F02D3A3859DDE91053E0
:104D00001D4405F23243202BC1BFC3F1400305F21D
:104D100012400BFA03F326FA00F0DABFC3F12003C6
:104D200006FA03F01843FBF7E5FB01230646A1F161
:104D3000F877013D0E936AE70123B2E70B90B1E7E4
:104D4000049B009A9B1A04935342079300230A93EF
:104D5000BFE700230893099B002B55DC0123CDE915
:104D600002331A4609920CE00123F3E70023099A63
:104D70000893009B134402930133012B0393B8BFA4
:104D80000123606A00224260042202F114069E425E
:104D900041683DD92046FFF7DFF9019000283BD15B
:104DA000114B02464FF4D571C0E60123DFE700BF87
:104DB00061436F63A787D23FB3C8608B288AC63F21
:104DC000FB799F501344D33F687000083772000886
:104DD0000000F07F31720008287200083672000867
:104DE0000000F83F18710008D97000080125002361
:104DF000069308954FF0FF33CDE9023300221223CA
:104E0000B0E701230893F5E7099BCDE90233B8E742
:104E1000013141605200B8E7636A019A1A60039B4E
:104E20000E2B00F29D80002D00F09A80009B002B3D
:104E300032DDB74A03F00F0302EBC303D3E9008965
:104E4000009BD8054FEA231716D5B24B51EC190B2E
:104E5000D3E90823FBF7F2FC07F00F0782468B46E5
:104E60000325AC4E57B942464B4650465946FBF7D0
:104E7000E5FC82468B4628E00225F2E7F90708D5D3
:104E800040464946D6E90023FBF7AEFB0135804694
:104E900089467F100836E5E700F09B80009B9D4F18
:104EA0005E429B4B06F00F0203EBC203D3E90023E3
:104EB00051EC190BFBF798FB361182468B46002309
:104EC0000225002E7AD1002BD3D10B9B002B00F0B2
:104ED0008280914B002250465946FBF7F7FD00288F
:104EE00079D0039B002B76D0029B002B36DD009BF4
:104EF000504659465F1E0022884BFBF775FB029E09
:104F000082468B4601352846FBF704FB52465B463A
:104F1000FBF76AFB824B0022FBF7B0F9D046D9467B
:104F20008246A1F1507B002E58D17E4B0022404694
:104F30004946FBF7A1F952465B4680468946FBF796
:104F4000E3FD002840F0958252460BF100434046B5
:104F50004946FBF7BBFD002840F089825BEC19ABAA
:104F6000119B002BC0F24881009A0E2A00F3448165
:104F7000674B03EBC203D3E90089099B002B80F246
:104F8000D580039B002B00F3D18040F06F82654BEE
:104F9000002240464946FBF727FB52465B46FBF79B
:104FA000A9FD039E3746002840F04582019D31232C
:104FB00005F8013B009B0133009340E2F20705D561
:104FC000D7E90023FBF710FB0135012376100837E2
:104FD00077E7022579E7009F039E94E701994C4B00
:104FE00031440D91089903EBC60353E902230029CC
:104FF00043D04D490020FBF721FC52465B46FBF7AE
:105000003BF9019D82468B4649464046FBF786FDAB
:105010000646FBF77FFA02460B4640464946FBF739
:105020002BF9303605F8016B52465B4680468946BF
:10503000FBF74CFD002863D142464B463649002021
:10504000FBF71AF952465B46FBF740FD002840F09B
:10505000B5800D9B9D4281D0304B00225046594671
:10506000FBF7C2FA2D4B82468B464046494600224A
:10507000FBF7BAFA80468946C6E750465946FBF721
:10508000B3FA0D9B019D0F9382468B4649464046DD
:10509000FBF744FD0646FBF73DFA303602460B4669
:1050A00040464946FBF7E8F805F8016B0D9B9D4229
:1050B000804689464FF0000224D11B4B504659468A
:1050C000FBF7DCF802460B4640464946FBF71CFD61
:1050D000002873D152465B4613490020FBF7CCF8F9
:1050E00002460B4640464946FBF7F0FC00283FF4D9
:1050F00035AF0F9D6B1E0F9315F8013C302BF8D088
:10510000009749E0054BFBF76FFA80468946BDE7FB
:1051100018710008F07000080000F03F0000244003
:1051200000001C40000014400000E03F019D564676
:105130005F4642464B4630463946FBF77FFBFBF75E
:10514000EDFC8246FBF7E6F942464B46FBF74CFA8C
:1051500002460B46304639460AF13006FBF78CF81A
:1051600005F8016B019E039FAE1BB74202460B463A
:1051700035D1FBF783F842464B4606460F46FBF710
:10518000C3FCD0B942464B4630463946FBF794FC47
:1051900010B11AF0010F10D1204618EE101AFFF7C7
:1051A0001BF8002300982B700C9B01301860219B8A
:1051B000002B3FF4F1AC1D60EEE4009F2B461D4632
:1051C00013F8012D392A06D1019A9A42F7D1019993
:1051D000302201370A701A7801321A7090E7A64B14
:1051E0000022FBF701FA0022002306460F46FBF7D8
:1051F00063FC00289DD0CFE7089A002A00F0D780F2
:10520000069A012A00F3BA800E9A002A00F0B280B2
:1052100003F23343079E049D049A1A440492059AAC
:1052200001211A4420460592FFF78EF80746002D0B
:105230000CDD059B002B09DDAB42049AA8BF2B4671
:10524000D21A0492059AED1AD31A0593079B1BB341
:10525000089B002B00F0AF80002E13DD394632464C
:105260002046FFF731F918EE102A0146074620467E
:10527000FFF780F818EE101A80462046FEF7ACFFC4
:1052800008EE108A079B9A1B06D018EE101A2046CB
:10529000FFF71AF908EE100A01212046FFF754F82B
:1052A0000A9B002B064640F388801A46014620469A
:1052B000FFF70AF9069B012B064640F381804FF069
:1052C0000008336906EB83031869FEF7EDFFC0F1B0
:1052D0002000059B184410F01F0000F09280C0F1E0
:1052E0002003042B40F38A80C0F11C00049B03447C
:1052F0000493059B034405440593049B002B07DDA1
:1053000018EE101A1A462046FFF738F908EE100A70
:10531000059B002B05DD31461A462046FFF72EF986
:1053200006460B9B002B6ED018EE100A3146FFF795
:1053300095F9002867DA009B013B18EE101A0093DC
:105340000A2200232046FEF769FF089B08EE100A98
:10535000002B00F0B181002339460A222046FEF7D7
:105360005DFF029B002B074600F38E80069B022BFD
:1053700051DC89E0109BC3F136034BE7039B5E1EB3
:10538000079BB342BFBF079B0796F21A0A9BB6BFA3
:105390009B189E1B0A93039BB8BF0026002BB7BF28
:1053A000DDE90323DDE903359D1A002334E7079E79
:1053B000049D089F3BE7079A67E7069B012B18DCD3
:1053C000BAF1000F15D1CBF3130393B92BF00043BF
:1053D0001B0D1B0583B1049B01330493059B013313
:1053E00005934FF001080A9B002B7FF46AAF012060
:1053F0006FE74FF00008F6E79846F4E73FF47DAF1B
:1054000018461C3072E7039B002B37DC069B022BEF
:1054100034DD039B0293029B6BB931460522204683
:10542000FEF7FCFE0146064618EE100AFFF716F9D5
:1054300000283FF7BBAD099B019DDB4300934FF074
:10544000000831462046FEF7C7FE002F3FF4A4AE09
:10545000B8F1000F05D0B84503D041462046FEF70D
:10546000BBFE39462046FEF7B7FE95E600263746D6
:10547000E1E70097374699E500002440089B002BA0
:1054800000F0CA80039B0293002D05DD39462A46B1
:105490002046FFF773F80746B8F1000F5BD0796834
:1054A0002046FEF759FE054628B9874B024640F2D2
:1054B000EA21FFF73BBB3A690232920007F10C0187
:1054C0000C3000F021F9012229462046FFF756F85A
:1054D000019B03F10109DDE90123134405930AF05F
:1054E0000103B84604930746314618EE100AFFF749
:1054F00075FA4146029000F1300A18EE100AFFF7E3
:10550000ADF83A46039031462046FFF7C3F8C2682B
:1055100009F1FF3B054602BB014618EE100AFFF7F2
:105520009DF80246294620460792FEF755FEDDE922
:10553000063243EA0201049B0B434D460FD1BAF1F8
:10554000390F2AD0039B002B02DD029B03F1310AA5
:105550008BF800A075E73846BAE70122E2E7039B23
:10556000002B04DB06990B4304990B4322D1002A3C
:10557000EEDD18EE101A01222046FEF7FFFF31463D
:1055800008EE100AFFF76AF8002803DCE0D11AF0F1
:10559000010FDDD0BAF1390FD7D139238BF80030A4
:1055A0002B461D46013B15F8012C392A71D00132DA
:1055B0001A7046E7002A07DDBAF1390FEDD00AF17B
:1055C00001038BF800303CE7059B09F801AC9945D5
:1055D00047D018EE101A00230A222046FEF71EFEBE
:1055E000B84508EE100A4FF000034FF00A0241469A
:1055F000204606D1FEF712FE8046074609F1010952
:1056000072E7FEF70BFE3946804600230A22204649
:10561000FEF704FE0746F1E7039B0293019D18EE97
:10562000100A3146FFF7DAF900F1300A019B05F85C
:1056300001ABEA1A029B934209DD18EE101A00230F
:105640000A222046FEF7EAFD08EE100AE7E7029B71
:10565000002BC8BF1D46019BD8BF01251D444FF03C
:10566000000818EE101A01222046FEF787FF314687
:1056700008EE100AFEF7F2FF002891DC02D11AF0C2
:10568000010F8DD12B461D4613F8012D302AFAD07B
:10569000D7E6019A9A4284D1009B013300933123CB
:1056A0001370CEE6094BFFF795BA219B002B7FF4D0
:1056B0006EAA074BFFF78EBA029B002BAEDC069B4F
:1056C000022B3FF7A8AEA9E7D97000083572000891
:1056D000287200080EB403B5014603AB054853F821
:1056E000042B0068019300F09FF802B05DF804EB12
:1056F00003B0704714000020024B01461868FFF702
:10570000DDB800BF140000200A44914200F1FF33CD
:1057100000D1704710B511F8014B03F8014F9142C9
:10572000F9D110BD014800F0C3BD00BFA42F002077
:10573000014800F0BEBD00BFA42F002037B50029EE
:1057400044D051F8043C0190002BA1F10404B8BFEF
:10575000E418FFF7E7FF1E4A0198136833B9636046
:10576000146003B0BDE83040FFF7E2BFA34208D9A0
:10577000256861198B4201BF19685B68491921606E
:10578000EDE71A465B680BB1A342FAD911685518C8
:10579000A5420BD1246821445418A3421160E0D1E2
:1057A0001C685B68536021441160DAE702D90C235E
:1057B0000360D6E7256861198B4204BF19685B68EE
:1057C000636004BF491921605460CAE703B030BD6B
:1057D000982F00209368013B002B10B4936008DAE7
:1057E0009469A34201DB0A2903D15DF8044B00F060
:1057F000DFBA1368581C1060197008465DF8044B36
:105800007047F8B506460F461446D518AC4201D18C
:10581000002007E014F8011B3A463046FFF7DAFF94
:10582000431CF3D1F8BD00002DE9F04F0D469DB0AB
:1058300014469846064618B183690BB900F09AFCE5
:10584000894B9D421BD175686B6ED90705D4AB8916
:105850009A0502D4A86D00F02BFDAB891B0701D57A
:105860002B69EBB92946304600F0F4FAC0B16B6EF3
:10587000DC070ED54FF0FF301DB0BDE8F08F7B4B3D
:105880009D4201D1B568DFE7794B9D4208BFF568BD
:10589000DAE7AB899805EDD4A86D00F00AFDE9E7D9
:1058A0000023099320238DF82930CDF80C80302374
:1058B000DFF8C0818DF82A304FF0010923469A465F
:1058C00013F8012B0AB1252AF9D1BAEB040B0BD03E
:1058D0005B46224629463046FFF793FF013000F031
:1058E000AA80099A5A4409929AF80030002B00F0D5
:1058F000A28000234FF0FF32CDE905230AF1010A0F
:10590000049307938DF853301A935446052214F8E4
:10591000011B5848FAF75CFC049AD8B9D10644BF79
:1059200020238DF85330130744BF2B238DF85330B9
:105930009AF800302A2B15D0079A544600204FF0D1
:105940000A0C214611F8013B303B092B4ED9B0B16E
:10595000079214E0A0EB080309FA03F3134304933E
:10596000A246D2E7039B191D1B680391002BBBBF06
:105970005B4242F0020207930793B8BF0492237878
:105980002E2B0CD163782A2B35D1039B1A1D1B6853
:105990000392002BB8BF4FF0FF3302340593DFF8BA
:1059A000E4A0217803225046FAF712FC40B14023CC
:1059B000A0EB0A0003FA00F0049B034301340493B4
:1059C00014F8011B2C488DF828100622FAF700FC69
:1059D00000283FD0294B1BBB039B073323F0070351
:1059E00008330393099B3B44099367E70CFB02329E
:1059F0000C460120A5E700230134059319464FF01A
:105A00000A0C204610F8012B303A092A03D9002B42
:105A1000C5D00591C3E70CFB012104460123F0E743
:105A200003AB00932A46164B04A93046AFF300801F
:105A30000746781CD6D16B6ED90705D4AB899A0579
:105A400002D4A86D00F035FCAB895B063FF512AFC0
:105A5000099811E703AB00932A46094B04A9304685
:105A600000F080F8E4E700BFE47200080473000867
:105A7000C4720008907200089A72000800000000CA
:105A800003580008967200082DE9F047164699461B
:105A90008A680B69DDF820809342B8BF13463360F3
:105AA00091F8432007460C460AB10133336023685E
:105AB000990642BF336802333360256815F0060546
:105AC00006D104F1190AE36832689B1AAB4226DC5E
:105AD00094F84320131E226818BF012392062BD48A
