:020000040800F2
:1000000000800020B53D00082B0E00082D0E0008D2
:100010002F0E0008310E0008330E0008000000000B
:10002000000000000000000000000000350E000885
:10003000370E000800000000390E00083B0E0008D3
:10004000053E0008053E0008053E0008053E000884
:10005000053E0008053E0008053E0008053E000874
:10006000053E0008430E0008053E0008053E000856
:10007000053E0008053E0008053E0008053E000854
:10008000053E0008053E0008053E0008053E000844
:10009000053E0008053E0008053E00084D0E00081C
:1000A000053E0008053E0008053E0008053E000824
:1000B000053E0008053E0008053E0008053E000814
:1000C000053E0008053E0008053E0008053E000804
:1000D000053E0008053E0008053E0008053E0008F4
:1000E000053E0008053E0008053E0008053E0008E4
:1000F000053E0008053E000800000000000000006A
:100100000000000000000000053E0008053E000859
:100110000000000000000000053E0008053E000849
:10012000053E0008053E0008690E0008790E00082B
:10013000890E0008053E0008053E0008053E00083F
:10014000053E000800000000000000000000000064
:10015000000000000000000000000000000000009F
:100160000000000000000000053E0008053E0008F9
:10017000053E000800000000053E000800000000E9
:0801800000000000053E00082C
:1001880010B5054C237833B9044B13B10448AFF3C9
:1001980000800123237010BD7C00002000000000B7
:1001A8003058000808B5034B1BB103490348AFF3A7
:1001B800008008BD000000008000002030580008C2
:1001C80081F0004102E000BF83F0004330B54FEA00
:1001D80041044FEA430594EA050F08BF90EA020F6D
:1001E8001FBF54EA000C55EA020C7FEA645C7FEA00
:1001F800655C00F0E2804FEA5454D4EB5555B8BF23
:100208006D420CDD2C4480EA020281EA030382EA93
:10021800000083EA010180EA020281EA0303362D25
:1002280088BF30BD11F0004F4FEA01314FF4801CF8
:100238004CEA113102D0404261EB410113F0004F0A
:100248004FEA03334CEA133302D0524263EB4303C1
:1002580094EA050F00F0A780A4F10104D5F1200E5F
:100268000DDB02FA0EFC22FA05F2801841F10001BA
:1002780003FA0EF2801843FA05F359410EE0A5F18E
:1002880020050EF1200E012A03FA0EFC28BF4CF0BF
:10029800020C43FA05F3C01851EBE37101F0004575
:1002A80007D54FF0000EDCF1000C7EEB00006EEB82
:1002B8000101B1F5801F1BD3B1F5001F0CD349080C
:1002C8005FEA30004FEA3C0C04F101044FEA445263
:1002D80012F5800F80F09A80BCF1004F08BF5FEAEA
:1002E800500C50F1000041EB045141EA050130BDCA
:1002F8005FEA4C0C404141EB010111F4801FA4F16D
:100308000104E9D191F0000F04BF01460020B1FAC1
:1003180081F308BF2033A3F10B03B3F120020CDAF9
:100328000C3208DD02F1140CC2F10C0201FA0CF0D7
:1003380021FA02F10CE002F11402D8BFC2F1200C3C
:1003480001FA02F120FA0CFCDCBF41EA0C019040F2
:10035800E41AA2BF01EB0451294330BD6FEA04043B
:100368001F3C1CDA0C340EDC04F11404C4F1200226
:1003780020FA04F001FA02F340EA030021FA04F338
:1003880045EA030130BDC4F10C04C4F1200220FA8F
:1003980002F001FA04F340EA0300294630BD21FACD
:1003A80004F0294630BD94F0000F83F4801306BF93
:1003B80081F480110134013D4EE77FEA645C18BF87
:1003C8007FEA655C29D094EA050F08BF90EA020F1E
:1003D80005D054EA000C04BF1946104630BD91EA16
:1003E800030F1EBF0021002030BD5FEA545C05D119
:1003F8004000494128BF41F0004130BD14F5800458
:100408003CBF01F5801130BD01F0004545F0FE41CB
:1004180041F470014FF0000030BD7FEA645C1ABF00
:10042800194610467FEA655C1CBF0B46024650EA37
:10043800013406BF52EA033591EA030F41F4002163
:1004480030BD00BF90F0000F04BF0021704730B5E9
:100458004FF4806404F132044FF000054FF00001BE
:1004680050E700BF90F0000F04BF0021704730B57F
:100478004FF4806404F1320410F0004548BF404254
:100488004FF000013EE700BF42004FEAE2014FEAA9
:1004980031014FEA02701FBF12F07F4393F07F4F84
:1004A80081F06051704732F07F4208BF704793F087
:1004B8007F4F04BF41F40021704730B54FF460749A
:1004C80001F0004521F000411CE700BF50EA01029D
:1004D80008BF704730B54FF000050AE050EA010246
:1004E80008BF704730B511F0004502D5404261EBB6
:1004F80041014FF4806404F132045FEA915C3FF4F7
:10050800D8AE4FF003025FEADC0C18BF03325FEA93
:10051800DC0C18BF033202EBDC02C2F1200300FA44
:1005280003FC20FA02F001FA03FE40EA0E0021FA69
:1005380002F11444BDE600BF70B54FF0FF0C4CF457
:10054800E06C1CEA11541DBF1CEA135594EA0C0F09
:1005580095EA0C0F00F0DEF82C4481EA030621EA44
:100568004C5123EA4C5350EA013518BF52EA03357F
:1005780041F4801143F4801338D0A0FB02CE4FF031
:100588000005E1FB02E506F00042E0FB03E54FF061
:100598000006E1FB03569CF0000F18BF4EF0010E59
:1005A800A4F1FF04B6F5007F64F5407404D25FEA55
:1005B8004E0E6D4146EB060642EAC62141EA555108
:1005C8004FEAC52040EA5E504FEACE2EB4F1FD0C4A
:1005D80088BFBCF5E06F1ED8BEF1004F08BF5FEAC8
:1005E800500E50F1000041EB045170BD06F000467A
:1005F80046EA010140EA020081EA0301B4EB5C0427
:10060800C2BFD4EB0C0541EA045170BD41F480111E
:100618004FF0000E013C00F3AB8014F1360FDEBF43
:10062800002001F0004170BDC4F10004203C35DA1F
:100638000C341BDC04F11404C4F1200500FA05F3A2
:1006480020FA04F001FA05F240EA020001F0004243
:1006580021F0004110EBD37021FA04F642EB0601B9
:100668005EEA430E08BF20EAD37070BDC4F10C04E3
:10067800C4F1200500FA04F320FA05F001FA04F2A7
:1006880040EA020001F0004110EBD37041F1000193
:100698005EEA430E08BF20EAD37070BDC4F120059E
:1006A80000FA05F24EEA020E20FA04F301FA05F206
:1006B80043EA020321FA04F001F0004121FA04F2AE
:1006C80020EA020000EBD3705EEA430E08BF20EA7E
:1006D800D37070BD94F0000F0FD101F000464000B8
:1006E80041EB010111F4801F08BF013CF7D041EA3A
:1006F800060195F0000F18BF704703F0004652003E
:1007080043EB030313F4801F08BF013DF7D043EA0E
:100718000603704794EA0C0F0CEA135518BF95EAC4
:100728000C0F0CD050EA410618BF52EA4306D1D14B
:1007380081EA030101F000414FF0000070BD50EA6A
:10074800410606BF1046194652EA430619D094EAF4
:100758000C0F02D150EA013613D195EA0C0F05D1DE
:1007680052EA03361CBF104619460AD181EA030132
:1007780001F0004141F0FE4141F470014FF00000EA
:1007880070BD41F0FE4141F4780170BD70B54FF085
:10079800FF0C4CF4E06C1CEA11541DBF1CEA135505
:1007A80094EA0C0F95EA0C0F00F0A7F8A4EB0504E7
:1007B80081EA030E52EA03354FEA013100F08880DE
:1007C8004FEA03334FF0805545EA131343EA1263A7
:1007D8004FEA022245EA111545EA10654FEA00265C
:1007E8000EF000419D4208BF964244F1FD0404F515
:1007F800407402D25B084FEA3202B61A65EB030571
:100808005B084FEA32024FF480104FF4002CB6EB2D
:10081800020E75EB030E22BFB61A754640EA0C00AD
:100828005B084FEA3202B6EB020E75EB030E22BFED
:10083800B61A754640EA5C005B084FEA3202B6EB2E
:10084800020E75EB030E22BFB61A754640EA9C00ED
:100858005B084FEA3202B6EB020E75EB030E22BFBD
:10086800B61A754640EADC0055EA060E18D04FEA7B
:10087800051545EA16754FEA06164FEAC30343EA1B
:1008880052734FEAC2025FEA1C1CC0D111F4801FE8
:100898000BD141EA00014FF000004FF0004CB6E7E1
:1008A80011F4801F04BF01430020B4F1FD0C88BF80
:1008B800BCF5E06F3FF6AFAEB5EB030C04BFB6EB8B
:1008C800020C5FEA500C50F1000041EB045170BD7E
:1008D8000EF0004E4EEA113114EB5C04C2BFD4EBAB
:1008E8000C0541EA045170BD41F480114FF0000E2F
:1008F800013C90E645EA060E8DE60CEA135594EAAB
:100908000C0F08BF95EA0C0F3FF43BAF94EA0C0FAD
:100918000AD150EA01347FF434AF95EA0C0F7FF422
:1009280025AF104619462CE795EA0C0F06D152EA76
:1009380003353FF4FDAE1046194622E750EA41065A
:1009480018BF52EA43067FF4C5AE50EA41047FF46B
:100958000DAF52EA43057FF4EBAE12E74FF0FF3CD0
:1009680006E000BF4FF0010C02E000BF4FF0010CA1
:100978004DF804CD4FEA410C7FEA6C5C4FEA430C1A
:1009880018BF7FEA6C5C1BD001B050EA410C0CBF69
:1009980052EA430C91EA030F02BF90EA020F0020CB
:1009A800704710F1000F91EA030F58BF994208BF32
:1009B80090422CBFD8176FEAE37040F001007047EF
:1009C8004FEA410C7FEA6C5C02D150EA013C07D146
:1009D8004FEA430C7FEA6C5CD6D152EA033CD3D091
:1009E8005DF8040B704700BF8446104662468C468B
:1009F8001946634600E000BF01B5FFF7B7FF0028BE
:100A080048BF10F1000F01BD4DF808EDFFF7F4FFE6
:100A18000CBF012000205DF808FB00BF4DF808ED71
:100A2800FFF7EAFF34BF012000205DF808FB00BF94
:100A38004DF808EDFFF7E0FF94BF012000205DF8B6
:100A480008FB00BF4DF808EDFFF7CEFF94BF01206B
:100A580000205DF808FB00BF4DF808EDFFF7C4FF64
:100A680034BF012000205DF808FB00BF4FEA4102B7
:100A780012F5001215D211D56FF47873B3EB6252E8
:100A880012D94FEAC12343F0004343EA505311F00F
:100A9800004F23FA02F018BF404270474FF00000A1
:100AA800704750EA013005D111F0004008BF6FF0DF
:100AB800004070474FF00000704700BF4FEA410206
:100AC800B2F1E04324BFB3F5001CDCF1FE5C0DD9A4
:100AD80001F0004C4FEAC0024CEA5070B2F1004FEE
:100AE80040EB830008BF20F00100704711F0804FF1
:100AF80021D113F13872BCBF01F00040704741F4B6
:100B080080114FEA5252C2F11802C2F1200C10FAB9
:100B18000CF320FA02F018BF40F001004FEAC1239D
:100B28004FEAD32303FA0CFC40EA0C0023FA02F341
:100B38004FEA4303CCE77FEA625307D150EA013317
:100B48001EBF4FF0FE4040F44000704701F00040E7
:100B580040F0FE4040F40000704700BF70B59AB006
:100B680000241294139416940B940C940D940E94E0
:100B78000F942C222146684603F092F90323109320
:100B88004FF48033119301221492102215920225FA
:100B9800179518934FF4E013199310A802F05AF917
:100BA8000F230B930C950D944FF480660E960F94BB
:100BB80029460BA802F092FC4FF4026300930594B7
:100BC8004FF028430893684602F058FD4FF4007030
:100BD80003F0ACF8304603F0A9F84FF4006003F0D6
:100BE800A5F81AB070BD0000F0B52DED028B91B0DC
:100BF80002F0F8F8FFF7B2FF00F014FC03F0ACF8CD
:100C080000F0A4FC00F00AFD00F06AFD00F09CFD75
:100C180000F0A0FE00F0DEFF01F038F800F0CEFE94
:100C280000F0B2F9684C0021204602F029F80421AE
:100C3800204602F025F80C21204602F021F8634CEA
:100C48000021204602F01CF80421204602F018F882
:100C58000821204602F014F80C21204602F010F872
:100C68005B4B1A68136843F001031360002159486D
:100C780002F026F80021584B1970584C204601F014
:100C880011FD4FF0FF31204601F034FD4FF40062B2
:100C98005349204601F056FD8FE0514A52F823206F
:100CA80007EE902A4F4A02EB8302F8EE677AC2ED0C
:100CB800007A0133B3F5806FEFD3002000F038F9E4
:100CC80002F0AEF800229FED480A4FF480614548D3
:100CD80000F06AFBB0EE408A02F0A2F818EE100AA3
:100CE800FFF7D2FB41EC100B05A9052003F088F8AB
:100CF8003E4C002501950095012394E8060005A8BF
:100D080000F036FA9FED3A0A88EE000A04F0E2FB9A
:100D1800DFED387A60EE277AFDEEE77ACDED037ADB
:100D2800039A02F5FA72344981FB0230D317C3EBF8
:100D3800202342F6E06000FB1323034481FB0321D8
:100D4800DA17C2EB212200FB123204920AAE2B4FB3
:100D58000FCF0FC697E8030086E803003221284624
:100D680000F000FA0498264E86FB0032C017C0EB4C
:100D7800A21010AB03EB4000012394E8060010F822
:100D8800180C00F091F9049886FB0036C017C0EBE8
:100D9800A61010AB03EB4000012394E8060010F8FE
:100DA800170C00F081F900F0D3F80B4B1D704FF4CD
:100DB80000620B49094801F0C5FC074B1B78002B62
:100DC800FBD0002376E700BFE02E0020602F002034
:100DD800A02E0020202F0020A5100020D42D0020B8
:100DE800A4000020A81000209A99193E04000020B1
:100DF8000000DC4300803B46F1197605485800089E
:100E0800D34D62107047000008B5034B01221A70D9
:100E1800024801F0E7FC08BDA5100020D42D0020F1
:100E280070477047FEE7FEE7FEE7FEE7704770474A
:100E3800704708B501F0E8FF08BD08B5082002F0C2
:100E4800EFFD08BD08B5202002F0EAFD4FF48070E0
:100E580002F0E6FD4FF4007002F0E2FD08BD00006C
:100E680008B5024802F09FFE08BD00BF082D00200B
:100E780008B5024802F097FE08BD00BF902D00207B
:100E880008B5024802F08FFE08BD00BF4C2D0020B7
:100E980082B00A4B9A6942F001029A619A6902F09B
:100EA80001020092009ADA6942F08052DA61DB6945
:100EB80003F080530193019B02B070470010024079
:100EC800054BD3F8882042F47002C3F888204FF00D
:100ED80000629A60704700BF00ED00E000B587B07F
:100EE80006AA02F8010D4FF0FF3302930123019384
:100EF800009200227821034801F0A1F807B05DF8BC
:100F080004FB00BFBC2C002000B585B04FF0FF33B8
:100F1800029389B20191009001234022782103486D
:100F280001F08DF805B05DF804FB00BFBC2C002073
:100F3800002303E0FF21054AD1540133B3F5806F44
:100F480003D20028F6D10021F5E77047B020002031
:100F580010B5002412E0A4F15000C0B2FFF7BEFFA4
:100F68000020FFF7BBFF1020FFF7B8FF80210548DE
:100F780000EBC410FFF7C8FF0134E4B2072CEAD92C
:100F880010BD00BFB020002008B5642001F04EFF5E
:100F9800AE20FFF7A3FF2020FFF7A0FF0020FFF7F8
:100FA8009DFFB020FFF79AFFC820FFF797FF0020AA
:100FB800FFF794FF1020FFF791FF4020FFF78EFF07
:100FC8008120FFF78BFFFF20FFF788FFA120FFF7A5
:100FD80085FFA620FFF782FFA820FFF77FFF3F20AD
:100FE800FFF77CFFA420FFF779FFD320FFF776FFF8
:100FF8000020FFF773FFD520FFF770FFF020FFF701
:101008006DFFD920FFF76AFF2220FFF767FFDA207C
:10101800FFF764FF1220FFF761FFDB20FFF75EFF99
:101028001020FFF75BFF8D20FFF758FF1420FFF714
:1010380055FFAF20FFF752FF0020FFF779FFFFF7BA
:1010480087FF034B00221A805A8001225A7108BD7B
:10105800A820002010F0800F15D13F2913D8104B7D
:101068001B7913B1B2FA82F25209012A0CD0CB08CB
:1010780000EBC31001F0070101238B40094A115C02
:1010880021EA030111547047CB0800EBC31001F0AB
:10109800070101238B40034A115C1943115470471F
:1010A800A8200020B02000202DE9F04383B002AC36
:1010B80004E90600A0F12002D2B25E2A4ED8284ADE
:1010C80012889DF800603244802A06DC244A52883F
:1010D8009DF801100A44402A07DD9DF80110204AB6
:1010E8005488214451800221118098468146002568
:1010F8001FE01B4B1888598829442044B8FA88F205
:101108005209C9B2C0B2FFF7A5FF0134A6420FD9F0
:1011180007FA04F313F4004FEBD0114B18885988E1
:10112800294420444246C9B2C0B2FFF793FFECE716
:1011380001359DF80120AA4208D9A9F1200302FB34
:101148000353019A32F813700024DFE7044B1A881E
:1011580016441E80484603B0BDE8F0830020FAE735
:10116800A8200020014B188059807047A820002033
:1011780070B582B0054602A800E906001E469DF833
:101188001C109DF81800FFF7EDFF2C785CB1334672
:1011980002AA12E906002046FFF786FF2C78A04233
:1011A80001D10135F1E7204602B070BD70B40026C8
:1011B8001AE001EB8302D2ED007A1A1901EB8202E0
:1011C80092ED007A77EEC77A67EEA77A00EB840291
:1011D80092ED017A77EE277AC2ED017A01331BB2DC
:1011E8009D42E6DC013636B2B0F90250B54206DD62
:1011F800344600EB860300225A600023F0E770BCF7
:10120800704700004FF07E5343609FED0D7A012335
:1012180011E000EB8302D2ED017A37EE277A06EE71
:10122800903AB8EEE66AC6EE076A67EEA67AC2EDAD
:10123800017A01331BB2B0F902209A42E9DC704707
:101248000000000010B40223B0F902209A422FDDFA
:1012580000EB830191ED017A00F60801D1ED007AE7
:10126800B4EEE77AF1EE10FA02D401331BB2EBE7E1
:101278001C46591C91420FDA00EB810191ED017A6D
:1012880000EB8301D1ED017AB4EEE77AF1EE10FAC2
:1012980002D501331BB2EBE700EB840494ED017A2D
:1012A800F7EE007A77EEC77A00F60401C1ED007A0E
:1012B8009A4210D000EB830292ED017A00F6080200
:1012C800D2ED007AB4EEE77AF1EE10FA03DA1846B6
:1012D8005DF8044B704700F60400002303604FF0EC
:1012E800FF33F4E710B400292CDD4B1E1BB24A1C57
:1012F800B0F90240A24227DA12B28B4226D08A42C3
:101308003BD000EB8303D3ED016A00EB810393ED3F
:10131800017A00EB8200D0ED017A06EE101AB8EEE1
:10132800C60A37EEE66A37EE077A77EE677A77EE1F
:10133800E67A77EEA77A86EE277A30EE070A5DF826
:10134800044B70470B46D2E70A46D6E700EB810309
:1013580093ED017A00EB8200D0ED017AB4EEE77AE2
:10136800F1EE10FA04D807EE901AB8EEE70AE6E7AD
:1013780007EE902AB8EEE70AE1E700EB810292ED6A
:10138800017A00EB8300D0ED017AB4EEE77AF1EE52
:1013980010FA04D807EE901AB8EEE70ACFE707EE7E
:1013A800903AB8EEE70ACAE7B1F5806F02D9BFEE06
:1013B800000A704710B582B00B460146174C2380CF
:1013C8005B08638004F6040300221A6004F608032D
:1013D80083ED000A4FF6FF73ADF806302046FFF79D
:1013E800E5FE2046FFF70EFF2046FFF72BFFADF87E
:1013F8000600BDF806301BB2B3F1FF3F0BD0BDF8B5
:10140800061009B22046FFF76DFFDFED057A87EE7B
:10141800800A02B010BDBFEE000AFAE7B02400202F
:101428000050C346F0B58DB0002409940A940B947B
:10143800404B5A6942F400225A615A6902F4002268
:101448000192019A5A6942F480025A615A6902F477
:1014580080020292029A5A6942F400325A615A6929
:1014680002F400320392039A5A6942F480225A61C4
:101478005A6902F480220492049A5A6942F40012CA
:101488005A615A6902F400120592059A5A6942F49F
:1014980080125A615B6903F480130693069B4FF42C
:1014A800604307930325089507A9234802F0EEF93E
:1014B80048F2041307930895099407A94FF0904040
:1014C80002F0E4F9282307931C4F08970126099690
:1014D80007A94FF0904002F0D9F94FF440730793F1
:1014E8000897099607A9164802F0D0F94CF2383344
:1014F80007930895099407A9124802F0C7F9C02371
:1015080007930895099407A90F4802F0BFF92246E6
:101518002146092002F0B4FB092002F0E5FB22462F
:101528002146172002F0ACFB172002F0DDFB0DB0BE
:10153800F0BD00BF00100240000800480000211064
:1015480000100048000400480014004808B5154879
:10155800154B036002234360002383600122C260AD
:10156800036143618361C361036200F00AFD80B9CE
:101578004FF480510B4800F04BFE68B90021094830
:1015880000F074FE58B9094A136843F480131360D5
:1015980008BDFFF745FCEBE7FFF742FCEEE7FFF776
:1015A8003FFCF0E7BC2C0020005400400000014044
:1015B80010B588B00023039304930593069307930B
:1015C8000268134B9A4201D008B010BD114C6369F0
:1015D80043F480236361636903F480230193019BCF
:1015E800C023039312230493012305930323069333
:1015F8000423079303A9084802F048F9E36943F470
:101608000013E361E36903F400130293029BDBE731
:1016180000540040001002400004004800B585B0A6
:10162800002300930193029303932A482A4A0260F5
:1016380043604FF080728260C3604FF4407303616F
:101648000223C3624FF40053036300F0F1FE58BB5A
:101658000021204801F006F848BB4FF40052002151
:101668001C4800F0DDFF28BB02211A4800F0C2FF29
:1016780018BB01221949174800F082FF00BB4FF040
:101688004063009300210191029103916A46114839
:1016980000F020FFB8B9002210490E4800F03EFFC4
:1016A800A0B905B05DF804FBFFF7BAFBD0E7FFF778
:1016B800B7FBD2E7FFF7B4FBD6E7FFF7B1FBD8E7F4
:1016C800FFF7AEFBDBE7FFF7ABFBE4E7FFF7A8FBB1
:1016D800E7E700BFD42D002000600140400006006D
:1016E80000B585B000230093019302930393144837
:1016F800144A026043608360C3604FF4407303611F
:1017080000F096FE98B900210D4800F05BFF88B9FB
:101718004FF04063009300210191029103916A46C2
:10172800074800F0D7FE40B905B05DF804FBFFF7A5
:1017380077FBE8E7FFF774FBEAE7FFF771FBF3E7EE
:10174800182E00200064014000B585B000230093E6
:101758000193029303931448144A02604360836020
:10176800C3604FF44073036100F062FE98B9002132
:101778000D4800F027FF88B94FF04063009300211F
:101788000191029103916A46074800F0A3FE40B90F
:1017980005B05DF804FBFFF743FBE8E7FFF740FB04
:1017A800EAE7FFF73DFBF3E75C2E00200068014005
:1017B80030B58DB0044600230793089309930A9324
:1017C8000B930368574A934207D0574A93423BD03A
:1017D800564A93426FD00DB030BD554B9A6942F0CE
:1017E80080729A619A6902F080720192019A5A692C
:1017F80042F480225A615B6903F480230293029BBE
:10180800012307930323089307A94A4802F03EF8E7
:1018180049484A4B03600023436083608022C260CA
:101828004FF4807202614FF48062426183614FF429
:101838000053C36102F03EF918B93F4B63615C6223
:10184800C9E7FFF7EDFAF8E7394B9A6942F00072F9
:101858009A619A6902F000720392039A5A6942F4F3
:1018680080225A615B6903F480230493049B042358
:1018780007930323089307A92E4802F007F8304876
:10188800304B03600023436083608022C2604FF4C2
:10189800807202614FF48062426183614FF40053A9
:1018A800C36102F007F918B9254B63615C6292E7DE
:1018B800FFF7B6FAF8E71E4B9A6942F080629A6120
:1018C8009A6902F080620592059A5A6942F4801278
:1018D8005A615B6903F480130693069B4FF4807585
:1018E80007950323089307A9174801F0CFFF174866
:1018F800174B03600023436083608022C260056148
:101908004FF48062426183614FF40053C36102F077
:10191800D1F818B90D4B63615C625CE7FFF780FA98
:10192800F8E700BF00600140006401400068014022
:101938000010024000040048082D00203004024036
:10194800902D002044040240000C00484C2D00203B
:101958005804024000B58DB00023069307930A93FC
:101968000B93019302931348134A02604360836008
:101978004FF6FF72C2600361836101230393022261
:10198800049205930892099303A900F0EFFF50B958
:1019980000230193029301A9064801F0D3F928B95D
:1019A8000DB05DF804FBFFF73BFAF1E7FFF738FAF3
:1019B800F6E700BFA02E00200008004000B589B05F
:1019C80000230193029303930493059306930793CB
:1019D8001448154A02604360836040F6C902C26039
:1019E8000361836100F090FF90B90E4800F0A5FFF5
:1019F80088B9602301930123029300220392059280
:101A080001A9084801F0BEF840B909B05DF804FB27
:101A1800FFF706FAE9E7FFF703FAEAE7FFF700FA44
:101A2800F3E700BF202F0020001C004082B00368AD
:101A3800B3F1804F04D00E4A93420DD002B07047E4
:101A480003F50433DA6942F00102DA61DB6903F075
:101A580001030093009BF1E7064BDA6942F00202AA
:101A6800DA61DB6903F002030193019BE6E700BF3B
:101A7800000400400010024000B589B00023039321
:101A880004930593069307930268144B9A4202D075
:101A980009B05DF804FB03F50233DA6942F0040289
:101AA800DA61DA6902F004020192019A5A6942F491
:101AB80000325A615B6903F400330293029B4FF4CE
:101AC800C053039302230493012305930A23079326
:101AD80003A94FF0904001F0D9FED9E70008004073
:101AE8000268094B9A4200D0704782B003F5FA3376
:101AF800DA6942F08002DA61DB6903F0800301935E
:101B0800019B02B0704700BF001C004010B588B0B0
:101B18000023039304930593069307930368B3F193
:101B2800804F04D0284A934226D008B010BD03F550
:101B380004335A6942F400325A615B6903F4003392
:101B48000093009B03230393022404940123079327
:101B580003A94FF0904001F099FE4FF4C06303933E
:101B680004940023059306930A23079303A94FF0CF
:101B7800904001F08BFED8E7144B5A6942F40032CA
:101B88005A615A6902F400320192019A5A6942F480
:101B980080225A615B6903F480230293029B5023DD
:101BA800039302240494079403A94FF0904001F092
:101BB8006DFE03940494002305930693079403A9E8
:101BC800034801F063FEB0E7000400400010024043
:101BD8000004004800B58BB00023089309930193D3
:101BE80002930393049305930693079326484FF0B3
:101BF800804202604FF47A7242608360FF22C260C2
:101C08000361836100F099FE58BB00230893099390
:101C180008A91D4801F096F830BB60230193002203
:101C280002920392059201A9174800F0ABFFF0B9A0
:101C380004220DEB0201144800F0A4FFD0B90822D9
:101C480001A9114800F09EFFB8B90C2201A90E485D
:101C580000F098FFA0B90C48FFF758FF0BB05DF8EB
:101C680004FBFFF7DDF8D0E7FFF7DAF8D5E7FFF771
:101C7800D7F8DDE7FFF7D4F8E1E7FFF7D1F8E4E7B5
:101C8800FFF7CEF8E7E700BF602F002000B58BB064
:101C980000230893099301930293039304930593F4
:101CA800069307932148224A02604FF47A724260F1
:101CB8008360FF22C2600361836100F03EFE28BB9F
:101CC80000230893099308A9184801F03BF800BBC2
:101CD80060230193002202920392059201A91348FE
:101CE80000F050FFC0B904220DEB02010F4800F0CC
:101CF80049FFA0B90C2201A90C4800F043FF88B99C
:101D08000A48FFF703FF0BB05DF804FBFFF788F8FC
:101D1800D6E7FFF785F8DBE7FFF782F8E3E7FFF799
:101D28007FF8E7E7FFF77CF8EAE700BFE02E00203E
:101D38000004004003689A6912F0020F01D00022E3
:101D48009A6203689A6912F0010F03D19A6942F006
:101D580001029A61704770B4039E05686868740D43
:101D680004F4806444F07F7444F4583444F47F7479
:101D780044F0030420EA0400C1F3090141EA0241E6
:101D8800194331430143696070BC704770B504461C
:101D98000D46164603689B6913F0100F17D0236889
:101DA8009A6912F0200F14D1B5F1FF3FF7D025B191
:101DB80001F036F8801BA842F1D9202384F841307D
:101DC800002384F8423084F8403003201EE00020CD
:101DD8001CE01022DA6123682025DD612046FFF728
:101DE800A9FF2268536823F0FF7323F48B3323F48D
:101DF800FF7323F0010353600423636484F84150A4
:101E0800002384F8423084F84030012070BD70B55A
:101E180004460D46164623689B6913F0020F1CD131
:101E2800324629462046FFF7B1FFC0B9B5F1FF3F5A
:101E3800F1D025B100F0F4FF801BA842EBD9636C08
:101E480043F020036364202384F84130002384F89E
:101E5800423084F84030032000E0002070BD0120AB
:101E6800FCE7F8B505460F4616461C462B689B69E5
:101E780037EA03030CBF01230023B34213D1B4F1A3
:101E8800FF3FF3D02CB100F0CBFF069BC01AA04255
:101E9800ECD9202385F84130002385F8423085F8B5
:101EA8004030032000E00020F8BD000070B582B08B
:101EB800044616461D461E4B00934FF08073EAB247
:101EC800FFF749FF079A06992046FFF7A0FF30B1B0
:101ED800636C042B27D10123184602B070BD012D75
:101EE8000FD12368F6B29E62079B0093069B0022DF
:101EF80080212046FFF7B5FF03460028ECD00323D6
:101F0800EAE72368320A9A62079A06992046FFF799
:101F18007EFF20B1636C042B07D10123DCE7236823
:101F2800F6B29E62E0E70323D6E70323D4E700BFB7
:101F38000020008070B505460C4616462B689B6944
:101F480013F0200F19D1324621462846FFF71EFF0D
:101F5800A8B924B100F064FF801BA042EED96B6CD5
:101F680043F020036B64202385F84130002385F873
:101F7800423085F84030032070BD0020FCE7012086
:101F8800FAE7002859D010B5044690F84130002BE4
:101F980043D0242384F841302268136823F00103D6
:101FA80013606368226823F0706313612268936882
:101FB80023F400439360E368012B33D0A3682268BD
:101FC80043F404439360E368022B31D022685368DA
:101FD80043F0007343F4004353602268D36823F44A
:101FE8000043D360236962691343A169226843EA05
:101FF8000123D360E369216A22680B4313602268D6
:10200800136843F00103136000206064202384F800
:102018004130206384F8420010BD80F84030FFF75B
:10202800C7FAB6E7A368226843F400439360CAE797
:1020380023684FF400625A60C8E7012070472DE911
:10204800F04782B0BDF82C7090F84150EDB2202DC9
:1020580040F0CB800A9C002C00F0CC80002F00F0D0
:10206800CB8090F84040012C00F0C88098469146FB
:102078000D4604464FF0010A80F840A000F0D0FE5B
:1020880006460090192352464FF400412046FFF7B8
:10209800E8FE002840F0B480212384F84130402332
:1020A80084F84230002363640A9A62626785636336
:1020B80001960C9B009343464A4629462046FFF763
:1020C800F5FE60B1636C042B04D1002384F8403022
:1020D80053468BE0002384F84030032386E0638D69
:1020E8009BB2FF2B0AD9FF222285002300934FF0D1
:1020F800807329462046FFF72EFE21E0628D92B2BA
:102108002285002300934FF00073D2B2294620465F
:10211800FFF721FE14E0636C042B73D1012365E003
:10212800628D92B22285002300934FF00073D2B2E1
:1021380029462046FFF70FFE638D9BB2002B32D055
:1021480032460C992046FFF762FE0028E3D1636A05
:102158005A1C626222681B789362638D013B9BB2B2
:102168006385238D013B9BB22385002BE4D1638DCE
:102178009BB2002BE0D000960C9B002280212046C9
:10218800FFF76FFE00283FD1638D9BB2FF2BC7D9A5
:10219800FF222285002300934FF0807329462046B2
:1021A800FFF7D9FDC8E732460C992046FFF7C2FE73
:1021B800034620B1636C042B28D1012316E0226862
:1021C8002021D1612068426822F0FF7222F48B320C
:1021D80022F4FF7222F00102426084F841100022CA
:1021E80084F8422084F8402000E00223184602B018
:1021F800BDE8F0870123F9E70123F7E70223F5E7B4
:102208000323F3E70323F1E70323EFE70323EDE7D2
:1022180090F84130DBB2202B24D190F84030012BCC
:1022280022D0012380F84030242380F8413002680E
:10223800136823F0010313600268136823F48053C2
:10224800136002681368194311600268136843F049
:1022580001031360202380F84130002380F84030C8
:1022680018467047022070470220704790F84130A6
:10227800DBB2202B22D190F84030012B20D0012353
:1022880080F84030242380F841300268136823F036
:10229800010313600268136823F4706343EA0121A1
:1022A80011600268136843F001031360202380F86B
:1022B8004130002380F840301846704702207047AC
:1022C800022070470268136823F0004313607047C8
:1022D80082B20023184601E052080133082B04D8C3
:1022E80012F0010FF8D00130F6E7704738B5044610
:1022F8000268136843F00043136000F091FD05463F
:1023080023689B68002B06DB00F08AFD401BC82869
:10231800F6D9032000E0002038BD10B50446036A52
:102328004362C36A6BB90268536843F4004353605D
:1023380094F83C30012B1ED0052384F83C30002053
:1023480010BDFFF7D3FF58B9E36A012B0DD02268FF
:102358005368216B0B4353602046FFF7B3FFE7E751
:10236800FF2384F83C300320EAE72268136843F42B
:1023780080431360F0E70423DFE730B583B00446F9
:10238800C369012B12D000F04BFD054623689B68FA
:1023980013F4005F13D000F043FD401BC828F5D9A3
:1023A800FF2384F83C30032003B030BD03681A6E65
:1023B8000192019A5A6822F020025A60E3E7E36A20
:1023C8009BB9E369012B2BD023681A6E0192019AFD
:1023D800DA6842F00402DA6094F83C30042B25D025
:1023E800032384F83C300020DEE72046FFF77EFF19
:1023F80058B9E36A012B0DD02268536823F4C0430F
:1024080053602046FFF75EFFDBE7FF2384F83C308C
:102418000320C9E72268136823F480431360F0E7B8
:102428002268536843F020035360CDE70123D8E7BF
:1024380000284AD010B5044600238361C3610122F5
:10244800026242628362C3624FF4005202634363D2
:1024580083630364FFF7ACF92268136823F4E0533D
:10246800136021680B686268E068024313430B60DD
:102478002268536823F08073536022685368A16808
:102488000B435360124B1B6803F440732269934259
:102498000ED12268536843F00103536023689B6898
:1024A80013F4004FFAD1012384F83C30002010BD0A
:1024B800074B1A6822F440721A601A6821690A43A5
:1024C8001A60022000F0B2FCE3E70120704700BF69
:1024D80000600140F8B590F83C30012B02D001258E
:1024E8002846F8BD17460E460446FFF7FFFE054688
:1024F80070B9216801EB86013B687A681343BA68B2
:102508001343FA6813430B622046FFF7DBFEE7E745
:10251800FF2384F83C300325E2E70000F8B590F883
:102528003C30012B02D001273846F8BD16460C4630
:102538000546FFF7DBFE0746B8B9104B9C4219D099
:10254800210C2868036C890001F01F0103228A40CE
:1025580023EA020303642A68136C06FA01F119439B
:1025680011642846FFF7AEFEDEE7FF2385F83C300E
:102578000327D9E72B685E64F3E700BF0001080072
:1025880090F83C30013BDBB2FD2B18D810B503683E
:102598008CB25C61012A0CD00468636823F02003C4
:1025A80063600446C2610846FFF792FE206200207D
:1025B80010BD0468636843F020036360F1E70120FD
:1025C8007047000002680A4B9A4209D090F83C20F4
:1025D800531EDBB2012B07D9042A05D0012070470E
:1025E8000129F3D10120704781620020704700BFA4
:1025F800006001400268094B9A4208D090F83C30CC
:10260800013BDBB2022B06D8C162002070470129CA
:10261800F4D1012070470120704700BF00600140DD
:10262800F8B590F83C30012B02D001252846F8BDBA
:1026380017460E460446FFF759FE054668B9226854
:10264800536823F4706353602368596831435960B1
:1026580027632046FFF736FEE8E7FF2384F83C307F
:102668000325E3E770B590F83C30012B02D0012533
:10267800284670BD0E460446FFF738FE054660B989
:102688002268536823F04003536023685968314334
:1026980059602046FFF716FEEAE7FF2384F83C302E
:1026A8000325E5E770B590F83C30012B02D00125F1
:1026B800284670BD0E460446FFF718FE0546A0B929
:1026C8002268536823F0060353602368596831432E
:1026D80059602046FFF7F6FD2268536843F010035F
:1026E8005360022384F83C30E2E7FF2384F83C304F
:1026F8000325DDE790F83C30022B01D0012070471C
:1027080070B50D46044600F08BFB064623689A68B0
:1027180012F0010F0BD1B5F1FF3FF7D000F080FBAD
:10272800801BA8420CD8002DF0D1032007E0DA68FE
:1027380042F00102DA60012384F83C30002070BDC9
:102748000320FCE710B50468246814F4003F3CD16A
:10275800C36A3BB9C4692CB94469A46914B9046A49
:10276800944234D32BB9C3691BB943699B69202BA5
:102778002FD090F83C30012B03D0032B01D001203F
:1027880024E04369144C9C624369144C1C634369FC
:102798009C69202C12D013460A460446006801683A
:1027A80041F48031016021686031606901F0AAF963
:1027B80038B1FF2384F83C30012007E0084CDC6284
:1027C800E9E72046FFF7A9FD00E0012010BD012040
:1027D800FCE70120FAE700BF312800083D2800087F
:1027E8002728000890F83C30043BDBB2012B01D9C4
:1027F8000120704710B504460268136823F480333B
:102808001360406901F0B8F920B1FF2384F83C3027
:10281800012010BD2046FFF7B0FDFAE7704708B564
:10282800406AFFF7FBFF08BD08B5406AFEF7ECFAFF
:1028380008BD704708B5406A03230364FFF7F9FF32
:1028480008BD00000368B0F1804F0ED02C4A9042BA
:102858000BD002F58062904207D002F58062904268
:1028680003D002F5A832904203D123F070034A68DE
:102878001343B0F1804F26D0214A904223D002F56D
:10288800806290421FD002F5806290421BD002F510
:102898004062904217D002F58062904213D002F550
:1028A800806290420FD002F5903290420BD002F530
:1028B8008062904207D002F58062904203D002F510
:1028C800A052904203D123F44073CA68134323F003
:1028D80080034A69134303608B68C3620B68836291
:1028E800084B984207D003F58063984203D003F55C
:1028F8008063984201D10B690363012343617047E8
:102908000004004000400140A8B110B5044690F80A
:102918003D305BB1022384F83D30211D2068FFF76C
:1029280091FF012384F83D30002010BD80F83C3031
:10293800FFF7D6F8EEE701207047A8B110B50446B6
:1029480090F83D305BB1022384F83D30211D2068AA
:10295800FFF778FF012384F83D30002010BD80F890
:102968003C30FFF763F8EEE701207047002847D0B6
:10297800F8B505460C4690F83D30002B3BD00223B5
:1029880085F83D30294651F8042B936823F0070356
:1029980093602868FFF756FF29688A688E690F6A6E
:1029A8002068104326F4407626F00306A268A3693F
:1029B80042EA0323334323F47C4323F0FC03E66811
:1029C800E26946EA02261E43226A1303226943EAA1
:1029D8000213334327F0AA076268646942EA0412C3
:1029E8003A43886029688B612B681A62012385F84D
:1029F8003D300020F8BD80F83C30FFF73DF8BEE7D9
:102A08000120704730B4036A23F001030362036AAC
:102A18004468826922F073020D682A4323F0020396
:102A28008D682B43144DA84207D005F58065A84250
:102A380003D005F58065A84205D123F00803CD68C9
:102A48002B4323F004030C4DA84207D005F58065FD
:102A5800A84203D005F58065A84205D124F4407545
:102A68004C692C438D692C43446082614A684263F7
:102A7800036230BC704700BF0040014030B4036AB5
:102A880023F010030362026A4368846924F4E6446D
:102A98000D6844EA052422F020028D6842EA0512F6
:102AA8000C4DA84207D005F58065A84203D005F56E
:102AB8008065A84207D123F480634D6943EA850302
:102AC8008D6943EA8503436084614B6883630262CE
:102AD80030BC70470040014030B4036A23F480736F
:102AE8000362036A4268C56925F073050C682C43C4
:102AF80023F400738D6843EA05230C4DA84207D0E0
:102B080005F58065A84203D005F58065A84205D182
:102B18004D6942EA05128D6942EA05124260C461B4
:102B28004A68C263036230BC704700BF004001407E
:102B380030B4036A23F480530362036A4468C269A9
:102B480022F4E6420D6842EA052223F400538D6818
:102B580043EA05330A4DA84207D005F58065A84227
:102B680003D005F58065A84202D14D6944EA851471
:102B78004460C2614A680264036230BC704700BFA7
:102B88000040014038B590F83C30012B66D00D4626
:102B98000446012380F83C30022380F83D300C2A9B
:102BA8001AD8DFE802F00719191920191919341968
:102BB800191947000068FFF725FF2268936943F059
:102BC800080393612268936923F0040393612268E0
:102BD800936929690B439361012384F83D300020F0
:102BE80084F83C0038BD0068FFF748FF2268936905
:102BF80043F4006393612268936923F480639361CB
:102C080022689369296943EA01239361E4E700682C
:102C1800FFF762FF2268D36943F00803D361226893
:102C2800D36923F00403D3612268D36929690B436C
:102C3800D361D1E70068FFF77BFF2268D36943F4CB
:102C48000063D3612268D36923F48063D361226867
:102C5800D369296943EA0123D361BDE70220C1E7AB
:102C680010B4012303FA01F4036A23EA040303629C
:102C7800036A8A40134303625DF8044B70470000FF
:102C880010B5044601220068FFF7EAFF23680B4AE3
:102C9800934207D002F58062934203D002F5806226
:102CA800934203D15A6C42F400425A642268136872
:102CB80043F001031360002010BD00BF0040014035
:102CC80010B504460C290DD8DFE801F0070C0C0CF0
:102CD800270C0C0C2D0C0C0C33000268D36843F045
:102CE8000203D36001222068FFF7BAFF2368144A61
:102CF800934207D002F58062934203D002F58062C6
:102D0800934203D15A6C42F400425A642268136811
:102D180043F001031360002010BD0268D36843F03C
:102D28000403D360DEE70268D36843F00803D36086
:102D3800D8E70268D36843F01003D360D2E700BF36
:102D48000040014090F83C30012B22D030B40122E1
:102D580080F83C20022380F83D300468636823F043
:102D680070036360046863680D682B4363600468DC
:102D7800A36823F08003A3600468A36849680B4331
:102D8800A36080F83D20002380F83C30184630BC12
:102D9800704702207047000010B504460E4B1878A3
:102DA8004FF47A73B3FBF0F30C4A1068B0FBF3F0FE
:102DB80000F0A6FF68B90F2C01D901200AE0002213
:102DC80021464FF0FF3000F05BFF054B1C600020F0
:102DD80000E0012010BD00BF0C0000200000002012
:102DE8001000002008B5074A136843F01003136069
:102DF800032000F033FF0020FFF7CEFFFEF748F86E
:102E0800002008BD00200240034A1168034B1B78CC
:102E18000B441360704700BFA02F00200C00002057
:102E2800014B1868704700BFA02F002038B5044632
:102E3800FFF7F6FF0546B4F1FF3F02D0044B1B78BD
:102E48001C44FFF7EDFF401BA042FAD338BD00BF7A
:102E58000C000020002800F0F58270B582B004460E
:102E6800036813F0010F3BD0B54B5B6803F00C030C
:102E7800042B1ED0B24B5B6803F00C03082B13D055
:102E88006368B3F5803F68D0002B40F0928003F16F
:102E9800804303F504331A6822F480321A601A68F2
:102EA80022F480221A605DE0A54B5B6813F4803F32
:102EB800E6D04FF4003393FAA3F3A14B19684FF40B
:102EC800003393FAA3F3B3FA83F303F01F03012249
:102ED80002FA03F30B4203D06368002B00F0B482BC
:102EE800236813F0020F00F0C680954B5B6813F05F
:102EF8000C0F00F09C80924B5B6803F00C03082BCE
:102F080000F08F802369002B00F0F380012292FAF1
:102F1800A2F3B3FA83F303F1845303F584139B00FC
:102F28001A60FFF77DFF0546022393FAA3F3844B4B
:102F38001968022393FAA3F3B3FA83F303F01F0388
:102F4800012202FA03F30B4240F0C480FFF768FF46
:102F5800401B0228E8D9032083E2794A136843F426
:102F680080331360764AD36A23F00F03A1680B43BA
:102F7800D3626368002B36D0FFF752FF05464FF443
:102F8800003393FAA3F36E4B19684FF4003393FAA6
:102F9800A3F3B3FA83F303F01F03012202FA03F346
:102FA8000B429DD1FFF73CFF401B6428E7D9032063
:102FB80057E2B3F5A02F09D0614B1A6822F480328A
:102FC8001A601A6822F480221A60CBE703F1804362
:102FD800A3F53C331A6842F480221A601A6842F456
:102FE80080321A60BEE7FFF71BFF05464FF4003337
:102FF80093FAA3F3524B19684FF4003393FAA3F3EF
:10300800B3FA83F303F01F03012202FA03F30B421E
:103018003FF466AFFFF704FF401B6428E6D903209E
:103028001FE2474B5B6813F4803F7FF46BAF0223CA
:1030380093FAA3F3424B1968022393FAA3F3B3FA62
:1030480083F303F01F03012202FA03F30B4204D0B7
:103058002369934201D0012003E23948036823F031
:10306800F8036169F82292FAA2F2B2FA82F201FA3E
:1030780002F213430360236813F0080F00F08C80FA
:10308800A369002B60D0012191FAA1F2B2FA82F271
:103098002C4B13449B001960FFF7C2FE0546022320
:1030A80093FAA3F293FAA3F293FAA3F2244A516A89
:1030B80093FAA3F3B3FA83F303F01F03012202FA8E
:1030C80003F30B4268D1FFF7ABFE401B0228E6D999
:1030D8000320C6E11A48036823F0F8036169F8225F
:1030E80092FAA2F2B2FA82F201FA02F213430360F0
:1030F800C1E7012393FAA3F3B3FA83F303F18453EB
:1031080003F584139B0000221A60FFF789FE054629
:10311800022393FAA3F30A4B1968022393FAA3F341
:10312800B3FA83F303F01F03012202FA03F30B42FD
:10313800A1D0FFF775FE401B0228E9D9032090E1D2
:103148000010024020819010012292FAA2F2B2FAF5
:1031580082F2C04B13449B0000221A60FFF760FE06
:103168000546022393FAA3F293FAA3F293FAA3F281
:10317800B94A516A93FAA3F3B3FA83F303F01F032E
:10318800012202FA03F30B4206D0FFF749FE401B67
:103198000228E6D9032064E1236813F0040F00F045
:1031A800B380AD4BDB6913F0805F20D1AA4BDA699D
:1031B80042F08052DA61DB6903F080530193019B8E
:1031C8000125A64B1B6813F4807F12D0E368012BFE
:1031D80023D073BB03F1804303F504331A6A22F04A
:1031E80001021A621A6A22F004021A621AE0002521
:1031F800E7E79A4A136843F480731360FFF710FEF9
:103208000646964B1B6813F4807FDFD1FFF708FE54
:10321800801B6428F5D9032023E18F4A136A43F001
:1032280001031362E368002B41D0FFF7F9FD06465E
:103238002BE0052B09D0884B1A6A22F001021A628A
:103248001A6A22F004021A62ECE7834B1A6A42F007
:1032580004021A621A6A42F001021A62E2E77E4B1D
:10326800196A022393FAA3F3B3FA83F303F01F0353
:10327800012202FA03F3194245D1FFF7D1FD801B61
:1032880041F28833984200F2E180022393FAA3F2D4
:1032980093FAA3F3B3FA83F35B0943F00203022B17
:1032A800DDD0022393FAA3F36B4B596AD9E7FFF7F2
:1032B800B7FD064615E0684B196A022393FAA3F393
:1032C800B3FA83F303F01F03012202FA03F319424E
:1032D80019D0FFF7A5FD801B41F28833984200F210
:1032E800B780022393FAA3F293FAA3F3B3FA83F312
:1032F8005B0943F00203022BDDD0022393FAA3F308
:10330800554B596AD9E7B5BBE369002B00F0A88093
:10331800514A526802F00C02082A00F0A480022BDD
:103328002FD04FF0807393FAA3F3B3FA83F303F12A
:10333800845303F584139B0000221A60FFF770FD85
:1033480004464FF0007393FAA3F3434B19684FF008
:10335800007393FAA3F3B3FA83F303F01F03012274
:1033680002FA03F319426BD0FFF75AFD001B02283B
:10337800E7D9032075E0384AD36923F08053D36135
:10338800C2E74FF0807393FAA3F3B3FA83F303F120
:10339800845303F584139B0000221A60FFF740FD55
:1033A80005464FF0007393FAA3F32B4B19684FF0BF
:1033B800007393FAA3F3B3FA83F303F01F03012214
:1033C80002FA03F3194206D0FFF72AFD401B022830
:1033D800E7D9032045E020494B6823F47413626A57
:1033E800206A024313434B604FF0807393FAA3F3B0
:1033F800B3FA83F303F1845303F584139B0001228A
:103408001A60FFF70DFD04464FF0007393FAA3F31B
:10341800114B19684FF0007393FAA3F3B3FA83F3CF
:1034280003F01F03012202FA03F3194206D1FFF742
:10343800F7FC001B0228E7D9032012E0002010E067
:1034480000200EE00120704701200AE0032008E078
:10345800032006E020819010001002400070004018
:10346800002002B070BD0120FBE700BF164B596871
:1034780001F00C03082B24D101F470124FF47013DF
:1034880093FAA3F3B3FA83F322FA03F30F4AD05C57
:103498000D4BDB6A03F00F030F2292FAA2F2B2FA85
:1034A80082F2D3400A4AD25C11F4803F03D1094B1F
:1034B80003FB00F07047084BB3FBF2F300FB03F08B
:1034C80070470548704700BF00100240DC5F0008E5
:1034D800EC5F000800093D0000127A00002800F0A7
:1034E800C08070B50446614B1B6803F007038B422C
:1034F8000CD25E4A136823F007030B43136013686A
:1035080003F007038B4201D0012070BD236813F03C
:10351800020F06D0564A536823F0F003A06803430D
:1035280053600D46236813F0010F5AD06368012BCE
:103538002DD0022B40D0022292FAA2F24C4A1068F7
:10354800022292FAA2F2B2FA82F202F01F020121DA
:1035580001FA02F2104200F0868045494A6822F0DA
:10356800030213434B60FFF75BFC0646404B5B6866
:1035780003F00C036268B3EB820F32D0FFF750FC04
:10358800801B41F288339842F0D90320BDE74FF4FD
:10359800003292FAA2F2364A10684FF4003292FAD8
:1035A800A2F2B2FA82F202F01F02012101FA02F23B
:1035B8000242D2D10120A8E74FF0007292FAA2F29B
:1035C8002B4A10684FF0007292FAA2F2B2FA82F215
:1035D80002F01F02012101FA02F21042BDD10120BE
:1035E80093E7224B1B6803F00703AB420CD91F4A31
:1035F800136823F007032B431360136803F00703D2
:10360800AB4201D0012080E7236813F0040F06D0F5
:10361800174A536823F4E063E1680B435360236857
:1036280013F0080F07D0124A536823F46053216936
:1036380043EAC1035360FFF719FF0D4B5B6803F0C2
:10364800F003F02292FAA2F2B2FA82F2D340094AC7
:10365800D35CD840084B18600020FFF79DFB002082
:1036680053E70120704701204FE700BF00200240C8
:10367800001002406058000800000020F0B583B038
:103688000446036813F4803F48D07D4BDB6913F090
:10369800805F40F0A9807A4BDA6942F08052DA61A3
:1036A800DB6903F080530193019B0125754B1B686F
:1036B80013F4807F00F09A80714B1B6A13F44073F7
:1036C80022D0626802F440729A421DD06C48016AA6
:1036D80021F440764FF4803393FAA3F2B2FA82F2DF
:1036E800694F3A4492004FF0010CC2F800C093FAB7
:1036F800A3F3B3FA83F33B449B0000221A600662EB
:1037080011F0010F40F087805D4A136A23F440737B
:1037180061680B431362002D40F0A980236813F001
:10372800010F06D0564A136B23F00303A1680B431D
:103738001363236813F0020F06D0514A136B23F466
:103748004033E1680B431363236813F0040F06D07A
:103758004B4A136B23F4402321690B4313632368FB
:1037680013F0200F06D0464A136B23F0100361694B
:103778000B431363236813F4003F06D0404A536891
:1037880023F48003A16A0B435360236813F0400FAE
:1037980006D03B4A136B23F02003A1690B43136344
:1037A800236813F0800F06D0354A536823F440434A
:1037B800E1690B435360236813F4006F06D0304A65
:1037C800536823F07843216A0B435360236813F44A
:1037D800806F53D02A4A136B23F04003616A0B436E
:1037E8001363002003B0F0BD00255FE7254A136886
:1037F80043F480731360FFF713FB0646214B1B68E5
:1038080013F4807F7FF458AFFFF70AFB801B64280E
:10381800F4D90320E6E7FFF703FB064615E0184B4B
:10382800196A022393FAA3F3B3FA83F303F01F038D
:10383800012202FA03F30B427FF466AFFFF7F0FAB6
:10384800801B41F28833984216D8022393FAA3F2D8
:1038580093FAA3F3B3FA83F35B0943F00203022B51
:10386800DDD0022393FAA3F3054B596AD9E7D3694C
:1038780023F08053D36151E70320B3E70020B1E779
:10388800001002400070004000819010F0B482B037
:10389800002336E0042400E00024B4403C43023511
:1038A8005B4E46F825405B4C2568D44304EA050680
:1038B8004F6817F4803F01D042EA0506554D2E6047
:1038C8006D6804EA05064F6817F4003F01D042EA24
:1038D8000506504D6E60AD6804EA05064F6817F49A
:1038E800801F01D042EA05064A4DAE60ED682C40C3
:1038F8004E6816F4001F01D042EA0504454AD46018
:1039080001330A6832FA03F47ED001249C40224035
:10391800F6D04D68022D01D0122D10D1DE080836E0
:1039280050F826C003F00705AF000F25BD402CEA6C
:10393800050C0D69BD4045EA0C0540F8265006689F
:103948005F000325BD40ED4305EA060C4E6806F00E
:103958000306BE4046EA0C0606604E6806F1FF3CC8
:10396800BCF1010F03D9112E01D0122E10D1866897
:1039780005EA060CCE68BE4046EA0C068660466834
:1039880026EA04044E68C6F300169E4026434660A5
:10399800C46825408C68BC402C43C4604C6814F053
:1039A800805FADD01C4CA56945F00105A561A469EF
:1039B80004F001040194019C9D08AE1C144C54F8B9
:1039C800267003F00304A6000F24B44027EA040776
:1039D800B0F1904F3FF460AF104CA0420ED004F508
:1039E8008064A0420CD004F58064A0420AD004F59B
:1039F8008064A0423FF44EAF05244EE701244CE713
:103A080002244AE7032448E702B0F0BC704700BF2D
:103A1800000001400004014000100240000400487A
:103A280008B5054B5B69034200D108BD024B5861DC
:103A3800FDF7E8F9F9E700BF0004014070B4066C2F
:103A4800C56B0124B4406C60046863604368102B44
:103A580005D0036899600368DA6070BC7047036832
:103A68009A600368D960F8E702680C4B9A420AD951
:103A78000B4B13440B4AA2FB03231B099B00036453
:103A8800094BC3637047094B1344064AA2FB03233F
:103A98001B099B000364064BC3637047070402407D
:103AA800F8FBFDBFCDCCCCCC00040240F8FFFDBF35
:103AB8000000024020B310B50446022380F82130EC
:103AC80001680A6822F47F5222F030024368806855
:103AD8000343E06803432069034360690343A06923
:103AE8000343E069034313430B602046FFF7BCFF21
:103AF8000020A063012384F8213084F8200010BD41
:103B08000120704738B590F82040012C32D00124AC
:103B180080F8204090F82140012C04D0002380F840
:103B28002030022038BD0446022084F821000020FD
:103B3800A0632568286820F0010028602046FFF768
:103B48007DFFE36A5BB12268136843F00E031360DC
:103B58002268136843F0010313600020E2E722683B
:103B6800136843F00A0313602268136823F0040300
:103B78001360EDE70220D5E7034601680A6822F0E2
:103B88000E020A6001680A6822F001020A60026CEB
:103B9800C06B012101FA02F2426083F82110002073
:103BA80083F82000704738B5C36B1A680468256825
:103BB800016C04238B40134213D015F0040F10D06E
:103BC800236813F0200F03D1236823F00403236034
:103BD800016CC26B04238B405360C36A03B19847DE
:103BE80038BD02238B4013421AD015F0020F17D0AC
:103BF800236813F0200F06D1236823F00A032360FB
:103C0800012380F82130016CC26B02238B40536082
:103C1800002380F82030836A002BE1D09847DFE743
:103C2800082303FA01F11142DAD015F0080FD7D0B2
:103C3800236823F00E032360026CC16B012303FA8F
:103C480002F24A60836380F82130002380F8203034
:103C5800036B002BC4D09847C2E70000074AD3681B
:103C680023F4E0631B041B0C000200F4E06018431B
:103C780040F0BF6040F40030D060704700ED00E0D5
:103C880030B4174BDB68C3F30223C3F10704042CD9
:103C980028BF04241D1D062D18D9033B4FF0FF35FE
:103CA80005FA04F421EA0401994005FA03F322EA2B
:103CB8000303194300280BDB0901C9B200F1604076
:103CC80000F5614080F8001330BC70470023E5E739
:103CD80000F00F000901C9B2024B1954F4E700BF04
:103CE80000ED00E014ED00E000F01F0240090123A0
:103CF8009340024A42F82030704700BF00E100E0DC
:103D08000138B0F1807F0AD2064B5860064AF0218C
:103D180082F823100020986007221A60704701205B
:103D2800704700BF10E000E000ED00E082B0084BF3
:103D3800DA6942F08052DA61DB6903F0805301935B
:103D4800019B044A13681843106002B0704700BF13
:103D5800001002400070004000B583B0124B5A6951
:103D680042F002025A615B6903F002030193019B6E
:103D7800002211463A20FFF783FF3A20FFF7B4FFED
:103D8800002211463B20FFF77BFF3B20FFF7ACFFEB
:103D9800002211463C20FFF773FF3C20FFF7A4FFE9
:103DA80003B05DF804FB00BF00100240DFF834D018
:103DB800002103E00C4B5B58435004310B480C4B7B
:103DC80042189A42F6D30B4A02E0002342F8043B19
:103DD800094B9A42F9D3FDF773F800F03DF8FCF768
:103DE80003FFFEE7008000201C610008000000209F
:103DF8007C0000207C000020A82F0020FEE70000A7
:103E080030B52DED028BB0EE408AF0EE608A0C469C
:103E1800002283B00546002351EC100BFCF7FEFD91
:103E2800224618B12D2302F8013B013D0023094821
:103E3800009329466723B0EE480AF0EE680A006846
:103E480000F0AAF8002814BF2046002003B0BDECFB
:103E5800028B30BD1400002070B50D4E0D4CA41B14
:103E6800A4100025A54209D10B4E0C4C01F0DCFC36
:103E7800A41BA4100025A54205D170BD56F8253015
:103E880098470135EEE756F8253098470135F2E7AF
:103E98001461000814610008146100081861000822
:103EA80002440346934200D1704703F8011BF9E727
:103EB800F0B587B043EC102B0C9C9DF834600E9D38
:103EC80004AB019303AB00930F4605AB0221621CC0
:103ED80000F032FD0146059842F20F73984204D172
:103EE800384600F095FC07B0F0BD0B783B70002D0C
:103EF80043D1002C41D17B1C11F8012F0AB1002CB1
:103F08003FDC672E44D0472E44D01A461D1930276F
:103F1800A91A002939DC002CA8BF1B19411E002949
:103F2800B8BFC0F101000591B8BF05901A460598C1
:103F380002F8026BB5BF2D212B21597059706328E7
:103F48000BDD642190FBF1F101F13004DA1C9C7067
:103F58006FF0630303FB0101059105990A2391FBA7
:103F6800F3F303F1300010706FF0090000FB031346
:103F78003033537000239370B5E72E22BB1C7A7040
:103F8800BAE703F8012B013CB6E702F8017BBFE76B
:103F98006526C3E74526C1E72DE9F04755EC104BE8
:103FA80088B081460F4616469A460022002310EE36
:103FB800100A2946DDF84080FCF730FD10B105F104
:103FC80000431D460022002320462946FCF71CFD1D
:103FD80038B13023337000237370304608B0BDE821
:103FE800F08750A3D3E9002320462946FCF720FD9B
:103FF80050B1013FCDE901A8009722462B46314632
:104008004846FFF755FFE8E7384600F06BFB2246C5
:104018002B4651EC100BFCF70BFD0028E9D10022D0
:104028003F4B20462946FCF7F9FC07AA06ABCDE929
:10403800003205AB3A4660B3032145EC104B4846C5
:1040480000F07AFC059A42F20F739A4223D0334665
:104058003744014610F8012B059DFC1A2AB3002DA0
:104068001EDCB8F1000F02D10A78002A45D09E4222
:1040780002BF731C302232702E221A70059A013347
:1040880000203027002A154624DB00B105924A1E7D
:104098002BE00221D1E70146304600F0B9FB9CE74E
:1040A800013D03F8012B0595D3E72D1B302705E0CB
:1040B800002C06DD03F8017B013C012228190028A9
:1040C800F6DC002ACDD00590CBE703F8017B013C54
:1040D8000120D7E7002C02F10102F6DC0028D6D037
:1040E8000595D4E703F8011B013C12F8011F09B13B
:1040F800002CF7DCB8F1000F0BD100221A706CE726
:1041080002F8015B811A0029FADC002CA8BF1B19F0
:10411800F3E71A4618193025F4E700BFAFF300801B
:104128000000F03F2D431CEBE2361A3F70B5456A9C
:1041380004460E463DB9102001F0B6F96062C0E9A8
:1041480001550560C560656AEB6883B1636ADB6821
:1041580053F82600B8B9012101FA06F56A1D920044
:10416800204600F0DDFA60B1C0E901650EE02122C9
:104178000421204600F0D4FA636AE860DB68002B6B
:10418800E4D1002070BD026843F826200023C0E96E
:104198000333F7E770B5446A06460D463CB910206C
:1041A80001F082F97062C0E901440460C4603DB165
:1041B800736A6A68DB6853F82210296043F8225052
:1041C80070BD2DE9F0410D691F4606460C4601F108
:1041D800140C0023DCF8000081B202FB01710F0C03
:1041E800000C02FB007089B2013301EB00419D42D3
:1041F8004FEA10474CF8041BECDCD7B1A368AB427C
:1042080012DC616830460131FFF790FF2269023203
:1042180004F10C01804692000C3001F04DF9214662
:104228003046FFF7B7FF444604EB850301355F616D
:1042380025612046BDE8F081020C12040346B2B99C
:104248000304102013F07F4F04BF1B02083013F043
:10425800704F04BF1B01043013F0404F04BF9B0094
:104268000230002B06DB5B0003D5013070470020CD
:10427800E8E720207047036813F0070201460BD0D7
:10428800DA0723D4980749BF5B089B0801200B6015
:104298005CBF0B600220704798B2A8B91B0C1020B5
:1042A80013F0FF0F04BF1B0A08301A0704BF1B09CD
:1042B80004309A0704BF9B080230DA0702D45B086F
:1042C80006D001300B6070471046E9E700207047C0
:1042D8002020704710B50C460121FFF727FF012267
:1042E8004461026110BD2DE9F74F14460A6923693C
:1042F8009A42B8BF0B468846BCBFA0461C46D8F8B1
:104308001070D4F81090D8F80830D8F8041007EBDB
:104318000906B342B8BF0131FFF708FF00F11405E1
:1043280005EB860E2B460022734516D304F11402C2
:1043380008F1140102EB890301EB87070093009B46
:10434800019293420CD8002E03DD5EF8043D002B49
:104358005DD0066103B0BDE8F08F43F8042BE3E7B6
:10436800B2F800B0BBF1000F23D08946AC464FF03D
:10437800000859F8044BDCF800A0A3B21FFA8AFA27
:104388000BFB03A34FEA144ADCF8004043444FEA0E
:1043980014480BFB0A8404EB1344E2469BB243EA3D
:1043A80004434F454FEA14484AF8043B2BD8CCF84D
:1043B8000480019BB3F802A00432BAF1000F20D0A8
:1043C8002B688946A8464FF0000BB9F800C0B8F82A
:1043D80002400AFB0C445C44C4469BB243EA0443D3
:1043E8004CF8043B59F8043BB8F804B01B0C0AFB22
:1043F80003B303EB14434F454FEA134B05D8C8F8F2
:10440800043004359BE7D446B3E7E046DDE7013ED8
:1044180099E700002DE9F843154612F00302064615
:104428000F4607D0013A214C002354F82220FFF709
:10443800C8FE0746AD1035D0746A3CB9102001F0AB
:1044480033F87062C0E901440460C460D6F824807F
:10445800D8F808404CB940F271213046FFF73AFFCE
:104468000023C8F80800044603604FF00008EB0773
:104478000AD5394622463046FFF735FF3946814688
:104488003046FFF787FE4F466D100BD0206838B9CD
:10449800224621463046FFF726FF2060C0F80080FC
:1044A8000446E4E73846BDE8F88300BFF06000083A
:1044B8002DE9F0470C464FEA621A236949680AEB6E
:1044C8000309A3680746164609F10105AB4232DB2A
:1044D8003846FFF72BFE0023804600F114011A46E8
:1044E80053452BDB20692AEAEA7A04F1140316F013
:1044F8001F0201EB8A0103EB800C25D0C2F1200ECC
:1045080000201E688A46964030434AF8040B53F848
:10451800040B9C4520FA0EF014D8486008B109F144
:104528000205013D3846C8F810502146FFF732FE13
:104538004046BDE8F08701315B00C7E741F823201A
:104548000133CDE75146DCE7043953F8042B41F831
:10455800042F9C45F9D8E4E703690A699B1A30B52A
:104568000CD19200143014318418114454F8045DAD
:1045780051F8042D954203D005D30123184630BDC8
:10458800A042F3D3FAE74FF0FF33F7E72DE9F047FE
:104598000D460746114628461446FFF7DDFF061E5E
:1045A80008D131463846FFF7C1FD0123C0E904367A
:1045B800BDE8F087A4BF23462C4638466168A6BFED
:1045C8001D4600260126FFF7B1FD2B69C660266946
:1045D80005F1140904F1140202EB860709EB8308BC
:1045E80000F114054FF0000E52F804AB59F8044BD3
:1045F8001EFA8AF1A3B2C91A230CC3EB1A4303EBC0
:10460800214389B24FEA234EC84541EA0343944601
:1046180045F8043BE8D8BC4504D355F8043D83B1BC
:104628000661C5E75CF8041B1EFA81F31A1402EB55
:1046380011429BB243EA02434FEA224E45F8043B3B
:10464800E9E7013EE9E72DE9F7430E46012159EC78
:10465800108B1546FFF76AFDC9F30A540746C9F3DC
:10466800130334BB0193B8F1000327D002A840F824
:10467800083DFFF700FE0099F0B1019AC0F1200350
:1046880002FA03F30B43C2407B610192019BBB61B9
:10469800002B14BF022101213961C4B1A4F23344B3
:1046A80004443460C0F135002860384603B0BDE8E2
:1046B800F08343F48013D5E77961E7E701A8FFF7B2
:1046C800DAFD019B7B61012139612030E5E707EBC9
:1046D8008103A0F2324030601869FFF7ADFDC0EBEE
:1046E8004110E1E71728D0B5044607DC094B03EB76
:1046F800C004D4E9000141EC100BD0BD0649074FB6
:104708000020002632463B46FBF716FF013CF9D154
:10471800F1E700BF286000080000F03F00002440D7
:1047280038B502FB01F4214600F008F8054618B137
:1047380022460021FFF7B4FB284638BD70B5CD1CD2
:1047480025F0030508350C2D38BF0C25002D06462D
:1047580001DBA94203D90C233360002070BD00F0AF
:10476800B6FE214A1468214691B9204C23681BB92A
:10477800304600F03DF820602946304600F038F811
:10478800431C24D10C233360304600F0A1FEE4E73B
:104798000B685B1B18D40B2B0FD90B60CD50CC18B2
:1047A800304600F095FE04F10B00231D20F00700B1
:1047B800C31AD3D05A42E250D0E78C424B6816BF96
:1047C800636013600C46EBE70C464968CCE7C41CF1
:1047D80024F00304A04205D0211A304600F008F85E
:1047E8000130CFD02560DBE7980000209C00002036
:1047F80038B5064C002305460846236001F000F84A
:10480800431C02D1236803B12B6038BDA42F0020BC
:10481800034611F8012B03F8012B002AF9D1704740
:104828002DE9F74F03690C69A3428046C0F28280E4
:10483800013C01F114074FEA840C00F1140657F803
:10484800245056F8240006EB0C03013507EB0C093D
:104858000193B0FBF5F595B34FF0000A3846B6461C
:10486800D34650F8042B93B205FB03A34FEA134A2F
:104878009BB2ABEB0303120CDEF800B005FB02A2FF
:1048880013FA8BF34FEA124A1FFA82FBDEF8002074
:10489800CBEB124202EB23429BB243EA024381452F
:1048A8004FEA224B4EF8043BDBD256F80C3033B9B2
:1048B800019B043B9E421A4630D3C8F8104040463C
:1048C800FFF74AFE002825DB013530464FF0000C83
:1048D80057F8042BD0F800E093B2ACEB0303120CAA
:1048E80013FA8EF3C2EB1E4202EB23429BB243EA59
:1048F8000243B9454FEA224C40F8043BE8D256F847
:10490800242006EB84032AB9043B9E421A460BD3A3
:10491800C8F81040284603B0BDE8F08F1268043B81
:10492800002ACAD1013CC5E71268043B002AEFD12E
:10493800013CEAE70020EEE72DE9F04F57EC106B59
:1049480097B0456A069104460B921293DDF8808071
:10495800CDE900673DB9102000F0A6FD6062C0E90E
:1049680001550560C560636A196851B15A684A60A3
:10497800012393408B602046FFF70CFC636A0022FA
:104988001A603B1EBBBF23F00043019300230122A2
:10499800ACBFC8F80030C8F80020AF4BDDF8048081
:1049A80033EA080314D1129A42F20F731360009B82
:1049B80023B9C8F31300002800F04285219BDFF8D3
:1049C800ACB2002B00F044850BF1030300F03EBDB0
:1049D800DDE900670022002330463946FCF714F869
:1049E800814668B1129A01231360219B002B00F0C5
:1049F80024859A4B219A03F1FF3B136000F028BDF0
:104A080014AA15A947EC106B2046FFF71CFEC8F343
:104A18000A550490002D7CD0C7F3130343F07F5B45
:104A2800B2464BF4401BA5F2FF35CDF84C9000225E
:104A38008B4B50465946FBF7C7FB81A3D3E90023AC
:104A4800FBF77AFD80A3D3E90023FBF7BFFB0646FB
:104A580028460F46FBF706FD7DA3D3E90023FBF7A5
:104A68006BFD02460B4630463946FBF7AFFB064660
:104A78000F46FBF7FBFF00228246002330463946EB
:104A8800FBF7CCFF48B15046FBF7ECFC32463B46FF
:104A9800FBF7BAFF08B90AF1FF3ABAF1160F59D86D
:104AA800704901EBCA01DDE90023D1E90001FBF7F8
:104AB800D3FF002850D00AF1FF3A00230F93149B2C
:104AC8005D1BB5F1010849BFC5F10103002305933A
:104AD8004FF0000858BF0593BAF1000F3EDB0023E2
:104AE800D044CDF838A00793069B092B00F290809C
:104AF800052BC4BF043B0693069BA3F10203CCBF5E
:104B080000250125032B00F28F80DFE803F07D7F6D
:104B18003171DDE914531D4405F23240202813DDBC
:104B2800C0F14000009B08FA00F805F2124023FA91
:104B380000F048EA0000FBF785FC01238246A1F15A
:104B4800F87B013D139372E7009BC0F1200003FA44
:104B580000F0F0E70123B1E70F90B0E7059BA3EB66
:104B68000A030593CAF10003079300230E93BBE7DA
:104B780001230A930B9B002B59DD02939946666A21
:104B880000227260042202F114009842716853D91D
:104B98002046FFF7CBFA636A3060B9F10E0FD3F8FD
:104BA80000B000F2E680002D00F0E3809DED007B70
:104BB800BAF1000F8DED107B74DD2A4A0AF00F035D
:104BC80002EBC30393ED007B4FEA2A16F0068DED46
:104BD800087B65D5244BDDE91001D3E90823FBF7F1
:104BE800D5FDCDE9000106F00F0603251E4F4CE068
:104BF80001230A930B9B534403F1010902934B468B
:104C0800012BB8BF0123BAE70023B2E70023F0E77E
:104C18000125002306930A954FF0FF330293994626
:104C2800002212230B92AAE701230A93F4E7012337
:104C3800029399461A46F5E7013171605200A2E7DE
:104C480061436F63A787D23FB3C8608B288AC63F8A
:104C5800FB799F501344D33F0000F07F0A6100089E
:104C68000000F83F2860000800600008056100089F
:104C7800F10708D5DDE90801D7E90023FBF75CFC5B
:104C8800CDE90801013576100837002EF0D1DDE9AD
:104C98000823DDE90001FBF779FDCDE900011AE001
:104CA8000225A3E700F0A080CAF100069F4BA04FA1
:104CB80006F00F0203EBC203D3E90023DDE910017C
:104CC800FBF73AFCCDE90001361100230225002E3E
:104CD8007FD1002BE1D10F9B002B00F08780DDE90D
:104CE80000670022934B30463946FBF797FE0028B1
:104CF8007CD0B9F1000F79D0029B002B35DD0AF189
:104D0800FF330893394600228B4B3046FBF714FCDF
:104D1800CDE90001029F01352846FBF7A3FBDDE939
:104D28000023FBF709FC0022844BFBF74FFA0546EA
:104D3800A1F15076002F5DD10022814BDDE9000101
:104D4800FBF742FA2A463346CDE90001FBF784FE19
:104D5800002840F088822A4606F10043DDE9000178
:104D6800FBF75CFE002840F07C82DDE91023CDE9EA
:104D78000023159B002BC0F25081BAF10E0F00F3EF
:104D88004C816A4B03EBCA0393ED007B0B9B002B12
:104D98008DED027B80F2D880B9F1000F00F3D4804A
:104DA80040F05E820022664B51EC170BFBF7C4FB08
:104DB800DDE90023FBF746FE4F464E46002840F04B
:104DC800348231230BF101058BF800300AF1010A16
:104DD8002FE2F20705D5D7E90023FBF7ADFB013534
:104DE80001237610083772E7022574E7CDF820A072
:104DF8004F4691E74D4B03EBC70353E902010A9B6A
:104E0800002B47D002460B4600204E49FBF7BEFC5C
:104E18002A463346FBF7D8F9CDE90C015D46DDE9B2
:104E28000001FBF723FE0646FBF71CFB02460B4678
:104E3800DDE90001FBF7C8F9303605F8016BDDE95B
:104E48000C23CDE90001FBF7E9FD002863D1DDE97A
:104E5800002300203749FBF7B7F9DDE90C23FBF7FE
:104E6800DDFD002840F0B780A5EB0B039F427FF7DC
:104E78007CAF0022304BDDE90C01FBF75DFB002223
:104E8800CDE90C012C4BDDE90001FBF755FBCDE921
:104E98000001C4E72A463346FBF74EFBCDE90C0177
:104EA8000BEB07055E46DDE90001FBF7DFFD074672
:104EB800FBF7D8FA303702460B46DDE90001FBF76D
:104EC80083F906F8017BAE42CDE900014FF00002FC
:104ED80026D11C4BDDE90C01FBF778F902460B469D
:104EE800DDE90001FBF7B8FD002874D1DDE90C23EA
:104EF80000201449FBF768F902460B46DDE900017A
:104F0800FBF78CFD00283FF430AF15F8013C302B3F
:104F180005F1FF3202D0DDF820A04AE01546F4E79B
:104F2800054BFBF709FBCDE90001BCE72860000849
:104F3800006000080000F03F0000244000001C4012
:104F4800000014400000E03FDDE900675D46DDE950
:104F5800022330463946FBF719FCFBF787FD8046EC
:104F6800FBF780FADDE90223FBF7E6FA02460B4677
:104F78003046394608F13006FBF726F905F8016B8B
:104F8800A5EB0B06B14502460B4639D1FBF71EF9D6
:104F9800DDE9022306460F46FBF75EFDC8B9DDE9E9
:104FA800022330463946FBF72FFD10B118F0010FE8
:104FB8000FD104992046FFF7EDF80023129A2B70C1
:104FC8000AF101031360219B002B00F041821D6050
:104FD8003EE2CDF820A015F8012C392A05F1FF335F
:104FE80008D19B450AD1089B0133089330238BF8DD
:104FF80000305B461A7801321A708CE71D46EAE7E2
:1050080000229B4BFBF798FA0022002306460F4626
:10501800FBF7FAFC00289AD0CBE70A9A002A00F09E
:105028008B80069A012A6EDC139A002A67D003F255
:105038003343079F059D059A01211A44204605928E
:105048009844FFF747F90646002D0CDDB8F1000F2C
:1050580009DD4545059A2B46A8BF4346D21A059255
:10506800ED1AA8EB0308079BEBB10A9B002B67D04E
:105078008FB131463A462046FFF7CCF9049A0146EB
:1050880006462046FFF72FF9049908902046FFF7B7
:1050980081F8089B0493079BDA1B04D004992046E7
:1050A800FFF7B8F9049001212046FFF713F90E9B8A
:1050B8000746002B00F0D0811A4601462046FFF72C
:1050C800A9F9069B012B074640DC009B002B39D130
:1050D800019BC3F31303002B36D1019B23F000433C
:1050E8001B0D1B052BB1059B0133059308F1010826
:1050F800012307930E9B002B2AD1012030E0149B3B
:10510800C3F1360395E7079B09F1FF37BB42BFBFE1
:10511800079B0797FA1A0E9BBBBF9B180E93DF1BC2
:105128000027B9F1000FB5BF059B059DA3EB090545
:105138004B46B8BF00237EE7079F059D0A9E83E77D
:10514800079AABE70023D4E7009BD2E70023079335
:105158003B6907EB83031869FFF76EF8C0F120007D
:10516800404410F01F0047D0C0F12003042B3BDD62
:10517800059BC0F11C000344059305448044059B2E
:10518800002B05DD1A4604992046FFF791F9049093
:10519800B8F1000F05DD394642462046FFF788F989
:1051A80007460F9B53B339460498FFF7D5F90028F3
:1051B80024DA00230A2204992046FFF702F80A9B02
:1051C80004900AF1FF3A002B00F04D81002331468C
:1051D8000A222046FEF7F5FF029B002B06464FDC0D
:1051E800069B022B4CDD11E0C9D0059A1C331A44EA
:1051F80005921D449844C2E70346F6E7B9F1000F4B
:1052080038DC069B022B35DDCDF80890029B63B98C
:10521800394605222046FEF7D4FF01460746049882
:10522800FFF79AF900283FF7CCAD0B9B5D466FEA74
:10523800030A4FF0000939462046FEF7ABFF002E5F
:105248003FF4B7AEB9F1000F05D0B14503D04946D8
:105258002046FEF79FFF31462046FEF79BFFA8E653
:1052680000273E46E1E7DDF820A03E46A9E500BF5D
:10527800000024400A9BCDF80890002B00F0FA802B
:10528800002D05DD31462A462046FFF711F906466E
:10529800079B002B4CD071682046FEF747FF326908
:1052A80002320546920006F10C010C3000F004F9B8
:1052B800012229462046FFF7FBF8009BCDF814B0E1
:1052C80003F00103B1460793064639460498FFF7F1
:1052D800A7FA4946054600F130080498FFF73CF95B
:1052E8003246009039462046FFF750F9C368024617
:1052F80003BB014608900498FFF72EF9089A034665
:10530800114620460893FEF745FF089BA3B9069A65
:1053180092B9079A82B9B8F1390F29D0009B002BAE
:1053280001DD05F13108059B5D1C83F8008082E7EB
:105338003046C2E70123E3E7009A002A04DB25D1BF
:10534800069A1ABB079A0ABB002BECDD01220499C6
:105358002046FFF7ADF839460490FFF7FDF800281E
:1053680003DCE0D118F0010FDDD0B8F1390FD8D146
:10537800059B059A5D1C3923137015F8013C392BE0
:1053880005F1FF324FD00133137054E7059A002B13
:1053980002F1010506DDB8F1390FE9D008F101087D
:1053A800059BC2E7029A05F8018CA5EB0B03934213
:1053B80021D000230A2204992046FEF702FFB145B6
:1053C80004904FF000034FF00A024946204605D1E9
:1053D800FEF7F7FE81460646059576E7FEF7F1FEED
:1053E8003146814600230A222046FEF7EAFE064699
:1053F800F2E74FF00009012204992046FFF758F818
:1054080039460490FFF7A8F80028B6DC02D118F056
:10541800010FB2D115F8013C302B05F1FF327FF4B2
:105428000AAF1546F6E7934505D131230AF1010A7B
:105438008BF80030FFE615469FE7DFF864B007E019
:10544800219BDFF860B01BB10BF10803219A1360B0
:10545800584617B0BDE8F08F069B012B7FF735AE95
:105468000E9B079349E6029B002B03DC069B022B4D
:105478003FF7CCAE5D4639460498FFF7D1F900F105
:10548800300805F8018B029AA5EB0B039A42B0DDB0
:1054980000230A2204992046FEF793FE0490EAE7C7
:1054A80009610008FC600008024B01461868FFF714
:1054B80045B900BF1400002010B5431E0A449142AC
:1054C80000D110BD11F8014B03F8014FF7E7704701
:1054D8007047000008B500F007F8DFED027A80EEAB
:1054E800270A08BD1872313F10B52DED028B8AB01E
:1054F800B0EE408A00F074F8344B93F90040631C16
:1055080009D0B4EE488AF1EE10FA04D6B5EEC08A96
:10551800F1EE10FA03DD0AB0BDEC028B10BD2C4B86
:10552800019318EE100A00230893FAF7ADFFCDE9AE
:105538000401CDE90201DCB9264BB5EE408A4FF0F3
:105548006042F1EE10FACDE9062336D1022300932A
:10555800684600F04BF9C0B1089BDBB9DDE90601EC
:10556800FBF7ACFA00EE100A0AB0BDEC028B10BDD6
:10557800194BB5EE408A0022F1EE10FACDE9062368
:105588000DD102239C420093E2D100F047F9222377
:105598000360E1E700F042F9089B0360DEE70123BE
:1055A800022C00930BD100F039F9212303600B483A
:1055B80000F01EF98DED060BCEE701230093684637
:1055C80000F014F90028F2D1EDE700BF78000020C0
:1055D8000C610008FFFFEFC70000F0FF1061000832
:1055E80030B482B08DED010A019B33F0004241D006
:1055F800002B48DBB3F1FF4F50DAB3F5000F80F210
:105608009780DFED6B7A9DED017A67EE277A6FF070
:10561800180517EE903A674AC3F31604224402F4B9
:10562800000282F07E50DB1504F10F0120437F3B1E
:1056380000EE100AC1F316012B44F7EE007A0F2989
:1056480003EBD25370EE677A2FDCF5EE407AF1EE79
:1056580010FA6FD1002B00F0A88007EE903A9FED6A
:10566800560A9FED567AF8EEE77A27EE800AA7EEFB
:10567800870A05E09FED527ADFED527A87EE270A16
:1056880002B030BC7047DDED017A37EEE77ADFED26
:105698004D7A87EE270A02B030BC7047DDED017AFB
:1056A80037EEA70A02B030BC7047F0EE006A77EE1A
:1056B800A66A9FED452ADFED453ADFED454ADFED65
:1056C800452A9FED454A9FED457ADFED455A454904
:1056D80087EEA66AC4F55712214402F522720A43DE
:1056E800002A06EE903A26EE065AB8EEE63A65EE3D
:1056F800056AE6EE823AA6EEA24AE3EEA64AE4EE90
:10570800265AA4EEA67A27EE057AA5EEA67A3BDD00
:10571800F6EE006A67EEA66A66EEA76A37EE267AA4
:1057280027EE067A03BB36EEC77A37EEC70AA7E735
:10573800002570E79FED2C7AB6EE000AA7EEC70A9F
:1057480027EEA77A20EE070ADBB107EE103A9FEDA5
:105758001A6ADFED1A6AB8EEC77AA7EE460A30EE83
:10576800670A97EE260A8BE7DFED135A9FED136A57
:10577800A3EE257A36EEC70A30EE670A93EE060ADC
:105788007EE737EEC00A7BE737EEC70A20EE060A47
:10579800002BF6D0DFED086A9FED087AA3EE660AC3
:1057A80030EE670A93EE070A6AE79FED060A67E795
:1057B8000000004C20FB4A00D1F717378071313FB9
:1057C800000000CC000000009788173E25333A3EC1
:1057D8002549923E4FD01C3E298E633EABAA2A3FF4
:1057E800CDCCCC3E305CCFFFABAAAA3E00207047A0
:1057F8009FED010B704700BF000000000000F87F1C
:10580800044A05491368002B08BF0B46184410606A
:1058180018467047A0000020A82F0020014B1868E8
:10582800704700BF14000020F8B500BFF8BC08BCE2
:105838009E467047F8B500BFF8BC08BC9E46704746
:105848004120426242204320446244204562452070
:105858004620476247204162000000000000000027
:105868000102030406070809000000000000000008
:105878000000000000000000000000000010001000
:1058880000100010001000100000001000000000C0
:105898000028002800280000000000000000000088
:1058A8000000000000240024007C00240048007C44
:1058B800004800480000000000380054005000383C
:1058C8000014005400540038001000000020005458
:1058D80000580030002800540014000800000000A0
:1058E8000010002800280010003400480048003448
:1058F8000000000000100010001000000000000070
:105908000000000000000000000800100020002037
:1059180000200020002000200010000800200010B7
:10592800000800080008000800080008001000200F
:1059380000100038001000280000000000000000DF
:10594800000000000000000000100010007C0010A3
:10595800001000000000000000000000000000002F
:1059680000000000000000100010001000000000FF
:1059780000000000000000380000000000000000E7
:1059880000000000000000000000000000000010FF
:1059980000000000000800080010001000100010AF
:1059A800002000200000000000380044004400549B
:1059B800004400440044003800000000001000309B
:1059C800005000100010001000100010000000002F
:1059D8000038004400440004000800100020007C47
:1059E800000000000038004400040018000400040F
:1059F80000440038000000000008001800280028B3
:105A08000048007C0008000800000000007C0040FE
:105A18000040007800040004004400380000000042
:105A28000038004400400078004400440044003836
:105A380000000000007C0004000800100010002096
:105A48000020002000000000003800440044003816
:105A580000440044004400380000000000380044BE
:105A680000440044003C00040044003800000000EA
:105A780000000000001000000000000000000010FE
:105A880000000000000000000000001000000000FE
:105A9800000000100010001000000000000C003092
:105AA80000400030000C0000000000000000000072
:105AB8000000007C0000007C0000000000000000E6
:105AC80000000000006000180004001800600000DA
